{
  "contractName": "Cart",
  "abi": [
    {
      "constant": false,
      "inputs": [
        {
          "name": "DIN",
          "type": "uint256"
        }
      ],
      "name": "addToCart",
      "outputs": [],
      "payable": false,
      "stateMutability": "nonpayable",
      "type": "function"
    },
    {
      "anonymous": false,
      "inputs": [
        {
          "indexed": true,
          "name": "DIN",
          "type": "uint256"
        },
        {
          "indexed": true,
          "name": "buyer",
          "type": "address"
        }
      ],
      "name": "AddToCart",
      "type": "event"
    }
  ],
  "bytecode": "0x60606040523415600e57600080fd5b60d78061001c6000396000f300606060405260043610603f576000357c0100000000000000000000000000000000000000000000000000000000900463ffffffff168063702742b0146044575b600080fd5b3415604e57600080fd5b606260048080359060200190919050506064565b005b3373ffffffffffffffffffffffffffffffffffffffff16817fe54a65a2b8d3b508e92630237d1cc2f902b5f28137e975ea8be7ffbad6654bb560405160405180910390a3505600a165627a7a72305820ce6b5abad84b88f8449d7efbd78d4409ca70cae5f335e644da04c33bbd3f82f10029",
  "source": "pragma solidity ^0.4.11;\n\n/** @title Universal shopping cart */\ncontract Cart {\n    event AddToCart(uint256 indexed DIN, address indexed buyer);\n\n    function addToCart(uint256 DIN) public {\n        AddToCart(DIN, msg.sender);\n    }\n}\n",
  "sourcePath": "/Users/richardmcateer/Developer/Ethereum/kiosk/single-product-page/src/kiosk.js/contracts/contracts/Cart.sol",
  "compiler": {
    "name": "solc",
    "version": "0.4.18+commit.9cf6e910.Emscripten.clang"
  },
  "schemaVersion": "1.0.1",
  "updatedAt": "2017-12-01T03:44:41.727Z"
}