{
  "contractName": "Checkout",
  "abi": [
    {
      "constant": true,
      "inputs": [
        {
          "name": "DIN",
          "type": "uint256"
        },
        {
          "name": "quantity",
          "type": "uint256"
        },
        {
          "name": "totalPrice",
          "type": "uint256"
        },
        {
          "name": "priceValidUntil",
          "type": "uint256"
        },
        {
          "name": "affiliateReward",
          "type": "uint256"
        },
        {
          "name": "affiliate",
          "type": "address"
        },
        {
          "name": "loyaltyReward",
          "type": "uint256"
        },
        {
          "name": "loyaltyToken",
          "type": "address"
        },
        {
          "name": "merchant",
          "type": "address"
        },
        {
          "name": "owner",
          "type": "address"
        },
        {
          "name": "v",
          "type": "uint8"
        },
        {
          "name": "r",
          "type": "bytes32"
        },
        {
          "name": "s",
          "type": "bytes32"
        }
      ],
      "name": "orders",
      "outputs": [
        {
          "name": "",
          "type": "address"
        }
      ],
      "payable": false,
      "stateMutability": "view",
      "type": "function"
    },
    {
      "constant": false,
      "inputs": [
        {
          "name": "orderValues",
          "type": "uint256[6]"
        },
        {
          "name": "orderAddresses",
          "type": "address[2]"
        },
        {
          "name": "nonceHash",
          "type": "bytes32"
        },
        {
          "name": "v",
          "type": "uint8"
        },
        {
          "name": "r",
          "type": "bytes32"
        },
        {
          "name": "s",
          "type": "bytes32"
        }
      ],
      "name": "buy",
      "outputs": [
        {
          "name": "",
          "type": "uint256"
        }
      ],
      "payable": true,
      "stateMutability": "payable",
      "type": "function"
    },
    {
      "constant": true,
      "inputs": [
        {
          "name": "orderValues",
          "type": "uint256[6]"
        },
        {
          "name": "orderAddresses",
          "type": "address[2]"
        },
        {
          "name": "nonceHash",
          "type": "bytes32"
        },
        {
          "name": "v",
          "type": "uint8"
        },
        {
          "name": "r",
          "type": "bytes32"
        },
        {
          "name": "s",
          "type": "bytes32"
        }
      ],
      "name": "registry",
      "outputs": [
        {
          "name": "",
          "type": "address"
        }
      ],
      "payable": false,
      "stateMutability": "view",
      "type": "function"
    },
    {
      "constant": true,
      "inputs": [
        {
          "name": "signer",
          "type": "address"
        },
        {
          "name": "hash",
          "type": "bytes32"
        },
        {
          "name": "v",
          "type": "uint8"
        },
        {
          "name": "r",
          "type": "bytes32"
        },
        {
          "name": "s",
          "type": "bytes32"
        }
      ],
      "name": "isValidSignature",
      "outputs": [
        {
          "name": "valid",
          "type": "bool"
        }
      ],
      "payable": false,
      "stateMutability": "view",
      "type": "function"
    },
    {
      "constant": true,
      "inputs": [
        {
          "name": "signer",
          "type": "address"
        },
        {
          "name": "hash",
          "type": "bytes32"
        },
        {
          "name": "v",
          "type": "uint8"
        },
        {
          "name": "r",
          "type": "bytes32"
        },
        {
          "name": "s",
          "type": "bytes32"
        }
      ],
      "name": "marketToken",
      "outputs": [
        {
          "name": "",
          "type": "address"
        }
      ],
      "payable": false,
      "stateMutability": "view",
      "type": "function"
    },
    {
      "constant": true,
      "inputs": [],
      "name": "loyaltyRegistry",
      "outputs": [
        {
          "name": "",
          "type": "address"
        }
      ],
      "payable": false,
      "stateMutability": "view",
      "type": "function"
    },
    {
      "constant": true,
      "inputs": [
        {
          "name": "_registry",
          "type": "address"
        },
        {
          "name": "_orders",
          "type": "address"
        },
        {
          "name": "_token",
          "type": "address"
        },
        {
          "name": "_loyaltyRegistry",
          "type": "address"
        }
      ],
      "name": "loyaltyRegistry",
      "outputs": [
        {
          "name": "",
          "type": "address"
        }
      ],
      "payable": false,
      "stateMutability": "nonpayable",
      "type": "constructor"
    },
    {
      "inputs": [
        {
          "name": "error",
          "type": "string",
          "indexed": false
        },
        {
          "name": "_orders",
          "type": "address"
        },
        {
          "name": "_token",
          "type": "address"
        },
        {
          "name": "_loyaltyRegistry",
          "type": "address"
        }
      ],
      "payable": false,
      "stateMutability": "nonpayable",
      "type": "event",
      "anonymous": false,
      "name": "LogError"
    },
    {
      "anonymous": false,
      "inputs": [
        {
          "indexed": true,
          "name": "orderID",
          "type": "uint256"
        }
      ],
      "name": "NewOrder",
      "type": "event"
    },
    {
      "anonymous": false,
      "inputs": [
        {
          "indexed": true,
          "name": "orderID",
          "type": "uint256"
        }
      ],
      "name": "NewOrder",
      "type": "event"
    }
  ],
  "bytecode": "0x6060604052341561000f57600080fd5b60405160808061161c83398101604052808051906020019091908051906020019091908051906020019091908051906020019091905050836000806101000a81548173ffffffffffffffffffffffffffffffffffffffff021916908373ffffffffffffffffffffffffffffffffffffffff16021790555082600160006101000a81548173ffffffffffffffffffffffffffffffffffffffff021916908373ffffffffffffffffffffffffffffffffffffffff16021790555081600260006101000a81548173ffffffffffffffffffffffffffffffffffffffff021916908373ffffffffffffffffffffffffffffffffffffffff16021790555080600360006101000a81548173ffffffffffffffffffffffffffffffffffffffff021916908373ffffffffffffffffffffffffffffffffffffffff160217905550505050506114c08061015c6000396000f300606060405260043610610078576000357c0100000000000000000000000000000000000000000000000000000000900463ffffffff1680634fb764c91461007d5780635d5d19c9146100d25780637b103999146101805780638163681e146101d5578063ad48d61114610259578063dbb6eb16146102ae575b600080fd5b341561008857600080fd5b610090610303565b604051808273ffffffffffffffffffffffffffffffffffffffff1673ffffffffffffffffffffffffffffffffffffffff16815260200191505060405180910390f35b61016a6004808060c00190600680602002604051908101604052809291908260066020028082843782019150505050509190806040019060028060200260405190810160405280929190826002602002808284378201915050505050919080356000191690602001909190803560ff169060200190919080356000191690602001909190803560001916906020019091905050610329565b6040518082815260200191505060405180910390f35b341561018b57600080fd5b610193610bd5565b604051808273ffffffffffffffffffffffffffffffffffffffff1673ffffffffffffffffffffffffffffffffffffffff16815260200191505060405180910390f35b34156101e057600080fd5b61023f600480803573ffffffffffffffffffffffffffffffffffffffff169060200190919080356000191690602001909190803560ff169060200190919080356000191690602001909190803560001916906020019091905050610bfa565b604051808215151515815260200191505060405180910390f35b341561026457600080fd5b61026c610d01565b604051808273ffffffffffffffffffffffffffffffffffffffff1673ffffffffffffffffffffffffffffffffffffffff16815260200191505060405180910390f35b34156102b957600080fd5b6102c1610d27565b604051808273ffffffffffffffffffffffffffffffffffffffff1673ffffffffffffffffffffffffffffffffffffffff16815260200191505060405180910390f35b600160009054906101000a900473ffffffffffffffffffffffffffffffffffffffff1681565b60008060006103366113e8565b60008060009054906101000a900473ffffffffffffffffffffffffffffffffffffffff1673ffffffffffffffffffffffffffffffffffffffff1663108eaa4e8c600060068110151561038457fe5b60200201516000604051602001526040518263ffffffff167c010000000000000000000000000000000000000000000000000000000002815260040180828152602001915050602060405180830381600087803b15156103e357600080fd5b6102c65a03f115156103f457600080fd5b505050604051805190509350600073ffffffffffffffffffffffffffffffffffffffff168473ffffffffffffffffffffffffffffffffffffffff1614156104e6577fc35a0ec6603ff0b5966d7ca053a5f0984a70aad58a9a0ecb1349308815a4151a6040518080602001828103825260108152602001807f496e76616c6964207265736f6c7665720000000000000000000000000000000081525060200191505060405180910390a13373ffffffffffffffffffffffffffffffffffffffff166108fc349081150290604051600060405180830381858888f1935050505015156104dd57600080fd5b60009450610bc7565b8373ffffffffffffffffffffffffffffffffffffffff1663020cdd3661138761ffff168d600060068110151561051857fe5b60200201516040518363ffffffff167c010000000000000000000000000000000000000000000000000000000002815260040180828152602001915050602060405180830381600088803b151561056e57600080fd5b87f1151561057b57600080fd5b50505050604051805190509250610140604051908101604052808c60006006811015156105a457fe5b602002015181526020018c60016006811015156105bd57fe5b602002015181526020018c60026006811015156105d657fe5b602002015181526020018c60036006811015156105ef57fe5b602002015181526020018c600460068110151561060857fe5b602002015181526020018b600060028110151561062157fe5b602002015173ffffffffffffffffffffffffffffffffffffffff1681526020018c600560068110151561065057fe5b602002015181526020018b600160028110151561066957fe5b602002015173ffffffffffffffffffffffffffffffffffffffff1681526020018473ffffffffffffffffffffffffffffffffffffffff1681526020016000809054906101000a900473ffffffffffffffffffffffffffffffffffffffff1673ffffffffffffffffffffffffffffffffffffffff1663a123c33e8e60006006811015156106f157fe5b60200201516000604051602001526040518263ffffffff167c010000000000000000000000000000000000000000000000000000000002815260040180828152602001915050602060405180830381600087803b151561075057600080fd5b6102c65a03f1151561076157600080fd5b5050506040518051905073ffffffffffffffffffffffffffffffffffffffff16815250915060001515610796838a8a8a610d4d565b151514156107e7573373ffffffffffffffffffffffffffffffffffffffff166108fc349081150290604051600060405180830381858888f1935050505015156107de57600080fd5b60009450610bc7565b6107fa8383604001518460e001516112a1565b60008260800151111561093257600260009054906101000a900473ffffffffffffffffffffffffffffffffffffffff1673ffffffffffffffffffffffffffffffffffffffff1663625c8c778361012001518460a0015185608001516000604051602001526040518463ffffffff167c0100000000000000000000000000000000000000000000000000000000028152600401808473ffffffffffffffffffffffffffffffffffffffff1673ffffffffffffffffffffffffffffffffffffffff1681526020018373ffffffffffffffffffffffffffffffffffffffff1673ffffffffffffffffffffffffffffffffffffffff1681526020018281526020019350505050602060405180830381600087803b151561091557600080fd5b6102c65a03f1151561092657600080fd5b50505060405180519050505b60008260c001511180156109775750600073ffffffffffffffffffffffffffffffffffffffff168260e0015173ffffffffffffffffffffffffffffffffffffffff1614155b15610a4c578160e0015173ffffffffffffffffffffffffffffffffffffffff166321670f22338460c001516000604051602001526040518363ffffffff167c0100000000000000000000000000000000000000000000000000000000028152600401808373ffffffffffffffffffffffffffffffffffffffff1673ffffffffffffffffffffffffffffffffffffffff16815260200182815260200192505050602060405180830381600087803b1515610a2f57600080fd5b6102c65a03f11515610a4057600080fd5b50505060405180519050505b600160009054906101000a900473ffffffffffffffffffffffffffffffffffffffff1673ffffffffffffffffffffffffffffffffffffffff1663021649408a33868660000151876020015188604001516000604051602001526040518763ffffffff167c01000000000000000000000000000000000000000000000000000000000281526004018087600019166000191681526020018673ffffffffffffffffffffffffffffffffffffffff1673ffffffffffffffffffffffffffffffffffffffff1681526020018573ffffffffffffffffffffffffffffffffffffffff1673ffffffffffffffffffffffffffffffffffffffff1681526020018481526020018381526020018281526020019650505050505050602060405180830381600087803b1515610b7957600080fd5b6102c65a03f11515610b8a57600080fd5b505050604051805190509050807fd56de72b04be4cf70c2bab5e6905fb51e28beb22f7a5d40a6dc4103149d6110660405160405180910390a28094505b505050509695505050505050565b6000809054906101000a900473ffffffffffffffffffffffffffffffffffffffff1681565b600060018560405180807f19457468657265756d205369676e6564204d6573736167653a0a333200000000815250601c0182600019166000191681526020019150506040518091039020858585604051600081526020016040526000604051602001526040518085600019166000191681526020018460ff1660ff16815260200183600019166000191681526020018260001916600019168152602001945050505050602060405160208103908084039060008661646e5a03f11515610cbf57600080fd5b50506020604051035173ffffffffffffffffffffffffffffffffffffffff168673ffffffffffffffffffffffffffffffffffffffff1614905095945050505050565b600260009054906101000a900473ffffffffffffffffffffffffffffffffffffffff1681565b600360009054906101000a900473ffffffffffffffffffffffffffffffffffffffff1681565b60008060008660600151421115610dcf577fc35a0ec6603ff0b5966d7ca053a5f0984a70aad58a9a0ecb1349308815a4151a60405180806020018281038252600d8152602001807f4f6666657220657870697265640000000000000000000000000000000000000081525060200191505060405180910390a160009250611297565b600073ffffffffffffffffffffffffffffffffffffffff1687610100015173ffffffffffffffffffffffffffffffffffffffff161415610e7a577fc35a0ec6603ff0b5966d7ca053a5f0984a70aad58a9a0ecb1349308815a4151a6040518080602001828103825260108152602001807f496e76616c6964206d65726368616e740000000000000000000000000000000081525060200191505060405180910390a160009250611297565b60008760800151118015610ebd57503373ffffffffffffffffffffffffffffffffffffffff168760a0015173ffffffffffffffffffffffffffffffffffffffff16145b15610f33577fc35a0ec6603ff0b5966d7ca053a5f0984a70aad58a9a0ecb1349308815a4151a6040518080602001828103825260118152602001807f496e76616c696420616666696c6961746500000000000000000000000000000081525060200191505060405180910390a160009250611297565b60008760c00151118015610f785750600073ffffffffffffffffffffffffffffffffffffffff168760e0015173ffffffffffffffffffffffffffffffffffffffff1614155b801561106b575060001515600360009054906101000a900473ffffffffffffffffffffffffffffffffffffffff1673ffffffffffffffffffffffffffffffffffffffff16639b19251a8960e001516000604051602001526040518263ffffffff167c0100000000000000000000000000000000000000000000000000000000028152600401808273ffffffffffffffffffffffffffffffffffffffff1673ffffffffffffffffffffffffffffffffffffffff168152602001915050602060405180830381600087803b151561104c57600080fd5b6102c65a03f1151561105d57600080fd5b505050604051805190501515145b156110e1577fc35a0ec6603ff0b5966d7ca053a5f0984a70aad58a9a0ecb1349308815a4151a6040518080602001828103825260158152602001807f496e76616c6964206c6f79616c747920746f6b656e000000000000000000000081525060200191505060405180910390a160009250611297565b866040015134111561115e577fc35a0ec6603ff0b5966d7ca053a5f0984a70aad58a9a0ecb1349308815a4151a60405180806020018281038252600d8152602001807f496e76616c69642070726963650000000000000000000000000000000000000081525060200191505060405180910390a160009250611297565b8660200151876040015181151561117157fe5b049150866000015182886060015189608001518a60c001518b60e00151604051808781526020018681526020018581526020018481526020018381526020018273ffffffffffffffffffffffffffffffffffffffff1673ffffffffffffffffffffffffffffffffffffffff166c010000000000000000000000000281526014019650505050505050604051809103902090506000151561121988610120015183898989610bfa565b15151415611292577fc35a0ec6603ff0b5966d7ca053a5f0984a70aad58a9a0ecb1349308815a4151a6040518080602001828103825260118152602001807f496e76616c6964207369676e617475726500000000000000000000000000000081525060200191505060405180910390a160009250611297565b600192505b5050949350505050565b60008373ffffffffffffffffffffffffffffffffffffffff166108fc349081150290604051600060405180830381858888f1935050505015156112e357600080fd5b6112f634846113cf90919063ffffffff16565b905060008111156113c9578173ffffffffffffffffffffffffffffffffffffffff16631e9a695033836000604051602001526040518363ffffffff167c0100000000000000000000000000000000000000000000000000000000028152600401808373ffffffffffffffffffffffffffffffffffffffff1673ffffffffffffffffffffffffffffffffffffffff16815260200182815260200192505050602060405180830381600087803b15156113ac57600080fd5b6102c65a03f115156113bd57600080fd5b50505060405180519050505b50505050565b60008282111515156113dd57fe5b818303905092915050565b610140604051908101604052806000815260200160008152602001600081526020016000815260200160008152602001600073ffffffffffffffffffffffffffffffffffffffff16815260200160008152602001600073ffffffffffffffffffffffffffffffffffffffff168152602001600073ffffffffffffffffffffffffffffffffffffffff168152602001600073ffffffffffffffffffffffffffffffffffffffff16815250905600a165627a7a7230582067135197afec1aef2efd17f96262a1f392efa935669b2115ee96ef23d5570fe90029",
  "source": "pragma solidity ^0.4.11;\n\nimport \"./DINRegistry.sol\";\nimport \"./MarketToken.sol\";\nimport \"./Orders.sol\";\nimport \"./Resolver.sol\";\nimport \"./LoyaltyToken.sol\";\nimport \"./LoyaltyTokenRegistry.sol\";\nimport \"zeppelin-solidity/contracts/math/SafeMath.sol\";\n\ncontract Checkout {\n    using SafeMath for uint256;\n\n    DINRegistry public registry;\n    Orders public orders;\n    MarketToken public marketToken;\n    LoyaltyTokenRegistry public loyaltyRegistry;\n\n    uint16 constant EXTERNAL_QUERY_GAS_LIMIT = 4999;  // Changes to state require at least 5000 gas\n\n    // Prevent Solidity \"stack too deep\" error.\n    struct Order {\n        uint256 DIN;\n        uint256 quantity;\n        uint256 totalPrice;\n        uint256 priceValidUntil;\n        uint256 affiliateReward;\n        address affiliate;\n        uint256 loyaltyReward;\n        address loyaltyToken;\n        address merchant;\n        address owner;\n    }\n\n    // Log Solidity errors\n    event LogError(string error);\n\n    // Log new orders\n    event NewOrder(uint256 indexed orderID);\n\n    /** @dev Constructor.\n      * @param _registry The DIN Registry contract address.\n      * @param _orders The Orders contract address.\n      * @param _token The Market Token contract address.\n      * @param _loyaltyRegistry The Loyalty Token Registry contract address.\n      */\n    function Checkout(\n        DINRegistry _registry,\n        Orders _orders,\n        MarketToken _token,\n        LoyaltyTokenRegistry _loyaltyRegistry\n    ) public {\n        registry = _registry;\n        orders = _orders;\n        marketToken = _token;\n        loyaltyRegistry = _loyaltyRegistry;\n    }\n\n    /** @dev Buy a product.\n      * param orderValues:\n        [0] DIN The Decentralized Identification Number (DIN) of the product to buy.\n        [1] quantity The quantity to buy.\n        [2] totalPrice Total price of the purchase, in wei.\n        [3] priceValidUntil Expiration time (Unix timestamp).\n        [4] affiliateReward Affiliate reward (optional), denominated in base units of Market Token (MARK).\n        [5] loyaltyReward Loyalty reward (optional), denominated in loyaltyToken.\n      * param orderAddresses:\n        [0] affiliate Address of the affiliate. Use null address (0x0...) for no affiliate.\n        [1] loyaltyToken Address of the Loyalty Token. Use null address for no loyalty reward.\n      * @param nonceHash The hash of a nonce generated by a client. The nonce can be used as a proof of purchase.\n      * @param v ECDSA signature parameter v.\n      * @param r ECDSA signature parameter r.\n      * @param s ECDSA signature parameter s.\n      * @return orderID A unique ID for the order.\n      */\n    function buy(\n        uint256[6] orderValues,\n        address[2] orderAddresses,\n        bytes32 nonceHash,\n        uint8 v,\n        bytes32 r,\n        bytes32 s\n    )\n        payable\n        public\n        returns (uint256)\n    {\n        // Get the resolver address from the DIN Registry.\n        address resolver = registry.resolver(orderValues[0]);\n\n        if (resolver == address(0x0)) {\n            LogError(\"Invalid resolver\");\n            msg.sender.transfer(msg.value);\n            return 0;\n        }\n\n        // Untrusted external call. Limit gas to prevent changes to state on reentry.\n        address merchant = Resolver(resolver).merchant.gas(EXTERNAL_QUERY_GAS_LIMIT)(orderValues[0]);\n\n        Order memory order = Order({\n            DIN: orderValues[0],\n            quantity: orderValues[1],\n            totalPrice: orderValues[2],\n            priceValidUntil: orderValues[3],\n            affiliateReward: orderValues[4],\n            affiliate: orderAddresses[0],\n            loyaltyReward: orderValues[5],\n            loyaltyToken: orderAddresses[1],\n            merchant: merchant,\n            owner: registry.owner(orderValues[0]) // Get the DIN owner address from the DIN registry.\n        });\n\n        if (isValidOrder(order, v, r, s) == false) {\n            // Return Ether to buyer.\n            msg.sender.transfer(msg.value);\n            return 0;\n        }\n\n        // Transfer a mix of Ether and loyalty tokens (if applicable) from buyer to merchant.\n        payMerchant(merchant, order.totalPrice, order.loyaltyToken);\n\n        // Transfer affiliate reward from DIN owner to affiliate.\n        if (order.affiliateReward > 0) {\n            marketToken.transferFromCheckout(order.owner, order.affiliate, order.affiliateReward);\n        }\n\n        // Transfer loyalty reward from DIN owner to buyer.\n        if (order.loyaltyReward > 0 && order.loyaltyToken != address(0x0)) {\n            LoyaltyToken(order.loyaltyToken).reward(msg.sender, order.loyaltyReward);\n        }\n\n        // Create a new order\n        uint256 orderID = orders.createOrder(\n            nonceHash,\n            msg.sender, // Buyer\n            merchant,\n            order.DIN,\n            order.quantity,\n            order.totalPrice\n        );\n\n        // Log and return the unique order ID.\n        NewOrder(orderID);\n        return orderID;\n    }\n\n    /**\n      * @dev Transfer a mix of Ether and loyalty token from buyer to merchant.\n      * @param merchant The merchant address.\n      * @param totalPrice The total price of the purchase, in wei.\n      * @param loyaltyToken The address of the loyalty token specified by the DIN owner.\n      */\n    function payMerchant(address merchant, uint256 totalPrice, address loyaltyToken) private {\n        // Transfer Ether from buyer to merchant.\n        merchant.transfer(msg.value);\n\n        // Calculate the remaining balance.\n        uint256 loyaltyValue = totalPrice.sub(msg.value);\n\n        // Transfer loyalty tokens from buyer to merchant if the total price was not paid in Ether.\n        if (loyaltyValue > 0) {\n            LoyaltyToken(loyaltyToken).redeem(msg.sender, loyaltyValue);\n        }\n    }\n\n    /**\n      * @dev Verify that an order is valid.\n      * @return valid Validity of the order.\n      */\n    function isValidOrder(Order order, uint8 v, bytes32 r, bytes32 s) internal constant returns (bool) {\n        if (block.timestamp > order.priceValidUntil) {\n            LogError(\"Offer expired\");\n            return false;\n        }\n\n        if (order.merchant == address(0x0)) {\n            LogError(\"Invalid merchant\");\n            return false;\n        }\n\n        if (order.affiliateReward > 0 && order.affiliate == msg.sender) {\n            LogError(\"Invalid affiliate\");\n            return false;\n        }\n\n        if (order.loyaltyReward > 0 && order.loyaltyToken != address(0x0) && loyaltyRegistry.whitelist(order.loyaltyToken) == false) {\n            LogError(\"Invalid loyalty token\");\n            return false;\n        }\n\n        if (msg.value > order.totalPrice) {\n            LogError(\"Invalid price\");\n            return false;\n        }\n\n        uint256 unitPrice = order.totalPrice / order.quantity;\n\n        // Calculate the hash of the parameters provided by the buyer.\n        bytes32 hash = keccak256(\n            order.DIN,\n            unitPrice,\n            order.priceValidUntil,\n            order.affiliateReward, \n            order.loyaltyReward,\n            order.loyaltyToken\n        );\n\n        // Verify that the DIN owner has signed the provided inputs.\n        if (isValidSignature(order.owner, hash, v, r, s) == false) {\n            LogError(\"Invalid signature\");\n            return false;\n        }\n\n        return true;\n    }\n\n    /**\n      * @dev Verify that an order signature is valid.\n      * @param signer address of signer.\n      * @param hash Signed Keccak-256 hash.\n      * @param v ECDSA signature parameter v.\n      * @param r ECDSA signature parameters r.\n      * @param s ECDSA signature parameters s.\n      * @return valid Validity of the order signature.\n      */\n    function isValidSignature(\n        address signer,\n        bytes32 hash,\n        uint8 v,\n        bytes32 r,\n        bytes32 s\n    )\n        public\n        constant\n        returns (bool valid)\n    {\n        return signer == ecrecover(\n            keccak256(\"\\x19Ethereum Signed Message:\\n32\", hash),\n            v,\n            r,\n            s\n        );\n    }\n\n}",
  "sourcePath": "/Users/richardmcateer/Developer/Ethereum/kiosk/contracts/contracts/Checkout.sol",
  "compiler": {
    "name": "solc",
    "version": "0.4.18+commit.9cf6e910.Emscripten.clang"
  },
  "schemaVersion": "1.0.1",
  "updatedAt": "2017-11-29T04:47:35.904Z"
}