{
  "contractName": "Checkout",
  "abi": [
    {
      "constant": true,
      "inputs": [
        {
          "name": "DIN",
          "type": "uint256"
        },
        {
          "name": "quantity",
          "type": "uint256"
        },
        {
          "name": "totalPrice",
          "type": "uint256"
        },
        {
          "name": "priceValidUntil",
          "type": "uint256"
        },
        {
          "name": "affiliateReward",
          "type": "uint256"
        },
        {
          "name": "affiliate",
          "type": "address"
        },
        {
          "name": "loyaltyReward",
          "type": "uint256"
        },
        {
          "name": "loyaltyToken",
          "type": "address"
        },
        {
          "name": "merchant",
          "type": "address"
        },
        {
          "name": "owner",
          "type": "address"
        },
        {
          "name": "v",
          "type": "uint8"
        },
        {
          "name": "r",
          "type": "bytes32"
        },
        {
          "name": "s",
          "type": "bytes32"
        }
      ],
      "name": "isValidOrder",
      "outputs": [
        {
          "name": "",
          "type": "bool"
        }
      ],
      "payable": false,
      "stateMutability": "view",
      "type": "function"
    },
    {
      "constant": true,
      "inputs": [],
      "name": "orderIndex",
      "outputs": [
        {
          "name": "",
          "type": "uint256"
        }
      ],
      "payable": false,
      "stateMutability": "view",
      "type": "function"
    },
    {
      "constant": false,
      "inputs": [
        {
          "name": "orderValues",
          "type": "uint256[6]"
        },
        {
          "name": "orderAddresses",
          "type": "address[2]"
        },
        {
          "name": "nonceHash",
          "type": "bytes32"
        },
        {
          "name": "v",
          "type": "uint8"
        },
        {
          "name": "r",
          "type": "bytes32"
        },
        {
          "name": "s",
          "type": "bytes32"
        }
      ],
      "name": "buy",
      "outputs": [
        {
          "name": "orderID",
          "type": "uint256"
        }
      ],
      "payable": true,
      "stateMutability": "payable",
      "type": "function"
    },
    {
      "constant": true,
      "inputs": [],
      "name": "registry",
      "outputs": [
        {
          "name": "",
          "type": "address"
        }
      ],
      "payable": false,
      "stateMutability": "view",
      "type": "function"
    },
    {
      "constant": true,
      "inputs": [],
      "name": "loyaltyFactory",
      "outputs": [
        {
          "name": "",
          "type": "address"
        }
      ],
      "payable": false,
      "stateMutability": "view",
      "type": "function"
    },
    {
      "constant": true,
      "inputs": [
        {
          "name": "signer",
          "type": "address"
        },
        {
          "name": "hash",
          "type": "bytes32"
        },
        {
          "name": "v",
          "type": "uint8"
        },
        {
          "name": "r",
          "type": "bytes32"
        },
        {
          "name": "s",
          "type": "bytes32"
        }
      ],
      "name": "isValidSignature",
      "outputs": [
        {
          "name": "valid",
          "type": "bool"
        }
      ],
      "payable": false,
      "stateMutability": "view",
      "type": "function"
    },
    {
      "constant": true,
      "inputs": [],
      "name": "marketToken",
      "outputs": [
        {
          "name": "",
          "type": "address"
        }
      ],
      "payable": false,
      "stateMutability": "view",
      "type": "function"
    },
    {
      "inputs": [
        {
          "name": "_token",
          "type": "address"
        },
        {
          "name": "_registry",
          "type": "address"
        },
        {
          "name": "_loyaltyFactory",
          "type": "address"
        }
      ],
      "payable": false,
      "stateMutability": "nonpayable",
      "type": "constructor"
    },
    {
      "anonymous": false,
      "inputs": [
        {
          "indexed": false,
          "name": "error",
          "type": "string"
        }
      ],
      "name": "LogError",
      "type": "event"
    },
    {
      "anonymous": false,
      "inputs": [
        {
          "indexed": true,
          "name": "orderID",
          "type": "uint256"
        },
        {
          "indexed": false,
          "name": "nonceHash",
          "type": "bytes32"
        },
        {
          "indexed": true,
          "name": "buyer",
          "type": "address"
        },
        {
          "indexed": true,
          "name": "merchant",
          "type": "address"
        },
        {
          "indexed": false,
          "name": "DIN",
          "type": "uint256"
        },
        {
          "indexed": false,
          "name": "quantity",
          "type": "uint256"
        },
        {
          "indexed": false,
          "name": "totalPrice",
          "type": "uint256"
        },
        {
          "indexed": false,
          "name": "timestamp",
          "type": "uint256"
        }
      ],
      "name": "NewOrder",
      "type": "event"
    }
  ],
  "bytecode": "0x60606040526000600355341561001457600080fd5b6040516060806117bf83398101604052808051906020019091908051906020019091908051906020019091905050826000806101000a81548173ffffffffffffffffffffffffffffffffffffffff021916908373ffffffffffffffffffffffffffffffffffffffff16021790555081600160006101000a81548173ffffffffffffffffffffffffffffffffffffffff021916908373ffffffffffffffffffffffffffffffffffffffff16021790555080600260006101000a81548173ffffffffffffffffffffffffffffffffffffffff021916908373ffffffffffffffffffffffffffffffffffffffff1602179055505050506116a9806101166000396000f300606060405260043610610083576000357c0100000000000000000000000000000000000000000000000000000000900463ffffffff168063246129f91461008857806330471fee146101925780635d5d19c9146101bb5780637b103999146102695780637e447c67146102be5780638163681e14610313578063ad48d61114610397575b600080fd5b341561009357600080fd5b610178600480803590602001909190803590602001909190803590602001909190803590602001909190803590602001909190803573ffffffffffffffffffffffffffffffffffffffff1690602001909190803590602001909190803573ffffffffffffffffffffffffffffffffffffffff1690602001909190803573ffffffffffffffffffffffffffffffffffffffff1690602001909190803573ffffffffffffffffffffffffffffffffffffffff1690602001909190803560ff1690602001909190803560001916906020019091908035600019169060200190919050506103ec565b604051808215151515815260200191505060405180910390f35b341561019d57600080fd5b6101a5610a85565b6040518082815260200191505060405180910390f35b6102536004808060c00190600680602002604051908101604052809291908260066020028082843782019150505050509190806040019060028060200260405190810160405280929190826002602002808284378201915050505050919080356000191690602001909190803560ff169060200190919080356000191690602001909190803560001916906020019091905050610a8b565b6040518082815260200191505060405180910390f35b341561027457600080fd5b61027c611422565b604051808273ffffffffffffffffffffffffffffffffffffffff1673ffffffffffffffffffffffffffffffffffffffff16815260200191505060405180910390f35b34156102c957600080fd5b6102d1611448565b604051808273ffffffffffffffffffffffffffffffffffffffff1673ffffffffffffffffffffffffffffffffffffffff16815260200191505060405180910390f35b341561031e57600080fd5b61037d600480803573ffffffffffffffffffffffffffffffffffffffff169060200190919080356000191690602001909190803560ff16906020019091908035600019169060200190919080356000191690602001909190505061146e565b604051808215151515815260200191505060405180910390f35b34156103a257600080fd5b6103aa611575565b604051808273ffffffffffffffffffffffffffffffffffffffff1673ffffffffffffffffffffffffffffffffffffffff16815260200191505060405180910390f35b60008060008c4211156104aa577fc35a0ec6603ff0b5966d7ca053a5f0984a70aad58a9a0ecb1349308815a4151a60405180806020018281038252600d8152602001807f4f6666657220657870697265640000000000000000000000000000000000000081525060200191505060405180910390a13373ffffffffffffffffffffffffffffffffffffffff166108fc349081150290604051600060405180830381858888f1935050505015156104a157600080fd5b60009250610a72565b600073ffffffffffffffffffffffffffffffffffffffff168873ffffffffffffffffffffffffffffffffffffffff161415610590577fc35a0ec6603ff0b5966d7ca053a5f0984a70aad58a9a0ecb1349308815a4151a6040518080602001828103825260108152602001807f496e76616c6964206d65726368616e740000000000000000000000000000000081525060200191505060405180910390a13373ffffffffffffffffffffffffffffffffffffffff166108fc349081150290604051600060405180830381858888f19350505050151561058757600080fd5b60009250610a72565b60008c1180156105cb57503373ffffffffffffffffffffffffffffffffffffffff168b73ffffffffffffffffffffffffffffffffffffffff16145b15610681577fc35a0ec6603ff0b5966d7ca053a5f0984a70aad58a9a0ecb1349308815a4151a6040518080602001828103825260118152602001807f496e76616c696420616666696c6961746500000000000000000000000000000081525060200191505060405180910390a13373ffffffffffffffffffffffffffffffffffffffff166108fc349081150290604051600060405180830381858888f19350505050151561067857600080fd5b60009250610a72565b60008a1180156106be5750600073ffffffffffffffffffffffffffffffffffffffff168973ffffffffffffffffffffffffffffffffffffffff1614155b156108615760001515600260009054906101000a900473ffffffffffffffffffffffffffffffffffffffff1673ffffffffffffffffffffffffffffffffffffffff16639b19251a8b6000604051602001526040518263ffffffff167c0100000000000000000000000000000000000000000000000000000000028152600401808273ffffffffffffffffffffffffffffffffffffffff1673ffffffffffffffffffffffffffffffffffffffff168152602001915050602060405180830381600087803b151561078c57600080fd5b6102c65a03f1151561079d57600080fd5b5050506040518051905015151415610860577fc35a0ec6603ff0b5966d7ca053a5f0984a70aad58a9a0ecb1349308815a4151a6040518080602001828103825260158152602001807f496e76616c6964206c6f79616c747920746f6b656e000000000000000000000081525060200191505060405180910390a13373ffffffffffffffffffffffffffffffffffffffff166108fc349081150290604051600060405180830381858888f19350505050151561085757600080fd5b60009250610a72565b5b8d34111561091a577fc35a0ec6603ff0b5966d7ca053a5f0984a70aad58a9a0ecb1349308815a4151a60405180806020018281038252600d8152602001807f496e76616c69642070726963650000000000000000000000000000000000000081525060200191505060405180910390a13373ffffffffffffffffffffffffffffffffffffffff166108fc349081150290604051600060405180830381858888f19350505050151561091157600080fd5b60009250610a72565b8e8e81151561092557fe5b0491508f828e8e8d8d604051808781526020018681526020018581526020018481526020018381526020018273ffffffffffffffffffffffffffffffffffffffff1673ffffffffffffffffffffffffffffffffffffffff166c01000000000000000000000000028152601401965050505050505060405180910390209050600015156109b4888389898961146e565b15151415610a6d577fc35a0ec6603ff0b5966d7ca053a5f0984a70aad58a9a0ecb1349308815a4151a6040518080602001828103825260118152602001807f496e76616c6964207369676e617475726500000000000000000000000000000081525060200191505060405180910390a13373ffffffffffffffffffffffffffffffffffffffff166108fc349081150290604051600060405180830381858888f193505050501515610a6457600080fd5b60009250610a72565b600192505b50509d9c50505050505050505050505050565b60035481565b6000806000610a986115b3565b600080600160009054906101000a900473ffffffffffffffffffffffffffffffffffffffff1673ffffffffffffffffffffffffffffffffffffffff1663108eaa4e8d6000600681101515610ae857fe5b60200201516000604051602001526040518263ffffffff167c010000000000000000000000000000000000000000000000000000000002815260040180828152602001915050602060405180830381600087803b1515610b4757600080fd5b6102c65a03f11515610b5857600080fd5b505050604051805190509450600073ffffffffffffffffffffffffffffffffffffffff168573ffffffffffffffffffffffffffffffffffffffff161415610c4a577fc35a0ec6603ff0b5966d7ca053a5f0984a70aad58a9a0ecb1349308815a4151a6040518080602001828103825260108152602001807f496e76616c6964207265736f6c7665720000000000000000000000000000000081525060200191505060405180910390a13373ffffffffffffffffffffffffffffffffffffffff166108fc349081150290604051600060405180830381858888f193505050501515610c4157600080fd5b60009550611413565b8473ffffffffffffffffffffffffffffffffffffffff1663020cdd368d6000600681101515610c7557fe5b60200201516000604051602001526040518263ffffffff167c010000000000000000000000000000000000000000000000000000000002815260040180828152602001915050602060405180830381600087803b1515610cd457600080fd5b6102c65a03f11515610ce557600080fd5b5050506040518051905093506101a0604051908101604052808d6000600681101515610d0d57fe5b602002015181526020018d6001600681101515610d2657fe5b602002015181526020018d6002600681101515610d3f57fe5b602002015181526020018d6003600681101515610d5857fe5b602002015181526020018d6004600681101515610d7157fe5b602002015181526020018c6000600281101515610d8a57fe5b602002015173ffffffffffffffffffffffffffffffffffffffff1681526020018d6005600681101515610db957fe5b602002015181526020018c6001600281101515610dd257fe5b602002015173ffffffffffffffffffffffffffffffffffffffff1681526020018573ffffffffffffffffffffffffffffffffffffffff168152602001600160009054906101000a900473ffffffffffffffffffffffffffffffffffffffff1673ffffffffffffffffffffffffffffffffffffffff1663a123c33e8f6000600681101515610e5b57fe5b60200201516000604051602001526040518263ffffffff167c010000000000000000000000000000000000000000000000000000000002815260040180828152602001915050602060405180830381600087803b1515610eba57600080fd5b6102c65a03f11515610ecb57600080fd5b5050506040518051905073ffffffffffffffffffffffffffffffffffffffff1681526020018a60ff1681526020018960001916815260200188600019168152509250610f5b836000015184602001518560400151866060015187608001518860a001518960c001518a60e001518b61010001518c61012001518d61014001518e61016001518f61018001516103ec565b9150600015158215151415610f735760009550611413565b8373ffffffffffffffffffffffffffffffffffffffff166108fc349081150290604051600060405180830381858888f193505050501515610fb357600080fd5b610fca34846040015161159a90919063ffffffff16565b905060008111156110d5578260e0015173ffffffffffffffffffffffffffffffffffffffff1663625c8c773386846000604051602001526040518463ffffffff167c0100000000000000000000000000000000000000000000000000000000028152600401808473ffffffffffffffffffffffffffffffffffffffff1673ffffffffffffffffffffffffffffffffffffffff1681526020018373ffffffffffffffffffffffffffffffffffffffff1673ffffffffffffffffffffffffffffffffffffffff1681526020018281526020019350505050602060405180830381600087803b15156110b857600080fd5b6102c65a03f115156110c957600080fd5b50505060405180519050505b60008360800151111561120c576000809054906101000a900473ffffffffffffffffffffffffffffffffffffffff1673ffffffffffffffffffffffffffffffffffffffff1663625c8c778461012001518560a0015186608001516000604051602001526040518463ffffffff167c0100000000000000000000000000000000000000000000000000000000028152600401808473ffffffffffffffffffffffffffffffffffffffff1673ffffffffffffffffffffffffffffffffffffffff1681526020018373ffffffffffffffffffffffffffffffffffffffff1673ffffffffffffffffffffffffffffffffffffffff1681526020018281526020019350505050602060405180830381600087803b15156111ef57600080fd5b6102c65a03f1151561120057600080fd5b50505060405180519050505b60008360c001511180156112515750600073ffffffffffffffffffffffffffffffffffffffff168360e0015173ffffffffffffffffffffffffffffffffffffffff1614155b1561135f578260e0015173ffffffffffffffffffffffffffffffffffffffff1663625c8c77846101200151338660c001516000604051602001526040518463ffffffff167c0100000000000000000000000000000000000000000000000000000000028152600401808473ffffffffffffffffffffffffffffffffffffffff1673ffffffffffffffffffffffffffffffffffffffff1681526020018373ffffffffffffffffffffffffffffffffffffffff1673ffffffffffffffffffffffffffffffffffffffff1681526020018281526020019350505050602060405180830381600087803b151561134257600080fd5b6102c65a03f1151561135357600080fd5b50505060405180519050505b6003600081548092919060010191905055508373ffffffffffffffffffffffffffffffffffffffff163373ffffffffffffffffffffffffffffffffffffffff166003547f53badc7e352aa2220059cda625fc115ef82c5f7fb8d47684e5d436495c2e0c668d876000015188602001518960400151426040518086600019166000191681526020018581526020018481526020018381526020018281526020019550505050505060405180910390a460035495505b50505050509695505050505050565b600160009054906101000a900473ffffffffffffffffffffffffffffffffffffffff1681565b600260009054906101000a900473ffffffffffffffffffffffffffffffffffffffff1681565b600060018560405180807f19457468657265756d205369676e6564204d6573736167653a0a333200000000815250601c0182600019166000191681526020019150506040518091039020858585604051600081526020016040526000604051602001526040518085600019166000191681526020018460ff1660ff16815260200183600019166000191681526020018260001916600019168152602001945050505050602060405160208103908084039060008661646e5a03f1151561153357600080fd5b50506020604051035173ffffffffffffffffffffffffffffffffffffffff168673ffffffffffffffffffffffffffffffffffffffff1614905095945050505050565b6000809054906101000a900473ffffffffffffffffffffffffffffffffffffffff1681565b60008282111515156115a857fe5b818303905092915050565b6101a0604051908101604052806000815260200160008152602001600081526020016000815260200160008152602001600073ffffffffffffffffffffffffffffffffffffffff16815260200160008152602001600073ffffffffffffffffffffffffffffffffffffffff168152602001600073ffffffffffffffffffffffffffffffffffffffff168152602001600073ffffffffffffffffffffffffffffffffffffffff168152602001600060ff168152602001600080191681526020016000801916815250905600a165627a7a72305820bb84264db76dd9144cec6d83bc66e753f960eed3fcb2dbdfa47e85eb1e856ad90029",
  "source": "pragma solidity ^0.4.11;\n\nimport \"./MarketToken.sol\";\nimport \"./DINRegistry.sol\";\nimport \"./Resolver.sol\";\nimport \"./LoyaltyToken.sol\";\nimport \"./LoyaltyTokenFactory.sol\";\nimport \"zeppelin-solidity/contracts/math/SafeMath.sol\";\n\ncontract Checkout {\n    using SafeMath for uint256;\n\n    MarketToken public marketToken;\n    DINRegistry public registry;\n    LoyaltyTokenFactory public loyaltyFactory;\n\n    // The next order ID.\n    uint256 public orderIndex = 0;\n\n    // Prevents Solidity \"stack too deep\" error.\n    struct Order {\n        uint256 DIN;\n        uint256 quantity;\n        uint256 totalPrice;\n        uint256 priceValidUntil;\n        uint256 affiliateReward;\n        address affiliate;\n        uint256 loyaltyReward;\n        address loyaltyToken;\n        address merchant;\n        address owner;\n        uint8 v;\n        bytes32 r;\n        bytes32 s;\n    }\n\n    // Logs Solidity errors\n    event LogError(string error);\n\n    // Logs new orders\n    event NewOrder(\n        uint256 indexed orderID,\n        bytes32 nonceHash,\n        address indexed buyer,\n        address indexed merchant,\n        uint256 DIN,\n        uint256 quantity,\n        uint256 totalPrice,\n        uint256 timestamp\n    );\n\n    /** @dev Constructor.\n      * @param _token The Market Token contract address.\n      * @param _registry The DIN Registry contract address.\n      * @param _loyaltyFactory The Loyalty Token Factory contract address.\n      */\n    function Checkout(\n        MarketToken _token,\n        DINRegistry _registry,\n        LoyaltyTokenFactory _loyaltyFactory\n    ) public {\n        marketToken = _token;\n        registry = _registry;\n        loyaltyFactory = _loyaltyFactory;\n    }\n\n    /** @dev Buy a product.\n      * param orderValues:\n        [0] DIN The Decentralized Identification Number (DIN) of the product to buy.\n        [1] quantity The quantity to buy.\n        [2] totalPrice Total price of the purchase, in wei.\n        [3] priceValidUntil Expiration time (Unix timestamp).\n        [4] affiliateReward Affiliate reward (optional), denominated in base units of Market Token (MARK).\n        [5] loyaltyReward Loyalty reward (optional), denominated in loyaltyToken.\n      * param orderAddresses:\n        [0] affiliate Address of the affiliate. Use null address (0x0...) for no affiliate.\n        [1] loyaltyToken Address of the Loyalty Token. Use null address for no loyalty reward.\n      * @param nonceHash The hash of a nonce generated by a client. The nonce can be used as a proof of purchase.\n      * @param v ECDSA signature parameter v.\n      * @param r ECDSA signature parameter r.\n      * @param s ECDSA signature parameter s.\n      * @return orderID A unique ID for the order.\n      */\n    function buy(\n        uint256[6] orderValues,\n        address[2] orderAddresses,\n        bytes32 nonceHash,\n        uint8 v,\n        bytes32 r,\n        bytes32 s\n    )\n        payable\n        public\n        returns (uint256 orderID)\n    {\n        // Get the resolver address from the DIN Registry.\n        address resolver = registry.resolver(orderValues[0]);\n\n        if (resolver == address(0x0)) {\n            LogError(\"Invalid resolver\");\n            msg.sender.transfer(msg.value);\n            return 0;\n        }\n\n        // Untrusted call\n        address merchant = Resolver(resolver).merchant(orderValues[0]);\n\n        Order memory order = Order({\n            DIN: orderValues[0],\n            quantity: orderValues[1],\n            totalPrice: orderValues[2],\n            priceValidUntil: orderValues[3],\n            affiliateReward: orderValues[4],\n            affiliate: orderAddresses[0],\n            loyaltyReward: orderValues[5],\n            loyaltyToken: orderAddresses[1],\n            merchant: merchant,\n            owner: registry.owner(orderValues[0]), // Get the DIN owner address from the DIN registry.\n            v: v,\n            r: r,\n            s: s\n        });\n\n        bool isValid = isValidOrder(\n            order.DIN,\n            order.quantity,\n            order.totalPrice,\n            order.priceValidUntil,\n            order.affiliateReward,\n            order.affiliate,\n            order.loyaltyReward,\n            order.loyaltyToken,\n            order.merchant,\n            order.owner,\n            order.v,\n            order.r,\n            order.s\n        );\n\n        if (isValid == false) {\n            return 0;\n        }\n\n        // Transfer Ether from buyer to merchant.\n        merchant.transfer(msg.value);\n\n        // Calculate the remaining balance.\n        uint256 loyaltyValue = order.totalPrice.sub(msg.value);\n\n        // Transfer loyalty tokens from buyer to merchant if the total price was not paid in Ether.\n        if (loyaltyValue > 0) {\n            LoyaltyToken(order.loyaltyToken).transferFromCheckout(msg.sender, merchant, loyaltyValue);\n        }\n\n        // Transfer affiliate reward from DIN owner to affiliate.\n        if (order.affiliateReward > 0) {\n            marketToken.transferFromCheckout(order.owner, order.affiliate, order.affiliateReward);\n        }\n\n        // Transfer loyalty reward from DIN owner to buyer.\n        if (order.loyaltyReward > 0 && order.loyaltyToken != address(0x0)) {\n            LoyaltyToken(order.loyaltyToken).transferFromCheckout(order.owner, msg.sender, order.loyaltyReward);\n        }\n\n        // Increment the order index.\n        orderIndex++;\n\n        NewOrder(\n            orderIndex,     // Order ID\n            nonceHash,\n            msg.sender,     // Buyer\n            merchant,\n            order.DIN,\n            order.quantity,\n            order.totalPrice,\n            block.timestamp\n        );\n\n        return orderIndex;\n    }\n\n    /**\n      * @dev Verifies that an order is valid.\n      * @return valid Validity of the order.\n      */\n    function isValidOrder(\n        uint256 DIN,\n        uint256 quantity,\n        uint256 totalPrice,\n        uint256 priceValidUntil,\n        uint256 affiliateReward,\n        address affiliate,\n        uint256 loyaltyReward,\n        address loyaltyToken,\n        address merchant,\n        address owner,\n        uint8 v,\n        bytes32 r,\n        bytes32 s\n    ) \n        public \n        constant \n        returns (bool) \n    {\n        if (block.timestamp > priceValidUntil) {\n            LogError(\"Offer expired\");\n            msg.sender.transfer(msg.value);\n            return false;\n        }\n\n        if (merchant == address(0x0)) {\n            LogError(\"Invalid merchant\");\n            msg.sender.transfer(msg.value);\n            return false;\n        }\n\n        if (affiliateReward > 0 && affiliate == msg.sender) {\n            LogError(\"Invalid affiliate\");\n            msg.sender.transfer(msg.value);\n            return false;\n        }\n\n        if (loyaltyReward > 0 && loyaltyToken != address(0x0)) {\n            if (loyaltyFactory.whitelist(loyaltyToken) == false) {\n                LogError(\"Invalid loyalty token\");\n                msg.sender.transfer(msg.value);\n                return false;\n            }\n        }\n\n        if (msg.value > totalPrice) {\n            LogError(\"Invalid price\");\n            msg.sender.transfer(msg.value);\n            return false;\n        }\n\n        uint256 unitPrice = totalPrice / quantity;\n\n        // Calculate the hash of the parameters provided by the buyer.\n        bytes32 hash = keccak256(\n            DIN,\n            unitPrice,\n            priceValidUntil,\n            affiliateReward, \n            loyaltyReward,\n            loyaltyToken\n        );\n\n        // Verify that the DIN owner has signed the provided inputs.\n        if (isValidSignature(owner, hash, v, r, s) == false) {\n            LogError(\"Invalid signature\");\n            msg.sender.transfer(msg.value);\n            return false;\n        }\n\n        return true;\n    }\n\n    /**\n      * @dev Verifies that an order signature is valid.\n      * @param signer address of signer.\n      * @param hash Signed Keccak-256 hash.\n      * @param v ECDSA signature parameter v.\n      * @param r ECDSA signature parameters r.\n      * @param s ECDSA signature parameters s.\n      * @return valid Validity of the order signature.\n      */\n    function isValidSignature(\n        address signer,\n        bytes32 hash,\n        uint8 v,\n        bytes32 r,\n        bytes32 s\n    )\n        public\n        constant\n        returns (bool valid)\n    {\n        return signer == ecrecover(\n            keccak256(\"\\x19Ethereum Signed Message:\\n32\", hash),\n            v,\n            r,\n            s\n        );\n    }\n\n}",
  "sourcePath": "/Users/richardmcateer/Developer/Ethereum/kiosk/contracts/contracts/Checkout.sol",
  "compiler": {
    "name": "solc",
    "version": "0.4.18+commit.9cf6e910.Emscripten.clang"
  },
  "schemaVersion": "1.0.1",
  "updatedAt": "2017-11-26T05:13:28.201Z"
}