{
  "contractName": "Checkout",
  "abi": [
    {
      "constant": false,
      "inputs": [
        {
          "name": "orderValues",
          "type": "uint256[4]"
        },
        {
          "name": "merchant",
          "type": "address"
        },
        {
          "name": "nonceHash",
          "type": "bytes32"
        },
        {
          "name": "v",
          "type": "uint8"
        },
        {
          "name": "r",
          "type": "bytes32"
        },
        {
          "name": "s",
          "type": "bytes32"
        }
      ],
      "name": "buy",
      "outputs": [
        {
          "name": "",
          "type": "uint256"
        }
      ],
      "payable": true,
      "stateMutability": "payable",
      "type": "function"
    },
    {
      "constant": true,
      "inputs": [
        {
          "name": "orderValues",
          "type": "uint256[6]"
        },
        {
          "name": "orderAddresses",
          "type": "address[3]"
        },
        {
          "name": "nonceHash",
          "type": "bytes32"
        },
        {
          "name": "v",
          "type": "uint8"
        },
        {
          "name": "r",
          "type": "bytes32"
        },
        {
          "name": "s",
          "type": "bytes32"
        }
      ],
      "name": "orders",
      "outputs": [
        {
          "name": "",
          "type": "address"
        }
      ],
      "payable": false,
      "stateMutability": "view",
      "type": "function"
    },
    {
      "constant": true,
      "inputs": [],
      "name": "registry",
      "outputs": [
        {
          "name": "",
          "type": "address"
        }
      ],
      "payable": false,
      "stateMutability": "view",
      "type": "function"
    },
    {
      "constant": true,
      "inputs": [
        {
          "name": "signer",
          "type": "address"
        },
        {
          "name": "hash",
          "type": "bytes32"
        },
        {
          "name": "v",
          "type": "uint8"
        },
        {
          "name": "r",
          "type": "bytes32"
        },
        {
          "name": "s",
          "type": "bytes32"
        }
      ],
      "name": "isValidSignature",
      "outputs": [
        {
          "name": "valid",
          "type": "bool"
        }
      ],
      "payable": false,
      "stateMutability": "pure",
      "type": "function"
    },
    {
      "constant": true,
      "inputs": [
        {
          "name": "_registry",
          "type": "address"
        },
        {
          "name": "_orders",
          "type": "address"
        }
      ],
      "name": "rewards",
      "outputs": [
        {
          "name": "",
          "type": "address"
        }
      ],
      "payable": false,
      "stateMutability": "nonpayable",
      "type": "constructor"
    },
    {
      "inputs": [
        {
          "name": "error",
          "type": "string",
          "indexed": false
        },
        {
          "name": "_orders",
          "type": "address"
        },
        {
          "name": "_rewards",
          "type": "address"
        }
      ],
      "payable": false,
      "stateMutability": "nonpayable",
      "type": "event",
      "anonymous": false,
      "name": "LogError"
    },
    {
      "anonymous": false,
      "inputs": [
        {
          "indexed": false,
          "name": "error",
          "type": "string"
        }
      ],
      "name": "LogError",
      "type": "event"
    }
  ],
  "bytecode": "0x6060604052341561000f57600080fd5b604051604080610b2583398101604052808051906020019091908051906020019091905050816000806101000a81548173ffffffffffffffffffffffffffffffffffffffff021916908373ffffffffffffffffffffffffffffffffffffffff16021790555080600160006101000a81548173ffffffffffffffffffffffffffffffffffffffff021916908373ffffffffffffffffffffffffffffffffffffffff1602179055505050610a5f806100c66000396000f300606060405260043610610062576000357c0100000000000000000000000000000000000000000000000000000000900463ffffffff16806345a78369146100675780634fb764c9146101085780637b1039991461015d5780638163681e146101b2575b600080fd5b6100f26004808060800190600480602002604051908101604052809291908260046020028082843782019150505050509190803573ffffffffffffffffffffffffffffffffffffffff169060200190919080356000191690602001909190803560ff169060200190919080356000191690602001909190803560001916906020019091905050610236565b6040518082815260200191505060405180910390f35b341561011357600080fd5b61011b6105aa565b604051808273ffffffffffffffffffffffffffffffffffffffff1673ffffffffffffffffffffffffffffffffffffffff16815260200191505060405180910390f35b341561016857600080fd5b6101706105d0565b604051808273ffffffffffffffffffffffffffffffffffffffff1673ffffffffffffffffffffffffffffffffffffffff16815260200191505060405180910390f35b34156101bd57600080fd5b61021c600480803573ffffffffffffffffffffffffffffffffffffffff169060200190919080356000191690602001909190803560ff1690602001909190803560001916906020019091908035600019169060200190919050506105f5565b604051808215151515815260200191505060405180910390f35b60006102406109d0565b600060c0604051908101604052808a600060048110151561025d57fe5b602002015181526020018a600160048110151561027657fe5b602002015181526020018a600260048110151561028f57fe5b602002015181526020018a60036004811015156102a857fe5b602002015181526020018973ffffffffffffffffffffffffffffffffffffffff1681526020016000809054906101000a900473ffffffffffffffffffffffffffffffffffffffff1673ffffffffffffffffffffffffffffffffffffffff1663a123c33e8c600060048110151561031a57fe5b60200201516000604051602001526040518263ffffffff167c010000000000000000000000000000000000000000000000000000000002815260040180828152602001915050602060405180830381600087803b151561037957600080fd5b6102c65a03f1151561038a57600080fd5b5050506040518051905073ffffffffffffffffffffffffffffffffffffffff168152509150600015156103bf838888886106fc565b15151415610410573373ffffffffffffffffffffffffffffffffffffffff166108fc349081150290604051600060405180830381858888f19350505050151561040757600080fd5b6000925061059e565b8773ffffffffffffffffffffffffffffffffffffffff166108fc349081150290604051600060405180830381858888f19350505050151561045057600080fd5b600160009054906101000a900473ffffffffffffffffffffffffffffffffffffffff1673ffffffffffffffffffffffffffffffffffffffff16630216494088338b8660000151876020015188604001516000604051602001526040518763ffffffff167c01000000000000000000000000000000000000000000000000000000000281526004018087600019166000191681526020018673ffffffffffffffffffffffffffffffffffffffff1673ffffffffffffffffffffffffffffffffffffffff1681526020018573ffffffffffffffffffffffffffffffffffffffff1673ffffffffffffffffffffffffffffffffffffffff1681526020018481526020018381526020018281526020019650505050505050602060405180830381600087803b151561057d57600080fd5b6102c65a03f1151561058e57600080fd5b5050506040518051905090508092505b50509695505050505050565b600160009054906101000a900473ffffffffffffffffffffffffffffffffffffffff1681565b6000809054906101000a900473ffffffffffffffffffffffffffffffffffffffff1681565b600060018560405180807f19457468657265756d205369676e6564204d6573736167653a0a333200000000815250601c0182600019166000191681526020019150506040518091039020858585604051600081526020016040526000604051602001526040518085600019166000191681526020018460ff1660ff16815260200183600019166000191681526020018260001916600019168152602001945050505050602060405160208103908084039060008661646e5a03f115156106ba57600080fd5b50506020604051035173ffffffffffffffffffffffffffffffffffffffff168673ffffffffffffffffffffffffffffffffffffffff1614905095945050505050565b6000806000866060015142111561077e577fc35a0ec6603ff0b5966d7ca053a5f0984a70aad58a9a0ecb1349308815a4151a60405180806020018281038252600d8152602001807f4f6666657220657870697265640000000000000000000000000000000000000081525060200191505060405180910390a1600092506109c6565b600073ffffffffffffffffffffffffffffffffffffffff16876080015173ffffffffffffffffffffffffffffffffffffffff161415610828577fc35a0ec6603ff0b5966d7ca053a5f0984a70aad58a9a0ecb1349308815a4151a6040518080602001828103825260108152602001807f496e76616c6964206d65726368616e740000000000000000000000000000000081525060200191505060405180910390a1600092506109c6565b8660400151341415156108a6577fc35a0ec6603ff0b5966d7ca053a5f0984a70aad58a9a0ecb1349308815a4151a60405180806020018281038252600d8152602001807f496e76616c69642070726963650000000000000000000000000000000000000081525060200191505060405180910390a1600092506109c6565b866020015187604001518115156108b957fe5b04915086600001518288606001518960800151604051808581526020018481526020018381526020018273ffffffffffffffffffffffffffffffffffffffff1673ffffffffffffffffffffffffffffffffffffffff166c0100000000000000000000000002815260140194505050505060405180910390209050600015156109488860a00151838989896105f5565b151514156109c1577fc35a0ec6603ff0b5966d7ca053a5f0984a70aad58a9a0ecb1349308815a4151a6040518080602001828103825260118152602001807f496e76616c6964207369676e617475726500000000000000000000000000000081525060200191505060405180910390a1600092506109c6565b600192505b5050949350505050565b60c06040519081016040528060008152602001600081526020016000815260200160008152602001600073ffffffffffffffffffffffffffffffffffffffff168152602001600073ffffffffffffffffffffffffffffffffffffffff16815250905600a165627a7a723058203d1737d1705076a81ff950a5f727536bb1b42c2af262d49822feac51ae44c72a0029",
  "source": "pragma solidity ^0.4.17;\n\nimport \"../core/DINRegistry.sol\";\nimport \"../core/Orders.sol\";\n\n/** @title Checkout with Ether. */\ncontract Checkout {\n    DINRegistry public registry;\n    Orders public orders;\n\n\n    // Prevent Solidity \"stack too deep\" error.\n    struct Order {\n        uint256 DIN;\n        uint256 quantity;\n        uint256 totalPrice;\n        uint256 priceValidUntil;\n        address merchant;\n        address owner;\n    }\n\n    // Log Solidity errors\n    event LogError(string error);\n\n    /** @dev Constructor.\n      * @param _registry The DIN Registry contract address.\n      * @param _orders The Orders contract address.\n      */\n    function Checkout(DINRegistry _registry, Orders _orders) public {\n        registry = _registry;\n        orders = _orders;\n    }\n\n    /** @dev Buy a product.\n      * param orderValues:\n        [0] DIN The Decentralized Identification Number (DIN) of the product to buy.\n        [1] quantity The quantity to buy.\n        [2] totalPrice Total price of the purchase, in wei.\n        [3] priceValidUntil Expiration time (Unix timestamp).\n      * @param merchant The merchant address.\n      * @param nonceHash The hash of a nonce generated by a client. The nonce can be used as a proof of purchase.\n      * @param v ECDSA signature parameter v.\n      * @param r ECDSA signature parameter r.\n      * @param s ECDSA signature parameter s.\n      * @return orderID A unique ID for the order.\n      */\n    function buy(\n        uint256[4] orderValues,\n        address merchant,\n        bytes32 nonceHash,\n        uint8 v,\n        bytes32 r,\n        bytes32 s\n    )\n        payable\n        public\n        returns (uint256)\n    {       \n         Order memory order = Order({\n            DIN: orderValues[0],\n            quantity: orderValues[1],\n            totalPrice: orderValues[2],\n            priceValidUntil: orderValues[3],\n            merchant: merchant,\n            owner: registry.owner(orderValues[0]) // Get the DIN owner address from the DIN registry.\n        });\n\n        if (isValidOrder(order, v, r, s) == false) {\n            // Return Ether to buyer.\n            msg.sender.transfer(msg.value);\n            return 0;\n        }\n\n        // Transfer Ether to the merchant.\n        merchant.transfer(msg.value);\n\n        // Create a new order\n        uint256 orderID = orders.createOrder(\n            nonceHash,\n            msg.sender, // Buyer\n            merchant,\n            order.DIN,\n            order.quantity,\n            order.totalPrice\n        );\n\n        // Return the unique order ID.\n        return orderID;\n    }\n\n    /**\n      * @dev Verify that an order is valid.\n      * @return valid Validity of the order.\n      */\n    function isValidOrder(\n        Order order,\n        uint8 v,\n        bytes32 r,\n        bytes32 s\n    ) \n        internal \n        returns (bool) \n    {\n        if (block.timestamp > order.priceValidUntil) {\n            LogError(\"Offer expired\");\n            return false;\n        }\n\n        if (order.merchant == address(0x0)) {\n            LogError(\"Invalid merchant\");\n            return false;\n        }\n\n        if (msg.value != order.totalPrice) {\n            LogError(\"Invalid price\");\n            return false;\n        }\n\n        uint256 unitPrice = order.totalPrice / order.quantity;\n\n        // Calculate the hash of the parameters provided by the buyer.\n        bytes32 hash = keccak256(order.DIN, unitPrice, order.priceValidUntil, order.merchant);\n\n        // Verify that the DIN owner has signed the provided inputs.\n        if (isValidSignature(order.owner, hash, v, r, s) == false) {\n            LogError(\"Invalid signature\");\n            return false;\n        }\n\n        return true;\n    }\n\n    /**\n      * @dev Verify that an order signature is valid.\n      * @param signer address of signer.\n      * @param hash Signed Keccak-256 hash.\n      * @param v ECDSA signature parameter v.\n      * @param r ECDSA signature parameters r.\n      * @param s ECDSA signature parameters s.\n      * @return valid Validity of the order signature.\n      */\n    function isValidSignature(\n        address signer,\n        bytes32 hash,\n        uint8 v,\n        bytes32 r,\n        bytes32 s\n    )\n        public\n        pure\n        returns (bool valid)\n    {\n        return signer == ecrecover(\n            keccak256(\"\\x19Ethereum Signed Message:\\n32\", hash),\n            v,\n            r,\n            s\n        );\n    }\n\n}",
  "sourcePath": "/Users/richardmcateer/Developer/Ethereum/kiosk/contracts/contracts/checkout/Checkout.sol",
  "compiler": {
    "name": "solc",
    "version": "0.4.18+commit.9cf6e910.Emscripten.clang"
  },
  "schemaVersion": "1.0.1",
  "updatedAt": "2017-12-20T01:02:08.967Z"
}