{
  "contractName": "Checkout",
  "abi": [
    {
      "constant": true,
      "inputs": [],
      "name": "orders",
      "outputs": [
        {
          "name": "",
          "type": "address"
        }
      ],
      "payable": false,
      "stateMutability": "view",
      "type": "function"
    },
    {
      "constant": false,
      "inputs": [
        {
          "name": "orderValues",
          "type": "uint256[6]"
        },
        {
          "name": "orderAddresses",
          "type": "address[3]"
        },
        {
          "name": "nonceHash",
          "type": "bytes32"
        },
        {
          "name": "v",
          "type": "uint8"
        },
        {
          "name": "r",
          "type": "bytes32"
        },
        {
          "name": "s",
          "type": "bytes32"
        }
      ],
      "name": "buy",
      "outputs": [
        {
          "name": "",
          "type": "uint256"
        }
      ],
      "payable": true,
      "stateMutability": "payable",
      "type": "function"
    },
    {
      "constant": true,
      "inputs": [],
      "name": "registry",
      "outputs": [
        {
          "name": "",
          "type": "address"
        }
      ],
      "payable": false,
      "stateMutability": "view",
      "type": "function"
    },
    {
      "constant": true,
      "inputs": [
        {
          "name": "signer",
          "type": "address"
        },
        {
          "name": "hash",
          "type": "bytes32"
        },
        {
          "name": "v",
          "type": "uint8"
        },
        {
          "name": "r",
          "type": "bytes32"
        },
        {
          "name": "s",
          "type": "bytes32"
        }
      ],
      "name": "isValidSignature",
      "outputs": [
        {
          "name": "valid",
          "type": "bool"
        }
      ],
      "payable": false,
      "stateMutability": "view",
      "type": "function"
    },
    {
      "constant": true,
      "inputs": [],
      "name": "rewards",
      "outputs": [
        {
          "name": "",
          "type": "address"
        }
      ],
      "payable": false,
      "stateMutability": "view",
      "type": "function"
    },
    {
      "inputs": [
        {
          "name": "_registry",
          "type": "address"
        },
        {
          "name": "_orders",
          "type": "address"
        },
        {
          "name": "_rewards",
          "type": "address"
        }
      ],
      "payable": false,
      "stateMutability": "nonpayable",
      "type": "constructor"
    },
    {
      "anonymous": false,
      "inputs": [
        {
          "indexed": false,
          "name": "error",
          "type": "string"
        }
      ],
      "name": "LogError",
      "type": "event"
    },
    {
      "anonymous": false,
      "inputs": [
        {
          "indexed": true,
          "name": "orderID",
          "type": "uint256"
        }
      ],
      "name": "NewOrder",
      "type": "event"
    }
  ],
  "bytecode": "0x6060604052341561000f57600080fd5b60405160608061128d83398101604052808051906020019091908051906020019091908051906020019091905050826000806101000a81548173ffffffffffffffffffffffffffffffffffffffff021916908373ffffffffffffffffffffffffffffffffffffffff16021790555081600160006101000a81548173ffffffffffffffffffffffffffffffffffffffff021916908373ffffffffffffffffffffffffffffffffffffffff16021790555080600260006101000a81548173ffffffffffffffffffffffffffffffffffffffff021916908373ffffffffffffffffffffffffffffffffffffffff16021790555050505061117c806101116000396000f30060606040526004361061006d576000357c0100000000000000000000000000000000000000000000000000000000900463ffffffff1680634fb764c9146100725780636a8b05ed146100c75780637b103999146101755780638163681e146101ca5780639ec5a8941461024e575b600080fd5b341561007d57600080fd5b6100856102a3565b604051808273ffffffffffffffffffffffffffffffffffffffff1673ffffffffffffffffffffffffffffffffffffffff16815260200191505060405180910390f35b61015f6004808060c00190600680602002604051908101604052809291908260066020028082843782019150505050509190806060019060038060200260405190810160405280929190826003602002808284378201915050505050919080356000191690602001909190803560ff1690602001909190803560001916906020019091908035600019169060200190919050506102c9565b6040518082815260200191505060405180910390f35b341561018057600080fd5b6101886109c7565b604051808273ffffffffffffffffffffffffffffffffffffffff1673ffffffffffffffffffffffffffffffffffffffff16815260200191505060405180910390f35b34156101d557600080fd5b610234600480803573ffffffffffffffffffffffffffffffffffffffff169060200190919080356000191690602001909190803560ff1690602001909190803560001916906020019091908035600019169060200190919050506109ec565b604051808215151515815260200191505060405180910390f35b341561025957600080fd5b610261610af3565b604051808273ffffffffffffffffffffffffffffffffffffffff1673ffffffffffffffffffffffffffffffffffffffff16815260200191505060405180910390f35b600160009054906101000a900473ffffffffffffffffffffffffffffffffffffffff1681565b6000806102d46110a4565b60008860006003811015156102e557fe5b60200201519250610140604051908101604052808b600060068110151561030857fe5b602002015181526020018b600160068110151561032157fe5b602002015181526020018b600260068110151561033a57fe5b602002015181526020018b600360068110151561035357fe5b602002015181526020018b600460068110151561036c57fe5b602002015181526020018a600160038110151561038557fe5b602002015173ffffffffffffffffffffffffffffffffffffffff1681526020018b60056006811015156103b457fe5b602002015181526020018a60026003811015156103cd57fe5b602002015173ffffffffffffffffffffffffffffffffffffffff1681526020018473ffffffffffffffffffffffffffffffffffffffff1681526020016000809054906101000a900473ffffffffffffffffffffffffffffffffffffffff1673ffffffffffffffffffffffffffffffffffffffff1663a123c33e8d600060068110151561045557fe5b60200201516000604051602001526040518263ffffffff167c010000000000000000000000000000000000000000000000000000000002815260040180828152602001915050602060405180830381600087803b15156104b457600080fd5b6102c65a03f115156104c557600080fd5b5050506040518051905073ffffffffffffffffffffffffffffffffffffffff168152509150600015156104fa83898989610b19565b1515141561054b573373ffffffffffffffffffffffffffffffffffffffff166108fc349081150290604051600060405180830381858888f19350505050151561054257600080fd5b600093506109ba565b61055e8383604001518460e00151610f07565b60008260800151111561069657600260009054906101000a900473ffffffffffffffffffffffffffffffffffffffff1673ffffffffffffffffffffffffffffffffffffffff1663f97ac79e8361012001518460a0015185608001516000604051602001526040518463ffffffff167c0100000000000000000000000000000000000000000000000000000000028152600401808473ffffffffffffffffffffffffffffffffffffffff1673ffffffffffffffffffffffffffffffffffffffff1681526020018373ffffffffffffffffffffffffffffffffffffffff1673ffffffffffffffffffffffffffffffffffffffff1681526020018281526020019350505050602060405180830381600087803b151561067957600080fd5b6102c65a03f1151561068a57600080fd5b50505060405180519050505b60008260c001511180156106db5750600073ffffffffffffffffffffffffffffffffffffffff168260e0015173ffffffffffffffffffffffffffffffffffffffff1614155b1561083f57600260009054906101000a900473ffffffffffffffffffffffffffffffffffffffff1673ffffffffffffffffffffffffffffffffffffffff1663bc06b3108360e00151846101200151338660c001516000604051602001526040518563ffffffff167c0100000000000000000000000000000000000000000000000000000000028152600401808573ffffffffffffffffffffffffffffffffffffffff1673ffffffffffffffffffffffffffffffffffffffff1681526020018473ffffffffffffffffffffffffffffffffffffffff1673ffffffffffffffffffffffffffffffffffffffff1681526020018373ffffffffffffffffffffffffffffffffffffffff1673ffffffffffffffffffffffffffffffffffffffff168152602001828152602001945050505050602060405180830381600087803b151561082257600080fd5b6102c65a03f1151561083357600080fd5b50505060405180519050505b600160009054906101000a900473ffffffffffffffffffffffffffffffffffffffff1673ffffffffffffffffffffffffffffffffffffffff1663021649408933868660000151876020015188604001516000604051602001526040518763ffffffff167c01000000000000000000000000000000000000000000000000000000000281526004018087600019166000191681526020018673ffffffffffffffffffffffffffffffffffffffff1673ffffffffffffffffffffffffffffffffffffffff1681526020018573ffffffffffffffffffffffffffffffffffffffff1673ffffffffffffffffffffffffffffffffffffffff1681526020018481526020018381526020018281526020019650505050505050602060405180830381600087803b151561096c57600080fd5b6102c65a03f1151561097d57600080fd5b505050604051805190509050807fd56de72b04be4cf70c2bab5e6905fb51e28beb22f7a5d40a6dc4103149d6110660405160405180910390a28093505b5050509695505050505050565b6000809054906101000a900473ffffffffffffffffffffffffffffffffffffffff1681565b600060018560405180807f19457468657265756d205369676e6564204d6573736167653a0a333200000000815250601c0182600019166000191681526020019150506040518091039020858585604051600081526020016040526000604051602001526040518085600019166000191681526020018460ff1660ff16815260200183600019166000191681526020018260001916600019168152602001945050505050602060405160208103908084039060008661646e5a03f11515610ab157600080fd5b50506020604051035173ffffffffffffffffffffffffffffffffffffffff168673ffffffffffffffffffffffffffffffffffffffff1614905095945050505050565b600260009054906101000a900473ffffffffffffffffffffffffffffffffffffffff1681565b60008060008660600151421115610b9b577fc35a0ec6603ff0b5966d7ca053a5f0984a70aad58a9a0ecb1349308815a4151a60405180806020018281038252600d8152602001807f4f6666657220657870697265640000000000000000000000000000000000000081525060200191505060405180910390a160009250610efd565b600073ffffffffffffffffffffffffffffffffffffffff1687610100015173ffffffffffffffffffffffffffffffffffffffff161415610c46577fc35a0ec6603ff0b5966d7ca053a5f0984a70aad58a9a0ecb1349308815a4151a6040518080602001828103825260108152602001807f496e76616c6964206d65726368616e740000000000000000000000000000000081525060200191505060405180910390a160009250610efd565b60008760800151118015610c8957503373ffffffffffffffffffffffffffffffffffffffff168760a0015173ffffffffffffffffffffffffffffffffffffffff16145b15610cff577fc35a0ec6603ff0b5966d7ca053a5f0984a70aad58a9a0ecb1349308815a4151a6040518080602001828103825260118152602001807f496e76616c696420616666696c6961746500000000000000000000000000000081525060200191505060405180910390a160009250610efd565b8660400151341115610d7c577fc35a0ec6603ff0b5966d7ca053a5f0984a70aad58a9a0ecb1349308815a4151a60405180806020018281038252600d8152602001807f496e76616c69642070726963650000000000000000000000000000000000000081525060200191505060405180910390a160009250610efd565b86602001518760400151811515610d8f57fe5b04915086600001518288606001518961010001518a608001518b60c001518c60e00151604051808881526020018781526020018681526020018573ffffffffffffffffffffffffffffffffffffffff1673ffffffffffffffffffffffffffffffffffffffff166c010000000000000000000000000281526014018481526020018381526020018273ffffffffffffffffffffffffffffffffffffffff1673ffffffffffffffffffffffffffffffffffffffff166c010000000000000000000000000281526014019750505050505050506040518091039020905060001515610e7f886101200151838989896109ec565b15151415610ef8577fc35a0ec6603ff0b5966d7ca053a5f0984a70aad58a9a0ecb1349308815a4151a6040518080602001828103825260118152602001807f496e76616c6964207369676e617475726500000000000000000000000000000081525060200191505060405180910390a160009250610efd565b600192505b5050949350505050565b60008373ffffffffffffffffffffffffffffffffffffffff166108fc349081150290604051600060405180830381858888f193505050501515610f4957600080fd5b610f5c348461108b90919063ffffffff16565b9050600081111561108557600260009054906101000a900473ffffffffffffffffffffffffffffffffffffffff1673ffffffffffffffffffffffffffffffffffffffff1663c5ff3b698333846000604051602001526040518463ffffffff167c0100000000000000000000000000000000000000000000000000000000028152600401808473ffffffffffffffffffffffffffffffffffffffff1673ffffffffffffffffffffffffffffffffffffffff1681526020018373ffffffffffffffffffffffffffffffffffffffff1673ffffffffffffffffffffffffffffffffffffffff1681526020018281526020019350505050602060405180830381600087803b151561106857600080fd5b6102c65a03f1151561107957600080fd5b50505060405180519050505b50505050565b600082821115151561109957fe5b818303905092915050565b610140604051908101604052806000815260200160008152602001600081526020016000815260200160008152602001600073ffffffffffffffffffffffffffffffffffffffff16815260200160008152602001600073ffffffffffffffffffffffffffffffffffffffff168152602001600073ffffffffffffffffffffffffffffffffffffffff168152602001600073ffffffffffffffffffffffffffffffffffffffff16815250905600a165627a7a72305820212093b5975446fa254f73a40d461cb1dbb3e466779e359c4bd7eee3049d7b380029",
  "source": "pragma solidity ^0.4.11;\n\nimport \"./DINRegistry.sol\";\nimport \"./Orders.sol\";\nimport \"./Rewards.sol\";\nimport \"zeppelin-solidity/contracts/math/SafeMath.sol\";\n\ncontract Checkout {\n    using SafeMath for uint256;\n\n    DINRegistry public registry;\n    Orders public orders;\n    Rewards public rewards;\n\n    // Prevent Solidity \"stack too deep\" error.\n    struct Order {\n        uint256 DIN;\n        uint256 quantity;\n        uint256 totalPrice;\n        uint256 priceValidUntil;\n        uint256 affiliateReward;\n        address affiliate;\n        uint256 loyaltyReward;\n        address loyaltyToken;\n        address merchant;\n        address owner;\n    }\n\n    // Log Solidity errors\n    event LogError(string error);\n\n    // Log new orders\n    event NewOrder(uint256 indexed orderID);\n\n    /** @dev Constructor.\n      * @param _registry The DIN Registry contract address.\n      * @param _orders The Orders contract address.\n      * @param _rewards The Rewards contract address.\n      */\n    function Checkout(\n        DINRegistry _registry,\n        Orders _orders,\n        Rewards _rewards\n    ) public {\n        registry = _registry;\n        orders = _orders;\n        rewards = _rewards;\n    }\n\n    /** @dev Buy a product.\n      * param orderValues:\n        [0] DIN The Decentralized Identification Number (DIN) of the product to buy.\n        [1] quantity The quantity to buy.\n        [2] totalPrice Total price of the purchase, in wei.\n        [3] priceValidUntil Expiration time (Unix timestamp).\n        [4] affiliateReward Affiliate reward (optional), denominated in base units of Market Token (MARK).\n        [5] loyaltyReward Loyalty reward (optional), denominated in loyaltyToken.\n      * param orderAddresses:\n        [0] merchant Address of the merchant to pay.\n        [1] affiliate Address of the affiliate. Use null address (0x0...) for no affiliate.\n        [2] loyaltyToken Address of the Loyalty Token. Use null address for no loyalty reward.\n      * @param nonceHash The hash of a nonce generated by a client. The nonce can be used as a proof of purchase.\n      * @param v ECDSA signature parameter v.\n      * @param r ECDSA signature parameter r.\n      * @param s ECDSA signature parameter s.\n      * @return orderID A unique ID for the order.\n      */\n    function buy(\n        uint256[6] orderValues,\n        address[3] orderAddresses,\n        bytes32 nonceHash,\n        uint8 v,\n        bytes32 r,\n        bytes32 s\n    )\n        payable\n        public\n        returns (uint256)\n    {\n        address merchant = orderAddresses[0];\n\n        Order memory order = Order({\n            DIN: orderValues[0],\n            quantity: orderValues[1],\n            totalPrice: orderValues[2],\n            priceValidUntil: orderValues[3],\n            affiliateReward: orderValues[4],\n            affiliate: orderAddresses[1],\n            loyaltyReward: orderValues[5],\n            loyaltyToken: orderAddresses[2],\n            merchant: merchant,\n            owner: registry.owner(orderValues[0]) // Get the DIN owner address from the DIN registry.\n        });\n\n        if (isValidOrder(order, v, r, s) == false) {\n            // Return Ether to buyer.\n            msg.sender.transfer(msg.value);\n            return 0;\n        }\n\n        // Transfer a mix of Ether and loyalty tokens (if applicable) from buyer to merchant.\n        payMerchant(merchant, order.totalPrice, order.loyaltyToken);\n\n        // Transfer affiliate reward from DIN owner to affiliate.\n        if (order.affiliateReward > 0) {\n            rewards.sendAffiliateReward(order.owner, order.affiliate, order.affiliateReward);\n        }\n\n        // Transfer loyalty reward from DIN owner to buyer.\n        if (order.loyaltyReward > 0 && order.loyaltyToken != address(0x0)) {\n            rewards.sendLoyaltyReward(order.loyaltyToken, order.owner, msg.sender, order.loyaltyReward);\n        }\n\n        // Create a new order\n        uint256 orderID = orders.createOrder(\n            nonceHash,\n            msg.sender, // Buyer\n            merchant,\n            order.DIN,\n            order.quantity,\n            order.totalPrice\n        );\n\n        // Log and return the unique order ID.\n        NewOrder(orderID);\n        return orderID;\n    }\n\n    /**\n      * @dev Transfer a mix of Ether and loyalty token from buyer to merchant.\n      * @param merchant The merchant address.\n      * @param totalPrice The total price of the purchase, in wei.\n      * @param loyaltyToken The address of the loyalty token specified by the DIN owner.\n      */\n    function payMerchant(address merchant, uint256 totalPrice, address loyaltyToken) private {\n        // Transfer Ether from buyer to merchant.\n        merchant.transfer(msg.value);\n\n        // Calculate the remaining balance.\n        uint256 remainingValue = totalPrice.sub(msg.value);\n\n        // Transfer loyalty tokens from buyer to merchant if the total price was not paid in Ether.\n        if (remainingValue > 0) {\n            rewards.redeemLoyaltyTokens(loyaltyToken, msg.sender, remainingValue);\n        }\n    }\n\n    /**\n      * @dev Verify that an order is valid.\n      * @return valid Validity of the order.\n      */\n    function isValidOrder(Order order, uint8 v, bytes32 r, bytes32 s) internal constant returns (bool) {\n        if (block.timestamp > order.priceValidUntil) {\n            LogError(\"Offer expired\");\n            return false;\n        }\n\n        if (order.merchant == address(0x0)) {\n            LogError(\"Invalid merchant\");\n            return false;\n        }\n\n        if (order.affiliateReward > 0 && order.affiliate == msg.sender) {\n            LogError(\"Invalid affiliate\");\n            return false;\n        }\n\n        if (msg.value > order.totalPrice) {\n            LogError(\"Invalid price\");\n            return false;\n        }\n\n        uint256 unitPrice = order.totalPrice / order.quantity;\n\n        // Calculate the hash of the parameters provided by the buyer.\n        bytes32 hash = keccak256(\n            order.DIN,\n            unitPrice,\n            order.priceValidUntil,\n            order.merchant,\n            order.affiliateReward,\n            order.loyaltyReward,\n            order.loyaltyToken\n        );\n\n        // Verify that the DIN owner has signed the provided inputs.\n        if (isValidSignature(order.owner, hash, v, r, s) == false) {\n            LogError(\"Invalid signature\");\n            return false;\n        }\n\n        return true;\n    }\n\n    /**\n      * @dev Verify that an order signature is valid.\n      * @param signer address of signer.\n      * @param hash Signed Keccak-256 hash.\n      * @param v ECDSA signature parameter v.\n      * @param r ECDSA signature parameters r.\n      * @param s ECDSA signature parameters s.\n      * @return valid Validity of the order signature.\n      */\n    function isValidSignature(\n        address signer,\n        bytes32 hash,\n        uint8 v,\n        bytes32 r,\n        bytes32 s\n    )\n        public\n        constant\n        returns (bool valid)\n    {\n        return signer == ecrecover(\n            keccak256(\"\\x19Ethereum Signed Message:\\n32\", hash),\n            v,\n            r,\n            s\n        );\n    }\n\n}",
  "sourcePath": "/Users/richardmcateer/Developer/Ethereum/kiosk/single-product-page/src/kiosk.js/contracts/contracts/Checkout.sol",
  "compiler": {
    "name": "solc",
    "version": "0.4.18+commit.9cf6e910.Emscripten.clang"
  },
  "schemaVersion": "1.0.1",
  "updatedAt": "2017-11-30T23:27:40.790Z"
}