{
  "contractName": "Checkout",
  "abi": [
    {
      "constant": true,
      "inputs": [],
      "name": "orderIndex",
      "outputs": [
        {
          "name": "",
          "type": "uint256"
        }
      ],
      "payable": false,
      "stateMutability": "view",
      "type": "function"
    },
    {
      "constant": false,
      "inputs": [
        {
          "name": "orderValues",
          "type": "uint256[6]"
        },
        {
          "name": "orderAddresses",
          "type": "address[2]"
        },
        {
          "name": "nonceHash",
          "type": "bytes32"
        },
        {
          "name": "v",
          "type": "uint8"
        },
        {
          "name": "r",
          "type": "bytes32"
        },
        {
          "name": "s",
          "type": "bytes32"
        }
      ],
      "name": "buy",
      "outputs": [
        {
          "name": "orderID",
          "type": "uint256"
        }
      ],
      "payable": true,
      "stateMutability": "payable",
      "type": "function"
    },
    {
      "constant": true,
      "inputs": [],
      "name": "registry",
      "outputs": [
        {
          "name": "",
          "type": "address"
        }
      ],
      "payable": false,
      "stateMutability": "view",
      "type": "function"
    },
    {
      "constant": true,
      "inputs": [
        {
          "name": "signer",
          "type": "address"
        },
        {
          "name": "hash",
          "type": "bytes32"
        },
        {
          "name": "v",
          "type": "uint8"
        },
        {
          "name": "r",
          "type": "bytes32"
        },
        {
          "name": "s",
          "type": "bytes32"
        }
      ],
      "name": "isValidSignature",
      "outputs": [
        {
          "name": "valid",
          "type": "bool"
        }
      ],
      "payable": false,
      "stateMutability": "view",
      "type": "function"
    },
    {
      "constant": true,
      "inputs": [],
      "name": "marketToken",
      "outputs": [
        {
          "name": "",
          "type": "address"
        }
      ],
      "payable": false,
      "stateMutability": "view",
      "type": "function"
    },
    {
      "inputs": [
        {
          "name": "_token",
          "type": "address"
        },
        {
          "name": "_registry",
          "type": "address"
        }
      ],
      "payable": false,
      "stateMutability": "nonpayable",
      "type": "constructor"
    },
    {
      "anonymous": false,
      "inputs": [
        {
          "indexed": false,
          "name": "error",
          "type": "string"
        }
      ],
      "name": "LogError",
      "type": "event"
    },
    {
      "anonymous": false,
      "inputs": [
        {
          "indexed": true,
          "name": "orderID",
          "type": "uint256"
        },
        {
          "indexed": false,
          "name": "nonceHash",
          "type": "bytes32"
        },
        {
          "indexed": true,
          "name": "buyer",
          "type": "address"
        },
        {
          "indexed": true,
          "name": "merchant",
          "type": "address"
        },
        {
          "indexed": false,
          "name": "DIN",
          "type": "uint256"
        },
        {
          "indexed": false,
          "name": "quantity",
          "type": "uint256"
        },
        {
          "indexed": false,
          "name": "totalPrice",
          "type": "uint256"
        },
        {
          "indexed": false,
          "name": "timestamp",
          "type": "uint256"
        }
      ],
      "name": "NewOrder",
      "type": "event"
    }
  ],
  "bytecode": "0x60606040526000600255341561001457600080fd5b60405160408061103183398101604052808051906020019091908051906020019091905050816000806101000a81548173ffffffffffffffffffffffffffffffffffffffff021916908373ffffffffffffffffffffffffffffffffffffffff16021790555080600160006101000a81548173ffffffffffffffffffffffffffffffffffffffff021916908373ffffffffffffffffffffffffffffffffffffffff1602179055505050610f66806100cb6000396000f30060606040526004361061006d576000357c0100000000000000000000000000000000000000000000000000000000900463ffffffff16806330471fee146100725780635d5d19c91461009b5780637b103999146101495780638163681e1461019e578063ad48d61114610222575b600080fd5b341561007d57600080fd5b610085610277565b6040518082815260200191505060405180910390f35b6101336004808060c00190600680602002604051908101604052809291908260066020028082843782019150505050509190806040019060028060200260405190810160405280929190826002602002808284378201915050505050919080356000191690602001909190803560ff16906020019091908035600019169060200190919080356000191690602001909190505061027d565b6040518082815260200191505060405180910390f35b341561015457600080fd5b61015c610d76565b604051808273ffffffffffffffffffffffffffffffffffffffff1673ffffffffffffffffffffffffffffffffffffffff16815260200191505060405180910390f35b34156101a957600080fd5b610208600480803573ffffffffffffffffffffffffffffffffffffffff169060200190919080356000191690602001909190803560ff169060200190919080356000191690602001909190803560001916906020019091905050610d9c565b604051808215151515815260200191505060405180910390f35b341561022d57600080fd5b610235610ea3565b604051808273ffffffffffffffffffffffffffffffffffffffff1673ffffffffffffffffffffffffffffffffffffffff16815260200191505060405180910390f35b60025481565b6000610287610ec8565b600080600080600080610100604051908101604052808f60006006811015156102ac57fe5b602002015181526020018f60016006811015156102c557fe5b602002015181526020018f60026006811015156102de57fe5b602002015181526020018f60036006811015156102f757fe5b602002015181526020018f600460068110151561031057fe5b602002015181526020018e600060028110151561032957fe5b602002015173ffffffffffffffffffffffffffffffffffffffff1681526020018f600560068110151561035857fe5b602002015181526020018e600160028110151561037157fe5b602002015173ffffffffffffffffffffffffffffffffffffffff168152509650866060015142111561044e577fc35a0ec6603ff0b5966d7ca053a5f0984a70aad58a9a0ecb1349308815a4151a60405180806020018281038252600d8152602001807f4f6666657220657870697265640000000000000000000000000000000000000081525060200191505060405180910390a13373ffffffffffffffffffffffffffffffffffffffff166108fc349081150290604051600060405180830381858888f19350505050151561044557600080fd5b60009750610d65565b8660200151876040015181151561046157fe5b049550866000015186886060015189608001518a60c001518b60e00151604051808781526020018681526020018581526020018481526020018381526020018273ffffffffffffffffffffffffffffffffffffffff1673ffffffffffffffffffffffffffffffffffffffff166c01000000000000000000000000028152601401965050505050505060405180910390209450600160009054906101000a900473ffffffffffffffffffffffffffffffffffffffff1673ffffffffffffffffffffffffffffffffffffffff1663108eaa4e88600001516000604051602001526040518263ffffffff167c010000000000000000000000000000000000000000000000000000000002815260040180828152602001915050602060405180830381600087803b151561059057600080fd5b6102c65a03f115156105a157600080fd5b505050604051805190509350600073ffffffffffffffffffffffffffffffffffffffff168473ffffffffffffffffffffffffffffffffffffffff161415610693577fc35a0ec6603ff0b5966d7ca053a5f0984a70aad58a9a0ecb1349308815a4151a6040518080602001828103825260108152602001807f496e76616c6964207265736f6c7665720000000000000000000000000000000081525060200191505060405180910390a13373ffffffffffffffffffffffffffffffffffffffff166108fc349081150290604051600060405180830381858888f19350505050151561068a57600080fd5b60009750610d65565b8373ffffffffffffffffffffffffffffffffffffffff1663020cdd3688600001516000604051602001526040518263ffffffff167c010000000000000000000000000000000000000000000000000000000002815260040180828152602001915050602060405180830381600087803b151561070e57600080fd5b6102c65a03f1151561071f57600080fd5b505050604051805190509250600073ffffffffffffffffffffffffffffffffffffffff168373ffffffffffffffffffffffffffffffffffffffff161415610811577fc35a0ec6603ff0b5966d7ca053a5f0984a70aad58a9a0ecb1349308815a4151a6040518080602001828103825260108152602001807f496e76616c6964206d65726368616e740000000000000000000000000000000081525060200191505060405180910390a13373ffffffffffffffffffffffffffffffffffffffff166108fc349081150290604051600060405180830381858888f19350505050151561080857600080fd5b60009750610d65565b600160009054906101000a900473ffffffffffffffffffffffffffffffffffffffff1673ffffffffffffffffffffffffffffffffffffffff1663a123c33e88600001516000604051602001526040518263ffffffff167c010000000000000000000000000000000000000000000000000000000002815260040180828152602001915050602060405180830381600087803b15156108ae57600080fd5b6102c65a03f115156108bf57600080fd5b5050506040518051905091506108d882868d8d8d610d9c565b9050600015158115151415610998577fc35a0ec6603ff0b5966d7ca053a5f0984a70aad58a9a0ecb1349308815a4151a6040518080602001828103825260118152602001807f496e76616c6964207369676e617475726500000000000000000000000000000081525060200191505060405180910390a13373ffffffffffffffffffffffffffffffffffffffff166108fc349081150290604051600060405180830381858888f19350505050151561098f57600080fd5b60009750610d65565b866040015134141515610a56577fc35a0ec6603ff0b5966d7ca053a5f0984a70aad58a9a0ecb1349308815a4151a60405180806020018281038252600d8152602001807f496e76616c69642070726963650000000000000000000000000000000000000081525060200191505060405180910390a13373ffffffffffffffffffffffffffffffffffffffff166108fc349081150290604051600060405180830381858888f193505050501515610a4d57600080fd5b60009750610d65565b3373ffffffffffffffffffffffffffffffffffffffff168760a0015173ffffffffffffffffffffffffffffffffffffffff161415610b3f577fc35a0ec6603ff0b5966d7ca053a5f0984a70aad58a9a0ecb1349308815a4151a6040518080602001828103825260118152602001807f496e76616c696420616666696c6961746500000000000000000000000000000081525060200191505060405180910390a13373ffffffffffffffffffffffffffffffffffffffff166108fc349081150290604051600060405180830381858888f193505050501515610b3657600080fd5b60009750610d65565b8273ffffffffffffffffffffffffffffffffffffffff166108fc349081150290604051600060405180830381858888f193505050501515610b7f57600080fd5b600087608001511115610cb1576000809054906101000a900473ffffffffffffffffffffffffffffffffffffffff1673ffffffffffffffffffffffffffffffffffffffff1663625c8c77838960a001518a608001516000604051602001526040518463ffffffff167c0100000000000000000000000000000000000000000000000000000000028152600401808473ffffffffffffffffffffffffffffffffffffffff1673ffffffffffffffffffffffffffffffffffffffff1681526020018373ffffffffffffffffffffffffffffffffffffffff1673ffffffffffffffffffffffffffffffffffffffff1681526020018281526020019350505050602060405180830381600087803b1515610c9457600080fd5b6102c65a03f11515610ca557600080fd5b50505060405180519050505b6002600081548092919060010191905055508273ffffffffffffffffffffffffffffffffffffffff163373ffffffffffffffffffffffffffffffffffffffff166002547f53badc7e352aa2220059cda625fc115ef82c5f7fb8d47684e5d436495c2e0c668f8b600001518c602001518d60400151426040518086600019166000191681526020018581526020018481526020018381526020018281526020019550505050505060405180910390a460025497505b505050505050509695505050505050565b600160009054906101000a900473ffffffffffffffffffffffffffffffffffffffff1681565b600060018560405180807f19457468657265756d205369676e6564204d6573736167653a0a333200000000815250601c0182600019166000191681526020019150506040518091039020858585604051600081526020016040526000604051602001526040518085600019166000191681526020018460ff1660ff16815260200183600019166000191681526020018260001916600019168152602001945050505050602060405160208103908084039060008661646e5a03f11515610e6157600080fd5b50506020604051035173ffffffffffffffffffffffffffffffffffffffff168673ffffffffffffffffffffffffffffffffffffffff1614905095945050505050565b6000809054906101000a900473ffffffffffffffffffffffffffffffffffffffff1681565b610100604051908101604052806000815260200160008152602001600081526020016000815260200160008152602001600073ffffffffffffffffffffffffffffffffffffffff16815260200160008152602001600073ffffffffffffffffffffffffffffffffffffffff16815250905600a165627a7a723058209914e71f974bbc395051497dfec6e1500ebe9052d9850c9a9c239b434f4fcb300029",
  "source": "pragma solidity ^0.4.11;\n\nimport \"./MarketToken.sol\";\nimport \"./DINRegistry.sol\";\nimport \"./Resolver.sol\";\n\ncontract Checkout {\n    MarketToken public marketToken;\n    DINRegistry public registry;\n\n    // The next order ID.\n    uint256 public orderIndex = 0;\n\n    // Prevents Solidity \"stack too deep\" error.\n    struct Order {\n        uint256 DIN;\n        uint256 quantity;\n        uint256 totalPrice;\n        uint256 priceValidUntil;\n        uint256 affiliateReward;\n        address affiliate;\n        uint256 loyaltyReward;\n        address loyaltyToken;\n    }\n\n    // Logs Solidity errors\n    event LogError(string error);\n\n    // Logs new orders\n    event NewOrder(\n        uint256 indexed orderID,\n        bytes32 nonceHash,\n        address indexed buyer,\n        address indexed merchant,\n        uint256 DIN,\n        uint256 quantity,\n        uint256 totalPrice,\n        uint256 timestamp\n    );\n\n    /** @dev Constructor.\n      * @param _token The Market Token contract address.\n      * @param _registry The DIN Registry contract address.\n      */\n    function Checkout(MarketToken _token, DINRegistry _registry) public {\n        marketToken = _token;\n        registry = _registry;\n    }\n\n    /** @dev Buy a product.\n      * param orderValues:\n        [0] DIN The Decentralized Identification Number (DIN) of the product to buy.\n        [1] quantity The quantity to buy.\n        [2] totalPrice Total price of the purchase, in wei.\n        [3] priceValidUntil Expiration time (Unix timestamp).\n        [4] affiliateReward Affiliate reward (optional), denominated in base units of Market Token (MARK).\n        [5] loyaltyReward Loyalty reward (optional), denominated in loyaltyToken.\n      * param orderAddresses:\n        [0] affiliate Address of the affiliate. Use null address (0x0...) for no affiliate.\n        [1] loyaltyToken Address of the Loyalty Token. Use null address for no loyalty reward.\n      * @param nonceHash The hash of a nonce generated by a client. The nonce can be used as a proof of purchase.\n      * @param v ECDSA signature parameter v.\n      * @param r ECDSA signature parameter r.\n      * @param s ECDSA signature parameter s.\n      * @return orderID A unique ID for the order.\n      */\n    function buy(\n        uint256[6] orderValues,\n        address[2] orderAddresses,\n        bytes32 nonceHash,\n        uint8 v,\n        bytes32 r,\n        bytes32 s\n    )\n        payable\n        public\n        returns (uint256 orderID)\n    {\n        Order memory order = Order({\n            DIN: orderValues[0],\n            quantity: orderValues[1],\n            totalPrice: orderValues[2],\n            priceValidUntil: orderValues[3],\n            affiliateReward: orderValues[4],\n            affiliate: orderAddresses[0],\n            loyaltyReward: orderValues[5],\n            loyaltyToken: orderAddresses[1]\n        });\n\n        if (block.timestamp > order.priceValidUntil) {\n            LogError(\"Offer expired\");\n            msg.sender.transfer(msg.value);\n            return 0;\n        }\n\n        uint256 unitPrice = order.totalPrice / order.quantity;\n\n        // Calculate the hash of the parameters provided by the buyer.\n        bytes32 hash = keccak256(\n            order.DIN,\n            unitPrice,\n            order.priceValidUntil,\n            order.affiliateReward, \n            order.loyaltyReward,\n            order.loyaltyToken\n        );\n\n        // Get the resolver address from the DIN Registry.\n        address resolverAddr = registry.resolver(order.DIN);\n\n        if (resolverAddr == address(0x0)) {\n            LogError(\"Invalid resolver\");\n            msg.sender.transfer(msg.value);\n            return 0;\n        }\n\n        // Untrusted call\n        address merchant = Resolver(resolverAddr).merchant(order.DIN);\n\n        if (merchant == address(0x0)) {\n            LogError(\"Invalid merchant\");\n            msg.sender.transfer(msg.value);\n            return 0;\n        }\n\n        // Get the DIN owner address from the DIN registry.\n        address owner = registry.owner(order.DIN);\n\n        // Verify that the DIN owner has signed the parameters provided by the buyer.\n        bool isValid = isValidSignature(owner, hash, v, r, s);\n\n        if (isValid == false) {\n            LogError(\"Invalid signature\");\n            msg.sender.transfer(msg.value);\n            return 0;\n        }\n\n        if (msg.value != order.totalPrice) {\n            LogError(\"Invalid price\");\n            msg.sender.transfer(msg.value);\n            return 0;\n        }\n\n        if (order.affiliate == msg.sender) {\n            LogError(\"Invalid affiliate\");\n            msg.sender.transfer(msg.value);\n            return 0;\n        }\n\n        // Transfer Ether (ETH) from buyer to merchant.\n        merchant.transfer(msg.value);\n\n        if (order.affiliateReward > 0) {\n            // Transfer affiliate fee from DIN owner to affiliate.\n            marketToken.transferFromCheckout(owner, order.affiliate, order.affiliateReward);\n        }\n\n        // Increment the order index.\n        orderIndex++;\n\n        NewOrder(\n            orderIndex,     // Order ID\n            nonceHash,\n            msg.sender,     // Buyer\n            merchant,\n            order.DIN,\n            order.quantity,\n            order.totalPrice,\n            block.timestamp\n        );\n\n        return orderIndex;\n    }\n\n    /**\n      * @dev Verifies that an order signature is valid.\n      * @param signer address of signer.\n      * @param hash Signed Keccak-256 hash.\n      * @param v ECDSA signature parameter v.\n      * @param r ECDSA signature parameters r.\n      * @param s ECDSA signature parameters s.\n      * @return valid Validity of order signature.\n      */\n    function isValidSignature(\n        address signer,\n        bytes32 hash,\n        uint8 v,\n        bytes32 r,\n        bytes32 s\n    )\n        public\n        constant\n        returns (bool valid)\n    {\n        return signer == ecrecover(\n            keccak256(\"\\x19Ethereum Signed Message:\\n32\", hash),\n            v,\n            r,\n            s\n        );\n    }\n\n}",
  "sourcePath": "/Users/richardmcateer/Developer/Ethereum/kiosk/single-product-page/src/kiosk.js/contracts/contracts/Checkout.sol",
  "compiler": {
    "name": "solc",
    "version": "0.4.18+commit.9cf6e910.Emscripten.clang"
  },
  "schemaVersion": "1.0.1",
  "updatedAt": "2017-11-20T06:41:57.287Z"
}