{
  "contractName": "Checkout",
  "abi": [
    {
      "constant": true,
      "inputs": [
        {
          "name": "DIN",
          "type": "uint256"
        },
        {
          "name": "quantity",
          "type": "uint256"
        },
        {
          "name": "totalPrice",
          "type": "uint256"
        },
        {
          "name": "priceValidUntil",
          "type": "uint256"
        },
        {
          "name": "affiliateReward",
          "type": "uint256"
        },
        {
          "name": "affiliate",
          "type": "address"
        },
        {
          "name": "loyaltyReward",
          "type": "uint256"
        },
        {
          "name": "loyaltyToken",
          "type": "address"
        },
        {
          "name": "merchant",
          "type": "address"
        },
        {
          "name": "owner",
          "type": "address"
        },
        {
          "name": "v",
          "type": "uint8"
        },
        {
          "name": "r",
          "type": "bytes32"
        },
        {
          "name": "s",
          "type": "bytes32"
        }
      ],
      "name": "isValidOrder",
      "outputs": [
        {
          "name": "",
          "type": "bool"
        }
      ],
      "payable": false,
      "stateMutability": "view",
      "type": "function"
    },
    {
      "constant": true,
      "inputs": [],
      "name": "orders",
      "outputs": [
        {
          "name": "",
          "type": "address"
        }
      ],
      "payable": false,
      "stateMutability": "view",
      "type": "function"
    },
    {
      "constant": false,
      "inputs": [
        {
          "name": "orderValues",
          "type": "uint256[6]"
        },
        {
          "name": "orderAddresses",
          "type": "address[2]"
        },
        {
          "name": "nonceHash",
          "type": "bytes32"
        },
        {
          "name": "v",
          "type": "uint8"
        },
        {
          "name": "r",
          "type": "bytes32"
        },
        {
          "name": "s",
          "type": "bytes32"
        }
      ],
      "name": "buy",
      "outputs": [
        {
          "name": "orderID",
          "type": "uint256"
        }
      ],
      "payable": true,
      "stateMutability": "payable",
      "type": "function"
    },
    {
      "constant": true,
      "inputs": [],
      "name": "registry",
      "outputs": [
        {
          "name": "",
          "type": "address"
        }
      ],
      "payable": false,
      "stateMutability": "view",
      "type": "function"
    },
    {
      "constant": true,
      "inputs": [
        {
          "name": "signer",
          "type": "address"
        },
        {
          "name": "hash",
          "type": "bytes32"
        },
        {
          "name": "v",
          "type": "uint8"
        },
        {
          "name": "r",
          "type": "bytes32"
        },
        {
          "name": "s",
          "type": "bytes32"
        }
      ],
      "name": "isValidSignature",
      "outputs": [
        {
          "name": "valid",
          "type": "bool"
        }
      ],
      "payable": false,
      "stateMutability": "view",
      "type": "function"
    },
    {
      "constant": true,
      "inputs": [],
      "name": "marketToken",
      "outputs": [
        {
          "name": "",
          "type": "address"
        }
      ],
      "payable": false,
      "stateMutability": "view",
      "type": "function"
    },
    {
      "constant": true,
      "inputs": [],
      "name": "loyaltyRegistry",
      "outputs": [
        {
          "name": "",
          "type": "address"
        }
      ],
      "payable": false,
      "stateMutability": "view",
      "type": "function"
    },
    {
      "inputs": [
        {
          "name": "_registry",
          "type": "address"
        },
        {
          "name": "_orders",
          "type": "address"
        },
        {
          "name": "_token",
          "type": "address"
        },
        {
          "name": "_loyaltyRegistry",
          "type": "address"
        }
      ],
      "payable": false,
      "stateMutability": "nonpayable",
      "type": "constructor"
    },
    {
      "anonymous": false,
      "inputs": [
        {
          "indexed": false,
          "name": "error",
          "type": "string"
        }
      ],
      "name": "LogError",
      "type": "event"
    }
  ],
  "bytecode": "0x6060604052341561000f57600080fd5b60405160808061178183398101604052808051906020019091908051906020019091908051906020019091908051906020019091905050836000806101000a81548173ffffffffffffffffffffffffffffffffffffffff021916908373ffffffffffffffffffffffffffffffffffffffff16021790555082600160006101000a81548173ffffffffffffffffffffffffffffffffffffffff021916908373ffffffffffffffffffffffffffffffffffffffff16021790555081600260006101000a81548173ffffffffffffffffffffffffffffffffffffffff021916908373ffffffffffffffffffffffffffffffffffffffff16021790555080600360006101000a81548173ffffffffffffffffffffffffffffffffffffffff021916908373ffffffffffffffffffffffffffffffffffffffff160217905550505050506116258061015c6000396000f300606060405260043610610083576000357c0100000000000000000000000000000000000000000000000000000000900463ffffffff168063246129f9146100885780634fb764c9146101925780635d5d19c9146101e75780637b103999146102955780638163681e146102ea578063ad48d6111461036e578063dbb6eb16146103c3575b600080fd5b341561009357600080fd5b610178600480803590602001909190803590602001909190803590602001909190803590602001909190803590602001909190803573ffffffffffffffffffffffffffffffffffffffff1690602001909190803590602001909190803573ffffffffffffffffffffffffffffffffffffffff1690602001909190803573ffffffffffffffffffffffffffffffffffffffff1690602001909190803573ffffffffffffffffffffffffffffffffffffffff1690602001909190803560ff169060200190919080356000191690602001909190803560001916906020019091905050610418565b604051808215151515815260200191505060405180910390f35b341561019d57600080fd5b6101a5610933565b604051808273ffffffffffffffffffffffffffffffffffffffff1673ffffffffffffffffffffffffffffffffffffffff16815260200191505060405180910390f35b61027f6004808060c00190600680602002604051908101604052809291908260066020028082843782019150505050509190806040019060028060200260405190810160405280929190826002602002808284378201915050505050919080356000191690602001909190803560ff169060200190919080356000191690602001909190803560001916906020019091905050610959565b6040518082815260200191505060405180910390f35b34156102a057600080fd5b6102a861123c565b604051808273ffffffffffffffffffffffffffffffffffffffff1673ffffffffffffffffffffffffffffffffffffffff16815260200191505060405180910390f35b34156102f557600080fd5b610354600480803573ffffffffffffffffffffffffffffffffffffffff169060200190919080356000191690602001909190803560ff169060200190919080356000191690602001909190803560001916906020019091905050611261565b604051808215151515815260200191505060405180910390f35b341561037957600080fd5b610381611368565b604051808273ffffffffffffffffffffffffffffffffffffffff1673ffffffffffffffffffffffffffffffffffffffff16815260200191505060405180910390f35b34156103ce57600080fd5b6103d661138e565b604051808273ffffffffffffffffffffffffffffffffffffffff1673ffffffffffffffffffffffffffffffffffffffff16815260200191505060405180910390f35b60008060008c421115610496577fc35a0ec6603ff0b5966d7ca053a5f0984a70aad58a9a0ecb1349308815a4151a60405180806020018281038252600d8152602001807f4f6666657220657870697265640000000000000000000000000000000000000081525060200191505060405180910390a160009250610920565b600073ffffffffffffffffffffffffffffffffffffffff168873ffffffffffffffffffffffffffffffffffffffff16141561053c577fc35a0ec6603ff0b5966d7ca053a5f0984a70aad58a9a0ecb1349308815a4151a6040518080602001828103825260108152602001807f496e76616c6964206d65726368616e740000000000000000000000000000000081525060200191505060405180910390a160009250610920565b60008c11801561057757503373ffffffffffffffffffffffffffffffffffffffff168b73ffffffffffffffffffffffffffffffffffffffff16145b156105ed577fc35a0ec6603ff0b5966d7ca053a5f0984a70aad58a9a0ecb1349308815a4151a6040518080602001828103825260118152602001807f496e76616c696420616666696c6961746500000000000000000000000000000081525060200191505060405180910390a160009250610920565b60008a11801561062a5750600073ffffffffffffffffffffffffffffffffffffffff168973ffffffffffffffffffffffffffffffffffffffff1614155b8015610719575060001515600360009054906101000a900473ffffffffffffffffffffffffffffffffffffffff1673ffffffffffffffffffffffffffffffffffffffff16639b19251a8b6000604051602001526040518263ffffffff167c0100000000000000000000000000000000000000000000000000000000028152600401808273ffffffffffffffffffffffffffffffffffffffff1673ffffffffffffffffffffffffffffffffffffffff168152602001915050602060405180830381600087803b15156106fa57600080fd5b6102c65a03f1151561070b57600080fd5b505050604051805190501515145b1561078f577fc35a0ec6603ff0b5966d7ca053a5f0984a70aad58a9a0ecb1349308815a4151a6040518080602001828103825260158152602001807f496e76616c6964206c6f79616c747920746f6b656e000000000000000000000081525060200191505060405180910390a160009250610920565b8d341115610808577fc35a0ec6603ff0b5966d7ca053a5f0984a70aad58a9a0ecb1349308815a4151a60405180806020018281038252600d8152602001807f496e76616c69642070726963650000000000000000000000000000000000000081525060200191505060405180910390a160009250610920565b8e8e81151561081357fe5b0491508f828e8e8d8d604051808781526020018681526020018581526020018481526020018381526020018273ffffffffffffffffffffffffffffffffffffffff1673ffffffffffffffffffffffffffffffffffffffff166c01000000000000000000000000028152601401965050505050505060405180910390209050600015156108a28883898989611261565b1515141561091b577fc35a0ec6603ff0b5966d7ca053a5f0984a70aad58a9a0ecb1349308815a4151a6040518080602001828103825260118152602001807f496e76616c6964207369676e617475726500000000000000000000000000000081525060200191505060405180910390a160009250610920565b600192505b50509d9c50505050505050505050505050565b600160009054906101000a900473ffffffffffffffffffffffffffffffffffffffff1681565b600080600061096661152f565b60008060009054906101000a900473ffffffffffffffffffffffffffffffffffffffff1673ffffffffffffffffffffffffffffffffffffffff1663108eaa4e8c60006006811015156109b457fe5b60200201516000604051602001526040518263ffffffff167c010000000000000000000000000000000000000000000000000000000002815260040180828152602001915050602060405180830381600087803b1515610a1357600080fd5b6102c65a03f11515610a2457600080fd5b505050604051805190509350600073ffffffffffffffffffffffffffffffffffffffff168473ffffffffffffffffffffffffffffffffffffffff161415610b16577fc35a0ec6603ff0b5966d7ca053a5f0984a70aad58a9a0ecb1349308815a4151a6040518080602001828103825260108152602001807f496e76616c6964207265736f6c7665720000000000000000000000000000000081525060200191505060405180910390a13373ffffffffffffffffffffffffffffffffffffffff166108fc349081150290604051600060405180830381858888f193505050501515610b0d57600080fd5b6000945061122e565b8373ffffffffffffffffffffffffffffffffffffffff1663020cdd3661138761ffff168d6000600681101515610b4857fe5b60200201516040518363ffffffff167c010000000000000000000000000000000000000000000000000000000002815260040180828152602001915050602060405180830381600088803b1515610b9e57600080fd5b87f11515610bab57600080fd5b505050506040518051905092506101a0604051908101604052808c6000600681101515610bd457fe5b602002015181526020018c6001600681101515610bed57fe5b602002015181526020018c6002600681101515610c0657fe5b602002015181526020018c6003600681101515610c1f57fe5b602002015181526020018c6004600681101515610c3857fe5b602002015181526020018b6000600281101515610c5157fe5b602002015173ffffffffffffffffffffffffffffffffffffffff1681526020018c6005600681101515610c8057fe5b602002015181526020018b6001600281101515610c9957fe5b602002015173ffffffffffffffffffffffffffffffffffffffff1681526020018473ffffffffffffffffffffffffffffffffffffffff1681526020016000809054906101000a900473ffffffffffffffffffffffffffffffffffffffff1673ffffffffffffffffffffffffffffffffffffffff1663a123c33e8e6000600681101515610d2157fe5b60200201516000604051602001526040518263ffffffff167c010000000000000000000000000000000000000000000000000000000002815260040180828152602001915050602060405180830381600087803b1515610d8057600080fd5b6102c65a03f11515610d9157600080fd5b5050506040518051905073ffffffffffffffffffffffffffffffffffffffff1681526020018960ff1681526020018860001916815260200187600019168152509150610e21826000015183602001518460400151856060015186608001518760a001518860c001518960e001518a61010001518b61012001518c61014001518d61016001518e6101800151610418565b9050600015158115151415610e79573373ffffffffffffffffffffffffffffffffffffffff166108fc349081150290604051600060405180830381858888f193505050501515610e7057600080fd5b6000945061122e565b610e8c8383604001518460e001516113b4565b600082608001511115610fc457600260009054906101000a900473ffffffffffffffffffffffffffffffffffffffff1673ffffffffffffffffffffffffffffffffffffffff1663625c8c778361012001518460a0015185608001516000604051602001526040518463ffffffff167c0100000000000000000000000000000000000000000000000000000000028152600401808473ffffffffffffffffffffffffffffffffffffffff1673ffffffffffffffffffffffffffffffffffffffff1681526020018373ffffffffffffffffffffffffffffffffffffffff1673ffffffffffffffffffffffffffffffffffffffff1681526020018281526020019350505050602060405180830381600087803b1515610fa757600080fd5b6102c65a03f11515610fb857600080fd5b50505060405180519050505b60008260c001511180156110095750600073ffffffffffffffffffffffffffffffffffffffff168260e0015173ffffffffffffffffffffffffffffffffffffffff1614155b15611117578160e0015173ffffffffffffffffffffffffffffffffffffffff1663625c8c77836101200151338560c001516000604051602001526040518463ffffffff167c0100000000000000000000000000000000000000000000000000000000028152600401808473ffffffffffffffffffffffffffffffffffffffff1673ffffffffffffffffffffffffffffffffffffffff1681526020018373ffffffffffffffffffffffffffffffffffffffff1673ffffffffffffffffffffffffffffffffffffffff1681526020018281526020019350505050602060405180830381600087803b15156110fa57600080fd5b6102c65a03f1151561110b57600080fd5b50505060405180519050505b600160009054906101000a900473ffffffffffffffffffffffffffffffffffffffff1673ffffffffffffffffffffffffffffffffffffffff16630327a66c8a858560000151866020015187604001516000604051602001526040518663ffffffff167c01000000000000000000000000000000000000000000000000000000000281526004018086600019166000191681526020018573ffffffffffffffffffffffffffffffffffffffff1673ffffffffffffffffffffffffffffffffffffffff16815260200184815260200183815260200182815260200195505050505050602060405180830381600087803b151561121057600080fd5b6102c65a03f1151561122157600080fd5b5050506040518051905094505b505050509695505050505050565b6000809054906101000a900473ffffffffffffffffffffffffffffffffffffffff1681565b600060018560405180807f19457468657265756d205369676e6564204d6573736167653a0a333200000000815250601c0182600019166000191681526020019150506040518091039020858585604051600081526020016040526000604051602001526040518085600019166000191681526020018460ff1660ff16815260200183600019166000191681526020018260001916600019168152602001945050505050602060405160208103908084039060008661646e5a03f1151561132657600080fd5b50506020604051035173ffffffffffffffffffffffffffffffffffffffff168673ffffffffffffffffffffffffffffffffffffffff1614905095945050505050565b600260009054906101000a900473ffffffffffffffffffffffffffffffffffffffff1681565b600360009054906101000a900473ffffffffffffffffffffffffffffffffffffffff1681565b60008373ffffffffffffffffffffffffffffffffffffffff166108fc349081150290604051600060405180830381858888f1935050505015156113f657600080fd5b611409348461151690919063ffffffff16565b90506000811115611510578173ffffffffffffffffffffffffffffffffffffffff1663625c8c773386846000604051602001526040518463ffffffff167c0100000000000000000000000000000000000000000000000000000000028152600401808473ffffffffffffffffffffffffffffffffffffffff1673ffffffffffffffffffffffffffffffffffffffff1681526020018373ffffffffffffffffffffffffffffffffffffffff1673ffffffffffffffffffffffffffffffffffffffff1681526020018281526020019350505050602060405180830381600087803b15156114f357600080fd5b6102c65a03f1151561150457600080fd5b50505060405180519050505b50505050565b600082821115151561152457fe5b818303905092915050565b6101a0604051908101604052806000815260200160008152602001600081526020016000815260200160008152602001600073ffffffffffffffffffffffffffffffffffffffff16815260200160008152602001600073ffffffffffffffffffffffffffffffffffffffff168152602001600073ffffffffffffffffffffffffffffffffffffffff168152602001600073ffffffffffffffffffffffffffffffffffffffff168152602001600060ff168152602001600080191681526020016000801916815250905600a165627a7a72305820dc41a75759f63185c27088d72c8d7cd2d30488062442e69199e7be3eac8d7d000029",
  "source": "pragma solidity ^0.4.11;\n\nimport \"./DINRegistry.sol\";\nimport \"./MarketToken.sol\";\nimport \"./Orders.sol\";\nimport \"./Resolver.sol\";\nimport \"./LoyaltyToken.sol\";\nimport \"./LoyaltyTokenRegistry.sol\";\nimport \"zeppelin-solidity/contracts/math/SafeMath.sol\";\n\ncontract Checkout {\n    using SafeMath for uint256;\n\n    DINRegistry public registry;\n    Orders public orders;\n    MarketToken public marketToken;\n    LoyaltyTokenRegistry public loyaltyRegistry;\n\n    uint16 constant EXTERNAL_QUERY_GAS_LIMIT = 4999;  // Changes to state require at least 5000 gas\n\n    // Prevent Solidity \"stack too deep\" error.\n    struct Order {\n        uint256 DIN;\n        uint256 quantity;\n        uint256 totalPrice;\n        uint256 priceValidUntil;\n        uint256 affiliateReward;\n        address affiliate;\n        uint256 loyaltyReward;\n        address loyaltyToken;\n        address merchant;\n        address owner;\n        uint8 v;\n        bytes32 r;\n        bytes32 s;\n    }\n\n    // Log Solidity errors\n    event LogError(string error);\n\n    /** @dev Constructor.\n      * @param _registry The DIN Registry contract address.\n      * @param _orders The Orders contract address.\n      * @param _token The Market Token contract address.\n      * @param _loyaltyRegistry The Loyalty Token Registry contract address.\n      */\n    function Checkout(\n        DINRegistry _registry,\n        Orders _orders,\n        MarketToken _token,\n        LoyaltyTokenRegistry _loyaltyRegistry\n    ) public {\n        registry = _registry;\n        orders = _orders;\n        marketToken = _token;\n        loyaltyRegistry = _loyaltyRegistry;\n    }\n\n    /** @dev Buy a product.\n      * param orderValues:\n        [0] DIN The Decentralized Identification Number (DIN) of the product to buy.\n        [1] quantity The quantity to buy.\n        [2] totalPrice Total price of the purchase, in wei.\n        [3] priceValidUntil Expiration time (Unix timestamp).\n        [4] affiliateReward Affiliate reward (optional), denominated in base units of Market Token (MARK).\n        [5] loyaltyReward Loyalty reward (optional), denominated in loyaltyToken.\n      * param orderAddresses:\n        [0] affiliate Address of the affiliate. Use null address (0x0...) for no affiliate.\n        [1] loyaltyToken Address of the Loyalty Token. Use null address for no loyalty reward.\n      * @param nonceHash The hash of a nonce generated by a client. The nonce can be used as a proof of purchase.\n      * @param v ECDSA signature parameter v.\n      * @param r ECDSA signature parameter r.\n      * @param s ECDSA signature parameter s.\n      * @return orderID A unique ID for the order.\n      */\n    function buy(\n        uint256[6] orderValues,\n        address[2] orderAddresses,\n        bytes32 nonceHash,\n        uint8 v,\n        bytes32 r,\n        bytes32 s\n    )\n        payable\n        public\n        returns (uint256 orderID)\n    {\n        // Get the resolver address from the DIN Registry.\n        address resolver = registry.resolver(orderValues[0]);\n\n        if (resolver == address(0x0)) {\n            LogError(\"Invalid resolver\");\n            msg.sender.transfer(msg.value);\n            return 0;\n        }\n\n        // Untrusted external call. Limit gas to prevent changes to state on reentry.\n        address merchant = Resolver(resolver).merchant.gas(EXTERNAL_QUERY_GAS_LIMIT)(orderValues[0]);\n\n        Order memory order = Order({\n            DIN: orderValues[0],\n            quantity: orderValues[1],\n            totalPrice: orderValues[2],\n            priceValidUntil: orderValues[3],\n            affiliateReward: orderValues[4],\n            affiliate: orderAddresses[0],\n            loyaltyReward: orderValues[5],\n            loyaltyToken: orderAddresses[1],\n            merchant: merchant,\n            owner: registry.owner(orderValues[0]), // Get the DIN owner address from the DIN registry.\n            v: v,\n            r: r,\n            s: s\n        });\n\n        bool isValid = isValidOrder(\n            order.DIN,\n            order.quantity,\n            order.totalPrice,\n            order.priceValidUntil,\n            order.affiliateReward,\n            order.affiliate,\n            order.loyaltyReward,\n            order.loyaltyToken,\n            order.merchant,\n            order.owner,\n            order.v,\n            order.r,\n            order.s\n        );\n\n        if (isValid == false) {\n            // Return Ether to buyer.\n            msg.sender.transfer(msg.value);\n            return 0;\n        }\n\n        // Transfer a mix of Ether and loyalty tokens (if applicable) from buyer to merchant.\n        payMerchant(merchant, order.totalPrice, order.loyaltyToken);\n\n        // Transfer affiliate reward from DIN owner to affiliate.\n        if (order.affiliateReward > 0) {\n            marketToken.transferFromCheckout(order.owner, order.affiliate, order.affiliateReward);\n        }\n\n        // Transfer loyalty reward from DIN owner to buyer.\n        if (order.loyaltyReward > 0 && order.loyaltyToken != address(0x0)) {\n            LoyaltyToken(order.loyaltyToken).transferFromCheckout(order.owner, msg.sender, order.loyaltyReward);\n        }\n\n        // Create a new order and return the unique order ID.\n        return orders.createOrder(\n            nonceHash,\n            merchant,\n            order.DIN,\n            order.quantity,\n            order.totalPrice\n        );\n    }\n\n    /**\n      * @dev Transfer a mix of Ether and loyalty token from buyer to merchant.\n      * @param merchant The merchant address.\n      * @param totalPrice The total price of the purchase, in wei.\n      * @param loyaltyToken The address of the loyalty token specified by the DIN owner.\n      */\n    function payMerchant(address merchant, uint256 totalPrice, address loyaltyToken) private {\n        // Transfer Ether from buyer to merchant.\n        merchant.transfer(msg.value);\n\n        // Calculate the remaining balance.\n        uint256 loyaltyValue = totalPrice.sub(msg.value);\n\n        // Transfer loyalty tokens from buyer to merchant if the total price was not paid in Ether.\n        if (loyaltyValue > 0) {\n            LoyaltyToken(loyaltyToken).transferFromCheckout(msg.sender, merchant, loyaltyValue);\n        }\n    }\n\n    /**\n      * @dev Verify that an order is valid.\n      * @return valid Validity of the order.\n      */\n    function isValidOrder(\n        uint256 DIN,\n        uint256 quantity,\n        uint256 totalPrice,\n        uint256 priceValidUntil,\n        uint256 affiliateReward,\n        address affiliate,\n        uint256 loyaltyReward,\n        address loyaltyToken,\n        address merchant,\n        address owner,\n        uint8 v,\n        bytes32 r,\n        bytes32 s\n    ) \n        public \n        constant \n        returns (bool) \n    {\n        if (block.timestamp > priceValidUntil) {\n            LogError(\"Offer expired\");\n            return false;\n        }\n\n        if (merchant == address(0x0)) {\n            LogError(\"Invalid merchant\");\n            return false;\n        }\n\n        if (affiliateReward > 0 && affiliate == msg.sender) {\n            LogError(\"Invalid affiliate\");\n            return false;\n        }\n\n        if (loyaltyReward > 0 && loyaltyToken != address(0x0) && loyaltyRegistry.whitelist(loyaltyToken) == false) {\n            LogError(\"Invalid loyalty token\");\n            return false;\n        }\n\n        if (msg.value > totalPrice) {\n            LogError(\"Invalid price\");\n            return false;\n        }\n\n        uint256 unitPrice = totalPrice / quantity;\n\n        // Calculate the hash of the parameters provided by the buyer.\n        bytes32 hash = keccak256(\n            DIN,\n            unitPrice,\n            priceValidUntil,\n            affiliateReward, \n            loyaltyReward,\n            loyaltyToken\n        );\n\n        // Verify that the DIN owner has signed the provided inputs.\n        if (isValidSignature(owner, hash, v, r, s) == false) {\n            LogError(\"Invalid signature\");\n            return false;\n        }\n\n        return true;\n    }\n\n    /**\n      * @dev Verify that an order signature is valid.\n      * @param signer address of signer.\n      * @param hash Signed Keccak-256 hash.\n      * @param v ECDSA signature parameter v.\n      * @param r ECDSA signature parameters r.\n      * @param s ECDSA signature parameters s.\n      * @return valid Validity of the order signature.\n      */\n    function isValidSignature(\n        address signer,\n        bytes32 hash,\n        uint8 v,\n        bytes32 r,\n        bytes32 s\n    )\n        public\n        constant\n        returns (bool valid)\n    {\n        return signer == ecrecover(\n            keccak256(\"\\x19Ethereum Signed Message:\\n32\", hash),\n            v,\n            r,\n            s\n        );\n    }\n\n}",
  "sourcePath": "/Users/richardmcateer/Developer/Ethereum/kiosk/single-product-page/src/kiosk.js/contracts/contracts/Checkout.sol",
  "compiler": {
    "name": "solc",
    "version": "0.4.18+commit.9cf6e910.Emscripten.clang"
  },
  "schemaVersion": "1.0.1",
  "updatedAt": "2017-11-27T01:29:02.980Z"
}