{
  "contractName": "DINRegistry",
  "abi": [
    {
      "constant": true,
      "inputs": [
        {
          "name": "DIN",
          "type": "uint256"
        }
      ],
      "name": "resolver",
      "outputs": [
        {
          "name": "",
          "type": "address"
        }
      ],
      "payable": false,
      "stateMutability": "view",
      "type": "function"
    },
    {
      "constant": true,
      "inputs": [],
      "name": "registrar",
      "outputs": [
        {
          "name": "",
          "type": "address"
        }
      ],
      "payable": false,
      "stateMutability": "view",
      "type": "function"
    },
    {
      "constant": false,
      "inputs": [
        {
          "name": "DIN",
          "type": "uint256"
        },
        {
          "name": "owner",
          "type": "address"
        }
      ],
      "name": "setOwner",
      "outputs": [],
      "payable": false,
      "stateMutability": "nonpayable",
      "type": "function"
    },
    {
      "constant": true,
      "inputs": [
        {
          "name": "DIN",
          "type": "uint256"
        }
      ],
      "name": "owner",
      "outputs": [
        {
          "name": "",
          "type": "address"
        }
      ],
      "payable": false,
      "stateMutability": "view",
      "type": "function"
    },
    {
      "constant": true,
      "inputs": [],
      "name": "genesis",
      "outputs": [
        {
          "name": "",
          "type": "uint256"
        }
      ],
      "payable": false,
      "stateMutability": "view",
      "type": "function"
    },
    {
      "constant": true,
      "inputs": [
        {
          "name": "DIN",
          "type": "uint256"
        }
      ],
      "name": "updated",
      "outputs": [
        {
          "name": "",
          "type": "uint256"
        }
      ],
      "payable": false,
      "stateMutability": "view",
      "type": "function"
    },
    {
      "constant": false,
      "inputs": [
        {
          "name": "DIN",
          "type": "uint256"
        },
        {
          "name": "resolver",
          "type": "address"
        }
      ],
      "name": "setResolver",
      "outputs": [],
      "payable": false,
      "stateMutability": "nonpayable",
      "type": "function"
    },
    {
      "constant": false,
      "inputs": [
        {
          "name": "DIN",
          "type": "uint256"
        },
        {
          "name": "owner",
          "type": "address"
        }
      ],
      "name": "register",
      "outputs": [],
      "payable": false,
      "stateMutability": "nonpayable",
      "type": "function"
    },
    {
      "constant": false,
      "inputs": [
        {
          "name": "_registrar",
          "type": "address"
        }
      ],
      "name": "setRegistrar",
      "outputs": [],
      "payable": false,
      "stateMutability": "nonpayable",
      "type": "function"
    },
    {
      "inputs": [
        {
          "name": "_genesis",
          "type": "uint256"
        }
      ],
      "payable": false,
      "stateMutability": "nonpayable",
      "type": "constructor"
    },
    {
      "anonymous": false,
      "inputs": [
        {
          "indexed": true,
          "name": "DIN",
          "type": "uint256"
        },
        {
          "indexed": true,
          "name": "owner",
          "type": "address"
        }
      ],
      "name": "NewOwner",
      "type": "event"
    },
    {
      "anonymous": false,
      "inputs": [
        {
          "indexed": true,
          "name": "DIN",
          "type": "uint256"
        },
        {
          "indexed": true,
          "name": "resolver",
          "type": "address"
        }
      ],
      "name": "NewResolver",
      "type": "event"
    },
    {
      "anonymous": false,
      "inputs": [
        {
          "indexed": true,
          "name": "DIN",
          "type": "uint256"
        },
        {
          "indexed": true,
          "name": "owner",
          "type": "address"
        }
      ],
      "name": "NewRegistration",
      "type": "event"
    },
    {
      "anonymous": false,
      "inputs": [
        {
          "indexed": true,
          "name": "registrar",
          "type": "address"
        }
      ],
      "name": "NewRegistrar",
      "type": "event"
    }
  ],
  "bytecode": "0x6060604052341561000f57600080fd5b604051602080610961833981016040528080519060200190919050508060028190555033600080600254815260200190815260200160002060000160006101000a81548173ffffffffffffffffffffffffffffffffffffffff021916908373ffffffffffffffffffffffffffffffffffffffff160217905550426000806002548152602001908152602001600020600201819055503373ffffffffffffffffffffffffffffffffffffffff166002547fef8ea3d0ef6bf7f673a09aa675838d76573d86e5a9fc235846ac3f54195d721760405160405180910390a350610867806100fa6000396000f300606060405260043610610099576000357c0100000000000000000000000000000000000000000000000000000000900463ffffffff168063108eaa4e1461009e5780632b20e397146101015780637fd3924714610156578063a123c33e14610198578063a7f0b3de146101fb578063bbfad25614610224578063bc7b6d621461025b578063dbbdf0831461029d578063faab9d39146102df575b600080fd5b34156100a957600080fd5b6100bf6004808035906020019091905050610318565b604051808273ffffffffffffffffffffffffffffffffffffffff1673ffffffffffffffffffffffffffffffffffffffff16815260200191505060405180910390f35b341561010c57600080fd5b610114610357565b604051808273ffffffffffffffffffffffffffffffffffffffff1673ffffffffffffffffffffffffffffffffffffffff16815260200191505060405180910390f35b341561016157600080fd5b610196600480803590602001909190803573ffffffffffffffffffffffffffffffffffffffff1690602001909190505061037d565b005b34156101a357600080fd5b6101b960048080359060200190919050506104a4565b604051808273ffffffffffffffffffffffffffffffffffffffff1673ffffffffffffffffffffffffffffffffffffffff16815260200191505060405180910390f35b341561020657600080fd5b61020e6104e3565b6040518082815260200191505060405180910390f35b341561022f57600080fd5b61024560048080359060200190919050506104e9565b6040518082815260200191505060405180910390f35b341561026657600080fd5b61029b600480803590602001909190803573ffffffffffffffffffffffffffffffffffffffff16906020019091905050610508565b005b34156102a857600080fd5b6102dd600480803590602001909190803573ffffffffffffffffffffffffffffffffffffffff1690602001909190505061062f565b005b34156102ea57600080fd5b610316600480803573ffffffffffffffffffffffffffffffffffffffff16906020019091905050610741565b005b600080600083815260200190815260200160002060010160009054906101000a900473ffffffffffffffffffffffffffffffffffffffff169050919050565b600160009054906101000a900473ffffffffffffffffffffffffffffffffffffffff1681565b813373ffffffffffffffffffffffffffffffffffffffff1660008083815260200190815260200160002060000160009054906101000a900473ffffffffffffffffffffffffffffffffffffffff1673ffffffffffffffffffffffffffffffffffffffff161415156103ed57600080fd5b8160008085815260200190815260200160002060000160006101000a81548173ffffffffffffffffffffffffffffffffffffffff021916908373ffffffffffffffffffffffffffffffffffffffff16021790555042600080858152602001908152602001600020600201819055508173ffffffffffffffffffffffffffffffffffffffff16837f4c5d8ccfd4f32dad0c449108334c94e0bada87b1453ad71e79e233545f4c48a660405160405180910390a3505050565b600080600083815260200190815260200160002060000160009054906101000a900473ffffffffffffffffffffffffffffffffffffffff169050919050565b60025481565b6000806000838152602001908152602001600020600201549050919050565b813373ffffffffffffffffffffffffffffffffffffffff1660008083815260200190815260200160002060000160009054906101000a900473ffffffffffffffffffffffffffffffffffffffff1673ffffffffffffffffffffffffffffffffffffffff1614151561057857600080fd5b8160008085815260200190815260200160002060010160006101000a81548173ffffffffffffffffffffffffffffffffffffffff021916908373ffffffffffffffffffffffffffffffffffffffff16021790555042600080858152602001908152602001600020600201819055508173ffffffffffffffffffffffffffffffffffffffff16837fcbae0978f0621ebb4707a96540f8d3a937104526ceef2cdf1cf07b25c5e48cd460405160405180910390a3505050565b3373ffffffffffffffffffffffffffffffffffffffff16600160009054906101000a900473ffffffffffffffffffffffffffffffffffffffff1673ffffffffffffffffffffffffffffffffffffffff1614151561068b57600080fd5b8060008084815260200190815260200160002060000160006101000a81548173ffffffffffffffffffffffffffffffffffffffff021916908373ffffffffffffffffffffffffffffffffffffffff16021790555042600080848152602001908152602001600020600201819055508073ffffffffffffffffffffffffffffffffffffffff16827fef8ea3d0ef6bf7f673a09aa675838d76573d86e5a9fc235846ac3f54195d721760405160405180910390a35050565b6002543373ffffffffffffffffffffffffffffffffffffffff1660008083815260200190815260200160002060000160009054906101000a900473ffffffffffffffffffffffffffffffffffffffff1673ffffffffffffffffffffffffffffffffffffffff161415156107b357600080fd5b81600160006101000a81548173ffffffffffffffffffffffffffffffffffffffff021916908373ffffffffffffffffffffffffffffffffffffffff1602179055508173ffffffffffffffffffffffffffffffffffffffff167f442a494f290ba8ec799a59dc05bf4eab5b97fd9d86156de0f0919a42b12ed0cd60405160405180910390a250505600a165627a7a72305820b5dbc0dbd2fda476f60bcea0c6cdfb7ea94216fd5136b3fcec775fd3c286936c0029",
  "source": "pragma solidity ^0.4.11;\n\n/** @title Decentralized Identification Number (DIN) registry. */\ncontract DINRegistry {\n\n    struct Record {\n        address owner;\n        address resolver;  // Address where product information is stored. \n        uint256 updated;   // Unix timestamp.\n    }\n\n    // DIN => Record\n    mapping (uint256 => Record) records;\n\n    // The address of DINRegistrar.\n    address public registrar;\n\n    // The first DIN registered.\n    uint256 public genesis;\n\n    modifier only_registrar {\n        require(registrar == msg.sender);\n        _;\n    }\n\n    modifier only_owner(uint256 DIN) {\n        require(records[DIN].owner == msg.sender);\n        _;\n    }\n\n    // Logged when the owner of a DIN transfers ownership to a new account.\n    event NewOwner(uint256 indexed DIN, address indexed owner);\n\n    // Logged when the resolver associated with a DIN changes.\n    event NewResolver(uint256 indexed DIN, address indexed resolver);\n\n    // Logged when a new DIN is registered.\n    event NewRegistration(uint256 indexed DIN, address indexed owner);\n\n    // Logged when the DINRegistrar contract changes.\n    event NewRegistrar(address indexed registrar);\n\n    /** @dev Constructor.\n      * @param _genesis The first DIN registered.\n      */\n    function DINRegistry(uint256 _genesis) {\n        genesis = _genesis;\n\n        // Register the genesis DIN to the account that deploys this contract.\n        records[genesis].owner = msg.sender;\n        records[genesis].updated = block.timestamp;\n        NewRegistration(genesis, msg.sender);\n    }\n\n    // Get the owner of a specified DIN.\n    function owner(uint256 DIN) constant returns (address) {\n        return records[DIN].owner;\n    }\n\n    /**\n     * @dev Transfer ownership of a DIN.\n     * @param DIN The DIN to transfer.\n     * @param owner The address of the new owner.\n     */\n    function setOwner(uint256 DIN, address owner) only_owner(DIN) {\n        records[DIN].owner = owner;\n        records[DIN].updated = block.timestamp;\n        NewOwner(DIN, owner);\n    }\n\n    // Get the resolver of a specified DIN.\n    function resolver(uint256 DIN) constant returns (address) {\n        return records[DIN].resolver;\n    }\n\n    /**\n     * @dev Set the resolver of a DIN.\n     * @param DIN The DIN to update.\n     * @param resolver The address of the resolver.\n     */\n    function setResolver(uint256 DIN, address resolver) only_owner(DIN) {\n        records[DIN].resolver = resolver;\n        records[DIN].updated = block.timestamp;\n        NewResolver(DIN, resolver);\n    }\n\n    // Get the time a specified DIN record was last updated.\n    function updated(uint256 DIN) constant returns (uint256) {\n        return records[DIN].updated;\n    } \n\n    /**\n     * @dev Register a new DIN.\n     * @param owner The account that will own the DIN.\n     */\n    function register(uint256 DIN, address owner) only_registrar {\n        records[DIN].owner = owner;\n        records[DIN].updated = block.timestamp;\n        NewRegistration(DIN, owner);\n    }\n\n    /**\n     * @dev Change the DINRegistrar contract.\n     * @param _registrar The address of the new registrar.\n     */\n    function setRegistrar(address _registrar) only_owner(genesis) {\n        registrar = _registrar;\n        NewRegistrar(_registrar);\n    }\n\n}",
  "sourcePath": "/Users/richardmcateer/Developer/Ethereum/kiosk/contracts/contracts/DINRegistry.sol",
  "compiler": {
    "name": "solc",
    "version": "0.4.18+commit.9cf6e910.Emscripten.clang"
  },
  "schemaVersion": "1.0.1",
  "updatedAt": "2017-11-19T23:01:33.565Z"
}