{
  "contractName": "DINRegistry",
  "abi": [
    {
      "constant": false,
      "inputs": [
        {
          "name": "_resolver",
          "type": "address"
        }
      ],
      "name": "selfRegisterDINWithResolver",
      "outputs": [
        {
          "name": "DIN",
          "type": "uint256"
        }
      ],
      "payable": false,
      "stateMutability": "nonpayable",
      "type": "function"
    },
    {
      "constant": true,
      "inputs": [
        {
          "name": "_DIN",
          "type": "uint256"
        }
      ],
      "name": "resolver",
      "outputs": [
        {
          "name": "",
          "type": "address"
        }
      ],
      "payable": false,
      "stateMutability": "view",
      "type": "function"
    },
    {
      "constant": true,
      "inputs": [
        {
          "name": "_DIN",
          "type": "uint256"
        },
        {
          "name": "_owner",
          "type": "address"
        },
        {
          "name": "_resolver",
          "type": "address"
        }
      ],
      "name": "index",
      "outputs": [
        {
          "name": "",
          "type": "uint256"
        }
      ],
      "payable": false,
      "stateMutability": "view",
      "type": "function"
    },
    {
      "constant": false,
      "inputs": [
        {
          "name": "_resolver",
          "type": "address"
        },
        {
          "name": "_amount",
          "type": "uint256"
        }
      ],
      "name": "selfRegisterDINsWithResolver",
      "outputs": [
        {
          "name": "minDIN",
          "type": "uint256"
        },
        {
          "name": "maxDIN",
          "type": "uint256"
        }
      ],
      "payable": false,
      "stateMutability": "nonpayable",
      "type": "function"
    },
    {
      "constant": false,
      "inputs": [
        {
          "name": "_owner",
          "type": "address"
        },
        {
          "name": "_resolver",
          "type": "address"
        },
        {
          "name": "_resolver",
          "type": "address"
        }
      ],
      "name": "registerDINWithResolver",
      "outputs": [
        {
          "name": "DIN",
          "type": "uint256"
        },
        {
          "name": "maxDIN",
          "type": "uint256"
        }
      ],
      "payable": false,
      "stateMutability": "nonpayable",
      "type": "function"
    },
    {
      "constant": false,
      "inputs": [
        {
          "name": "_DIN",
          "type": "uint256"
        },
        {
          "name": "_owner",
          "type": "address"
        }
      ],
      "name": "setOwner",
      "outputs": [
        {
          "name": "",
          "type": "uint256"
        }
      ],
      "payable": false,
      "stateMutability": "nonpayable",
      "type": "function"
    },
    {
      "constant": false,
      "inputs": [
        {
          "name": "_owner",
          "type": "address"
        },
        {
          "name": "_resolver",
          "type": "address"
        }
      ],
      "name": "registerDIN",
      "outputs": [
        {
          "name": "DIN",
          "type": "uint256"
        },
        {
          "name": "maxDIN",
          "type": "uint256"
        }
      ],
      "payable": false,
      "stateMutability": "nonpayable",
      "type": "function"
    },
    {
      "constant": true,
      "inputs": [
        {
          "name": "_DIN",
          "type": "uint256"
        },
        {
          "name": "_resolver",
          "type": "address"
        }
      ],
      "name": "owner",
      "outputs": [
        {
          "name": "",
          "type": "address"
        }
      ],
      "payable": false,
      "stateMutability": "view",
      "type": "function"
    },
    {
      "constant": false,
      "inputs": [
        {
          "name": "_DIN",
          "type": "uint256"
        },
        {
          "name": "_owner",
          "type": "address"
        }
      ],
      "name": "selfRegisterDIN",
      "outputs": [
        {
          "name": "DIN",
          "type": "uint256"
        }
      ],
      "payable": false,
      "stateMutability": "nonpayable",
      "type": "function"
    },
    {
      "constant": true,
      "inputs": [
        {
          "name": "_registrar",
          "type": "address"
        }
      ],
      "name": "genesis",
      "outputs": [
        {
          "name": "",
          "type": "uint256"
        }
      ],
      "payable": false,
      "stateMutability": "view",
      "type": "function"
    },
    {
      "inputs": [
        {
          "name": "_owner",
          "type": "address"
        },
        {
          "name": "_resolver",
          "type": "address"
        },
        {
          "name": "_amount",
          "type": "uint256"
        }
      ],
      "payable": false,
      "stateMutability": "nonpayable",
      "type": "function",
      "constant": false,
      "name": "registerDINsWithResolver",
      "outputs": [
        {
          "name": "minDIN",
          "type": "uint256"
        },
        {
          "name": "maxDIN",
          "type": "uint256"
        }
      ]
    },
    {
      "anonymous": false,
      "inputs": [
        {
          "indexed": true,
          "name": "_DIN",
          "type": "uint256"
        },
        {
          "indexed": true,
          "name": "owner",
          "type": "address"
        }
      ],
      "name": "updated",
      "type": "function",
      "constant": true,
      "outputs": [
        {
          "name": "",
          "type": "uint256"
        }
      ],
      "payable": false,
      "stateMutability": "view"
    },
    {
      "anonymous": false,
      "inputs": [
        {
          "indexed": true,
          "name": "_DIN",
          "type": "uint256"
        },
        {
          "indexed": true,
          "name": "_resolver",
          "type": "address"
        }
      ],
      "name": "setResolver",
      "type": "function",
      "constant": false,
      "outputs": [],
      "payable": false,
      "stateMutability": "nonpayable"
    },
    {
      "anonymous": false,
      "inputs": [
        {
          "indexed": true,
          "name": "_amount",
          "type": "uint256"
        },
        {
          "indexed": true,
          "name": "owner",
          "type": "address"
        }
      ],
      "name": "selfRegisterDINs",
      "type": "function",
      "constant": false,
      "outputs": [
        {
          "name": "minDIN",
          "type": "uint256"
        },
        {
          "name": "maxDIN",
          "type": "uint256"
        }
      ],
      "payable": false,
      "stateMutability": "nonpayable"
    },
    {
      "anonymous": false,
      "inputs": [
        {
          "indexed": true,
          "name": "_owner",
          "type": "address"
        },
        {
          "name": "_amount",
          "type": "uint256"
        }
      ],
      "name": "registerDINs",
      "type": "function",
      "constant": false,
      "outputs": [
        {
          "name": "minDIN",
          "type": "uint256"
        },
        {
          "name": "maxDIN",
          "type": "uint256"
        }
      ],
      "payable": false,
      "stateMutability": "nonpayable"
    },
    {
      "inputs": [
        {
          "name": "_genesis",
          "type": "uint256"
        }
      ],
      "payable": false,
      "stateMutability": "nonpayable",
      "type": "constructor"
    },
    {
      "anonymous": false,
      "inputs": [
        {
          "indexed": true,
          "name": "DIN",
          "type": "uint256"
        },
        {
          "indexed": true,
          "name": "owner",
          "type": "address"
        }
      ],
      "name": "NewOwner",
      "type": "event"
    },
    {
      "anonymous": false,
      "inputs": [
        {
          "indexed": true,
          "name": "DIN",
          "type": "uint256"
        },
        {
          "indexed": true,
          "name": "resolver",
          "type": "address"
        }
      ],
      "name": "NewResolver",
      "type": "event"
    },
    {
      "anonymous": false,
      "inputs": [
        {
          "indexed": true,
          "name": "DIN",
          "type": "uint256"
        },
        {
          "indexed": true,
          "name": "owner",
          "type": "address"
        }
      ],
      "name": "NewRegistration",
      "type": "event"
    }
  ],
  "bytecode": "0x6060604052341561000f57600080fd5b604051602080610f0d8339810160405280805190602001909190505080600181905550806002819055503360008083815260200190815260200160002060000160006101000a81548173ffffffffffffffffffffffffffffffffffffffff021916908373ffffffffffffffffffffffffffffffffffffffff16021790555042600080838152602001908152602001600020600201819055503373ffffffffffffffffffffffffffffffffffffffff16817fef8ea3d0ef6bf7f673a09aa675838d76573d86e5a9fc235846ac3f54195d721760405160405180910390a350610e12806100fb6000396000f3006060604052600436106100da576000357c0100000000000000000000000000000000000000000000000000000000900463ffffffff168062e29488146100df578063108eaa4e1461012c5780632986c0e51461018f5780632b124245146101b85780635849cf77146102155780637fd3924714610281578063873f9a6a146102c3578063a123c33e14610310578063a14ea9c014610373578063a7f0b3de1461039c578063b59ca0f6146103c5578063bbfad25614610441578063bc7b6d6214610478578063c07dc890146104ba578063f5bf7e3d146104f8575b600080fd5b34156100ea57600080fd5b610116600480803573ffffffffffffffffffffffffffffffffffffffff16906020019091905050610555565b6040518082815260200191505060405180910390f35b341561013757600080fd5b61014d60048080359060200190919050506106c7565b604051808273ffffffffffffffffffffffffffffffffffffffff1673ffffffffffffffffffffffffffffffffffffffff16815260200191505060405180910390f35b341561019a57600080fd5b6101a2610706565b6040518082815260200191505060405180910390f35b34156101c357600080fd5b6101f8600480803573ffffffffffffffffffffffffffffffffffffffff1690602001909190803590602001909190505061070c565b604051808381526020018281526020019250505060405180910390f35b341561022057600080fd5b61026b600480803573ffffffffffffffffffffffffffffffffffffffff1690602001909190803573ffffffffffffffffffffffffffffffffffffffff1690602001909190505061074f565b6040518082815260200191505060405180910390f35b341561028c57600080fd5b6102c1600480803590602001909190803573ffffffffffffffffffffffffffffffffffffffff169060200190919050506108c2565b005b34156102ce57600080fd5b6102fa600480803573ffffffffffffffffffffffffffffffffffffffff169060200190919050506109e9565b6040518082815260200191505060405180910390f35b341561031b57600080fd5b6103316004808035906020019091905050610abf565b604051808273ffffffffffffffffffffffffffffffffffffffff1673ffffffffffffffffffffffffffffffffffffffff16815260200191505060405180910390f35b341561037e57600080fd5b610386610afe565b6040518082815260200191505060405180910390f35b34156103a757600080fd5b6103af610bd2565b6040518082815260200191505060405180910390f35b34156103d057600080fd5b610424600480803573ffffffffffffffffffffffffffffffffffffffff1690602001909190803573ffffffffffffffffffffffffffffffffffffffff16906020019091908035906020019091905050610bd8565b604051808381526020018281526020019250505060405180910390f35b341561044c57600080fd5b6104626004808035906020019091905050610c1d565b6040518082815260200191505060405180910390f35b341561048357600080fd5b6104b8600480803590602001909190803573ffffffffffffffffffffffffffffffffffffffff16906020019091905050610c3c565b005b34156104c557600080fd5b6104db6004808035906020019091905050610d63565b604051808381526020018281526020019250505060405180910390f35b341561050357600080fd5b610538600480803573ffffffffffffffffffffffffffffffffffffffff16906020019091908035906020019091905050610da3565b604051808381526020018281526020019250505060405180910390f35b600060026000815480929190600101919050555033600080600254815260200190815260200160002060000160006101000a81548173ffffffffffffffffffffffffffffffffffffffff021916908373ffffffffffffffffffffffffffffffffffffffff16021790555081600080600254815260200190815260200160002060010160006101000a81548173ffffffffffffffffffffffffffffffffffffffff021916908373ffffffffffffffffffffffffffffffffffffffff160217905550426000806002548152602001908152602001600020600201819055503373ffffffffffffffffffffffffffffffffffffffff166002547fef8ea3d0ef6bf7f673a09aa675838d76573d86e5a9fc235846ac3f54195d721760405160405180910390a38173ffffffffffffffffffffffffffffffffffffffff166002547fcbae0978f0621ebb4707a96540f8d3a937104526ceef2cdf1cf07b25c5e48cd460405160405180910390a36002549050919050565b600080600083815260200190815260200160002060010160009054906101000a900473ffffffffffffffffffffffffffffffffffffffff169050919050565b60025481565b6000806000806001600254019150600090505b8481101561073e5761073086610555565b50808060010191505061071f565b816002549350935050509250929050565b600060026000815480929190600101919050555082600080600254815260200190815260200160002060000160006101000a81548173ffffffffffffffffffffffffffffffffffffffff021916908373ffffffffffffffffffffffffffffffffffffffff16021790555081600080600254815260200190815260200160002060010160006101000a81548173ffffffffffffffffffffffffffffffffffffffff021916908373ffffffffffffffffffffffffffffffffffffffff160217905550426000806002548152602001908152602001600020600201819055508273ffffffffffffffffffffffffffffffffffffffff166002547fef8ea3d0ef6bf7f673a09aa675838d76573d86e5a9fc235846ac3f54195d721760405160405180910390a38173ffffffffffffffffffffffffffffffffffffffff166002547fcbae0978f0621ebb4707a96540f8d3a937104526ceef2cdf1cf07b25c5e48cd460405160405180910390a3600254905092915050565b813373ffffffffffffffffffffffffffffffffffffffff1660008083815260200190815260200160002060000160009054906101000a900473ffffffffffffffffffffffffffffffffffffffff1673ffffffffffffffffffffffffffffffffffffffff1614151561093257600080fd5b8160008085815260200190815260200160002060000160006101000a81548173ffffffffffffffffffffffffffffffffffffffff021916908373ffffffffffffffffffffffffffffffffffffffff16021790555042600080858152602001908152602001600020600201819055508173ffffffffffffffffffffffffffffffffffffffff16837f4c5d8ccfd4f32dad0c449108334c94e0bada87b1453ad71e79e233545f4c48a660405160405180910390a3505050565b600060026000815480929190600101919050555081600080600254815260200190815260200160002060000160006101000a81548173ffffffffffffffffffffffffffffffffffffffff021916908373ffffffffffffffffffffffffffffffffffffffff160217905550426000806002548152602001908152602001600020600201819055508173ffffffffffffffffffffffffffffffffffffffff166002547fef8ea3d0ef6bf7f673a09aa675838d76573d86e5a9fc235846ac3f54195d721760405160405180910390a36002549050919050565b600080600083815260200190815260200160002060000160009054906101000a900473ffffffffffffffffffffffffffffffffffffffff169050919050565b600060026000815480929190600101919050555033600080600254815260200190815260200160002060000160006101000a81548173ffffffffffffffffffffffffffffffffffffffff021916908373ffffffffffffffffffffffffffffffffffffffff160217905550426000806002548152602001908152602001600020600201819055503373ffffffffffffffffffffffffffffffffffffffff166002547fef8ea3d0ef6bf7f673a09aa675838d76573d86e5a9fc235846ac3f54195d721760405160405180910390a3600254905090565b60015481565b6000806000806001600254019150600090505b84811015610c0b57610bfd878761074f565b508080600101915050610beb565b81600254935093505050935093915050565b6000806000838152602001908152602001600020600201549050919050565b813373ffffffffffffffffffffffffffffffffffffffff1660008083815260200190815260200160002060000160009054906101000a900473ffffffffffffffffffffffffffffffffffffffff1673ffffffffffffffffffffffffffffffffffffffff16141515610cac57600080fd5b8160008085815260200190815260200160002060010160006101000a81548173ffffffffffffffffffffffffffffffffffffffff021916908373ffffffffffffffffffffffffffffffffffffffff16021790555042600080858152602001908152602001600020600201819055508173ffffffffffffffffffffffffffffffffffffffff16837fcbae0978f0621ebb4707a96540f8d3a937104526ceef2cdf1cf07b25c5e48cd460405160405180910390a3505050565b6000806000806001600254019150600090505b84811015610d9457610d86610afe565b508080600101915050610d76565b81600254935093505050915091565b6000806000806001600254019150600090505b84811015610dd557610dc7866109e9565b508080600101915050610db6565b8160025493509350505092509290505600a165627a7a723058203f4116c32fd9c119a2d5cc41a7cf0ae1e1d537e7f3809a611be0061dabcab3f20029",
  "source": "pragma solidity ^0.4.11;\n\n/** @title Decentralized Identification Number (DIN) registry. */\ncontract DINRegistry {\n\n    struct Record {\n        address owner;\n        address resolver;  // Address where product information is stored. \n        uint256 updated;   // Unix timestamp.\n    }\n\n    // DIN => Record\n    mapping (uint256 => Record) records;\n\n    // The first DIN registered.\n    uint256 public genesis;\n\n    // The current DIN.\n    uint256 public index;\n\n    modifier only_owner(uint256 DIN) {\n        require(records[DIN].owner == msg.sender);\n        _;\n    }\n\n    // Logged when the owner of a DIN transfers ownership to a new account.\n    event NewOwner(uint256 indexed DIN, address indexed owner);\n\n    // Logged when the resolver associated with a DIN changes.\n    event NewResolver(uint256 indexed DIN, address indexed resolver);\n\n    // Logged when a new DIN is registered.\n    event NewRegistration(uint256 indexed DIN, address indexed owner);\n\n    /** @dev Constructor.\n      * @param _genesis The first DIN registered.\n      */\n    function DINRegistry(uint256 _genesis) public {\n        genesis = _genesis;\n        index = _genesis;\n\n        // Register the genesis DIN to the account that deploys this contract.\n        records[_genesis].owner = msg.sender;\n        records[_genesis].updated = block.timestamp;\n        NewRegistration(_genesis, msg.sender);\n    }\n\n    // Get the owner of a specified DIN.\n    function owner(uint256 _DIN) public constant returns (address) {\n        return records[_DIN].owner;\n    }\n\n    /**\n     * @dev Transfer ownership of a DIN.\n     * @param _DIN The DIN to transfer.\n     * @param _owner The address of the new owner.\n     */\n    function setOwner(uint256 _DIN, address _owner) public only_owner(_DIN) {\n        records[_DIN].owner = _owner;\n        records[_DIN].updated = block.timestamp;\n        NewOwner(_DIN, _owner);\n    }\n\n    // Get the resolver of a specified DIN.\n    function resolver(uint256 _DIN) public constant returns (address) {\n        return records[_DIN].resolver;\n    }\n\n    /**\n     * @dev Set the resolver of a DIN.\n     * @param _DIN The DIN to update.\n     * @param _resolver The address of the resolver.\n     */\n    function setResolver(uint256 _DIN, address _resolver) public only_owner(_DIN) {\n        records[_DIN].resolver = _resolver;\n        records[_DIN].updated = block.timestamp;\n        NewResolver(_DIN, _resolver);\n    }\n\n    // Get the time a specified DIN record was last updated.\n    function updated(uint256 _DIN) public constant returns (uint256) {\n        return records[_DIN].updated;\n    }\n\n    function selfRegisterDIN() public returns (uint256 DIN) {\n        index++;\n        records[index].owner = msg.sender;\n        records[index].updated = block.timestamp;\n        NewRegistration(index, msg.sender);\n        return index;\n    }\n\n    function selfRegisterDINs(uint256 _amount) public returns (uint256 minDIN, uint256 maxDIN) {\n        uint256 startIndex = index + 1;\n        for (uint i = 0; i < _amount; i++) {\n            selfRegisterDIN();\n        }\n        return (startIndex, index);\n    }\n\n    function selfRegisterDINWithResolver(address _resolver) public returns (uint256 DIN) {\n        index++;\n        records[index].owner = msg.sender;\n        records[index].resolver = _resolver;\n        records[index].updated = block.timestamp;\n        NewRegistration(index, msg.sender);\n        NewResolver(index, _resolver);\n        return index;\n    }\n\n    function selfRegisterDINsWithResolver(address _resolver, uint256 _amount) \n        public \n        returns (uint256 minDIN, uint256 maxDIN) \n    {\n        uint256 startIndex = index + 1;\n        for (uint i = 0; i < _amount; i++) {\n            selfRegisterDINWithResolver(_resolver);\n        }\n        return (startIndex, index);\n    }\n\n    /**\n     * @dev Register a new DIN.\n     * @param _owner The account that will own the DIN.\n     */\n    function registerDIN(address _owner) public returns (uint256 DIN) {\n        index++;\n        records[index].owner = _owner;\n        records[index].updated = block.timestamp;\n        NewRegistration(index, _owner);\n        return index;\n    }\n\n    function registerDINs(address _owner, uint256 _amount) \n        public \n        returns (uint256 minDIN, uint256 maxDIN) \n    {\n        uint256 startIndex = index + 1;\n        for (uint i = 0; i < _amount; i++) {\n            registerDIN(_owner);\n        }\n        return (startIndex, index);\n    }\n\n    /**\n     * @dev Register a new DIN and set the resolver.\n     * @param _owner The account that will own the DIN.\n     * @param _resolver The address of the resolver.\n     */\n    function registerDINWithResolver(address _owner, address _resolver) public returns (uint256 DIN) {\n        index++;\n        records[index].owner = _owner;\n        records[index].resolver = _resolver;\n        records[index].updated = block.timestamp;\n        NewRegistration(index, _owner);\n        NewResolver(index, _resolver);\n        return index;\n    }\n\n    function registerDINsWithResolver(address _owner, address _resolver, uint256 _amount) \n        public \n        returns (uint256 minDIN, uint256 maxDIN)\n    {\n        uint256 startIndex = index + 1;\n        for (uint i = 0; i < _amount; i++) {\n            registerDINWithResolver(_owner, _resolver);\n        }\n        return (startIndex, index);\n    }\n\n}",
  "sourcePath": "/Users/richardmcateer/Developer/Ethereum/kiosk/contracts/contracts/core/DINRegistry.sol",
  "compiler": {
    "name": "solc",
    "version": "0.4.18+commit.9cf6e910.Emscripten.clang"
  },
  "schemaVersion": "1.0.1",
  "updatedAt": "2017-12-20T01:02:08.953Z"
}