{
  "contractName": "DINRegistrar",
  "abi": [
    {
      "constant": false,
      "inputs": [],
      "name": "registerDIN",
      "outputs": [
        {
          "name": "DIN",
          "type": "uint256"
        }
      ],
      "payable": false,
      "stateMutability": "nonpayable",
      "type": "function"
    },
    {
      "constant": true,
      "inputs": [],
      "name": "index",
      "outputs": [
        {
          "name": "",
          "type": "uint256"
        }
      ],
      "payable": false,
      "stateMutability": "view",
      "type": "function"
    },
    {
      "constant": false,
      "inputs": [
        {
          "name": "owner",
          "type": "address"
        },
        {
          "name": "quantity",
          "type": "uint256"
        }
      ],
      "name": "registerDINsFor",
      "outputs": [],
      "payable": false,
      "stateMutability": "nonpayable",
      "type": "function"
    },
    {
      "constant": false,
      "inputs": [
        {
          "name": "quantity",
          "type": "uint256"
        }
      ],
      "name": "registerDINs",
      "outputs": [],
      "payable": false,
      "stateMutability": "nonpayable",
      "type": "function"
    },
    {
      "constant": false,
      "inputs": [
        {
          "name": "owner",
          "type": "address"
        },
        {
          "name": "resolver",
          "type": "address"
        }
      ],
      "name": "registerDINWithResolver",
      "outputs": [
        {
          "name": "DIN",
          "type": "uint256"
        }
      ],
      "payable": false,
      "stateMutability": "nonpayable",
      "type": "function"
    },
    {
      "constant": false,
      "inputs": [
        {
          "name": "owner",
          "type": "address"
        },
        {
          "name": "resolver",
          "type": "address"
        },
        {
          "name": "quantity",
          "type": "uint256"
        }
      ],
      "name": "registerDINsWithResolver",
      "outputs": [],
      "payable": false,
      "stateMutability": "nonpayable",
      "type": "function"
    },
    {
      "constant": false,
      "inputs": [
        {
          "name": "owner",
          "type": "address"
        }
      ],
      "name": "registerDINFor",
      "outputs": [
        {
          "name": "DIN",
          "type": "uint256"
        }
      ],
      "payable": false,
      "stateMutability": "nonpayable",
      "type": "function"
    },
    {
      "inputs": [
        {
          "name": "_registry",
          "type": "address"
        },
        {
          "name": "_genesis",
          "type": "uint256"
        }
      ],
      "payable": false,
      "stateMutability": "nonpayable",
      "type": "constructor"
    }
  ],
  "bytecode": "0x6060604052341561000f57600080fd5b6040516040806106ad83398101604052808051906020019091908051906020019091905050816000806101000a81548173ffffffffffffffffffffffffffffffffffffffff021916908373ffffffffffffffffffffffffffffffffffffffff1602179055508060018190555050506106218061008c6000396000f300606060405260043610610083576000357c0100000000000000000000000000000000000000000000000000000000900463ffffffff1680631196245b146100885780632986c0e5146100b15780632e214c86146100da578063516ed6221461011c5780635849cf771461013f578063b59ca0f6146101ab578063fe6333881461020c575b600080fd5b341561009357600080fd5b61009b610259565b6040518082815260200191505060405180910390f35b34156100bc57600080fd5b6100c461034e565b6040518082815260200191505060405180910390f35b34156100e557600080fd5b61011a600480803573ffffffffffffffffffffffffffffffffffffffff16906020019091908035906020019091905050610354565b005b341561012757600080fd5b61013d600480803590602001909190505061037e565b005b341561014a57600080fd5b610195600480803573ffffffffffffffffffffffffffffffffffffffff1690602001909190803573ffffffffffffffffffffffffffffffffffffffff169060200190919050506103a6565b6040518082815260200191505060405180910390f35b34156101b657600080fd5b61020a600480803573ffffffffffffffffffffffffffffffffffffffff1690602001909190803573ffffffffffffffffffffffffffffffffffffffff169060200190919080359060200190919050506104d2565b005b341561021757600080fd5b610243600480803573ffffffffffffffffffffffffffffffffffffffff169060200190919050506104fe565b6040518082815260200191505060405180910390f35b60006001600081548092919060010191905055506000809054906101000a900473ffffffffffffffffffffffffffffffffffffffff1673ffffffffffffffffffffffffffffffffffffffff1663dbbdf083600154336040518363ffffffff167c0100000000000000000000000000000000000000000000000000000000028152600401808381526020018273ffffffffffffffffffffffffffffffffffffffff1673ffffffffffffffffffffffffffffffffffffffff16815260200192505050600060405180830381600087803b151561033257600080fd5b6102c65a03f1151561034357600080fd5b505050600154905090565b60015481565b60008090505b818110156103795761036b836104fe565b50808060010191505061035a565b505050565b60008090505b818110156103a257610394610259565b508080600101915050610384565b5050565b60006001600081548092919060010191905055506000809054906101000a900473ffffffffffffffffffffffffffffffffffffffff1673ffffffffffffffffffffffffffffffffffffffff16636d01ff7160015485856040518463ffffffff167c0100000000000000000000000000000000000000000000000000000000028152600401808481526020018373ffffffffffffffffffffffffffffffffffffffff1673ffffffffffffffffffffffffffffffffffffffff1681526020018273ffffffffffffffffffffffffffffffffffffffff1673ffffffffffffffffffffffffffffffffffffffff1681526020019350505050600060405180830381600087803b15156104b357600080fd5b6102c65a03f115156104c457600080fd5b505050600154905092915050565b60008090505b818110156104f8576104ea84846103a6565b5080806001019150506104d8565b50505050565b60006001600081548092919060010191905055506000809054906101000a900473ffffffffffffffffffffffffffffffffffffffff1673ffffffffffffffffffffffffffffffffffffffff1663dbbdf083600154846040518363ffffffff167c0100000000000000000000000000000000000000000000000000000000028152600401808381526020018273ffffffffffffffffffffffffffffffffffffffff1673ffffffffffffffffffffffffffffffffffffffff16815260200192505050600060405180830381600087803b15156105d757600080fd5b6102c65a03f115156105e857600080fd5b50505060015490509190505600a165627a7a7230582070d42b7793d950e3be0e9b5202e4c606b31ced60a3223de876d8413c48dbd0330029",
  "source": "pragma solidity ^0.4.11;\n\nimport \"./DINRegistry.sol\";\n\n/** @title Decentralized Identification Number (DIN) registrar. Registers new DINs */\ncontract DINRegistrar {\n\n    // The DINRegistry contract\n    DINRegistry registry;\n\n    // The current DIN index. DINs are registered sequentially.\n    uint256 public index;\n\n    /** @dev Constructor.\n      * @param _registry The DINRegistry contract.\n      */\n    function DINRegistrar(DINRegistry _registry, uint256 _genesis) public {\n        registry = _registry;\n\n        // Set the current index to the genesis DIN.\n        index = _genesis;\n    }\n\n    /**\n     * @dev Register a new DIN.\n     * @return DIN The newly registered DIN.\n     */\n    function registerDIN() public returns (uint256 DIN) {\n        index++;\n        registry.register(index, msg.sender);\n        return index;\n    }\n\n    /**\n     * @dev Register multiple new DINs.\n     * @param quantity The amount of DINs to register.\n     */\n    function registerDINs(uint256 quantity) public {\n        for (uint i = 0; i < quantity; i++) {\n            registerDIN();\n        }\n    }\n\n    /**\n     * @dev Register a new DIN to a different account.\n     * @param owner The account that will own the new DIN.\n     * @return DIN The newly registered DIN.\n     */\n    function registerDINFor(address owner) returns (uint256 DIN) {\n        index++;\n        registry.register(index, owner);\n        return index;\n    }\n\n    /**\n     * @dev Register multiple new DINs to a different account.\n     * @param owner The account that will own the new DINs.\n     * @param quantity The amount of DINs to register.\n     */\n    function registerDINsFor(address owner, uint256 quantity) public {\n        for (uint i = 0; i < quantity; i++) {\n            registerDINFor(owner);\n        }\n    }\n\n    /**\n     * @dev Register a new DIN and set its resolver.\n     * @param owner The account that will own the new DIN.\n     * @param resolver The address of the resolver.\n     * @return DIN The newly registered DIN.\n     */\n    function registerDINWithResolver(address owner, address resolver) public returns (uint256 DIN) {\n        index++;\n        registry.registerWithResolver(index, owner, resolver);\n        return index;\n    }\n\n    /**\n     * @dev Register multiple new DINs and set their resolvers.\n     * @param owner The account that will own the new DINs.\n     * @param resolver The address of the resolver.\n     * @param quantity The amount of DINs to register.\n     */\n    function registerDINsWithResolver(address owner, address resolver, uint256 quantity) public {\n      for (uint i = 0; i < quantity; i++) {\n            registerDINWithResolver(owner, resolver);\n        }\n    }\n\n}",
  "sourcePath": "/Users/richardmcateer/Developer/Ethereum/kiosk/contracts/contracts/DINRegistrar.sol",
  "compiler": {
    "name": "solc",
    "version": "0.4.18+commit.9cf6e910.Emscripten.clang"
  },
  "schemaVersion": "1.0.1",
  "updatedAt": "2017-12-09T04:08:07.920Z"
}