{
  "contractName": "DINRegistrar",
  "abi": [
    {
      "constant": false,
      "inputs": [],
      "name": "registerDIN",
      "outputs": [
        {
          "name": "DIN",
          "type": "uint256"
        }
      ],
      "payable": false,
      "stateMutability": "nonpayable",
      "type": "function"
    },
    {
      "constant": true,
      "inputs": [],
      "name": "index",
      "outputs": [
        {
          "name": "",
          "type": "uint256"
        }
      ],
      "payable": false,
      "stateMutability": "view",
      "type": "function"
    },
    {
      "constant": false,
      "inputs": [
        {
          "name": "quantity",
          "type": "uint256"
        }
      ],
      "name": "registerDINs",
      "outputs": [],
      "payable": false,
      "stateMutability": "nonpayable",
      "type": "function"
    },
    {
      "inputs": [
        {
          "name": "_registry",
          "type": "address"
        },
        {
          "name": "_genesis",
          "type": "uint256"
        }
      ],
      "payable": false,
      "stateMutability": "nonpayable",
      "type": "constructor"
    }
  ],
  "bytecode": "0x6060604052341561000f57600080fd5b6040516040806102ac83398101604052808051906020019091908051906020019091905050816000806101000a81548173ffffffffffffffffffffffffffffffffffffffff021916908373ffffffffffffffffffffffffffffffffffffffff1602179055508060018190555050506102208061008c6000396000f300606060405260043610610057576000357c0100000000000000000000000000000000000000000000000000000000900463ffffffff1680631196245b1461005c5780632986c0e514610085578063516ed622146100ae575b600080fd5b341561006757600080fd5b61006f6100d1565b6040518082815260200191505060405180910390f35b341561009057600080fd5b6100986101c6565b6040518082815260200191505060405180910390f35b34156100b957600080fd5b6100cf60048080359060200190919050506101cc565b005b60006001600081548092919060010191905055506000809054906101000a900473ffffffffffffffffffffffffffffffffffffffff1673ffffffffffffffffffffffffffffffffffffffff1663dbbdf083600154336040518363ffffffff167c0100000000000000000000000000000000000000000000000000000000028152600401808381526020018273ffffffffffffffffffffffffffffffffffffffff1673ffffffffffffffffffffffffffffffffffffffff16815260200192505050600060405180830381600087803b15156101aa57600080fd5b6102c65a03f115156101bb57600080fd5b505050600154905090565b60015481565b60008090505b818110156101f0576101e26100d1565b5080806001019150506101d2565b50505600a165627a7a7230582044df6af8a99637824142b174980598d7dad0b136a0ad632f45e235d10d4ddc670029",
  "source": "pragma solidity ^0.4.11;\n\nimport \"./DINRegistry.sol\";\n\n/** @title Decentralized Identification Number (DIN) registrar. Registers new DINs */\ncontract DINRegistrar {\n\n    // The DINRegistry contract\n    DINRegistry registry;\n\n    // The current DIN index. DINs are registered sequentially.\n    uint256 public index;\n\n    /** @dev Constructor.\n      * @param _registry The DINRegistry contract.\n      */\n    function DINRegistrar(DINRegistry _registry, uint256 _genesis) {\n        registry = _registry;\n\n        // Set the current index to the genesis DIN.\n        index = _genesis;\n    }\n\n    /**\n     * @dev Register a new DIN.\n     * @return DIN The newly registered DIN.\n     */\n    function registerDIN() returns (uint256 DIN) {\n        index++;\n        registry.register(index, msg.sender);\n        return index;\n    }\n\n    /**\n     * @dev Register multiple new DINs.\n     * @param quantity The amount of DINs to register.\n     */\n    function registerDINs(uint256 quantity) {\n        for (uint i = 0; i < quantity; i++) {\n            registerDIN();\n        }\n    }\n\n}",
  "sourcePath": "/Users/richardmcateer/Developer/Ethereum/kiosk/contracts/contracts/DINRegistrar.sol",
  "compiler": {
    "name": "solc",
    "version": "0.4.18+commit.9cf6e910.Emscripten.clang"
  },
  "schemaVersion": "1.0.1",
  "updatedAt": "2017-11-26T04:34:28.908Z"
}