{
  "contractName": "DINRegistry",
  "abi": [
    {
      "constant": false,
      "inputs": [
        {
          "name": "_resolver",
          "type": "address"
        }
      ],
      "name": "selfRegisterDINWithResolver",
      "outputs": [
        {
          "name": "_DIN",
          "type": "uint256"
        }
      ],
      "payable": false,
      "stateMutability": "nonpayable",
      "type": "function"
    },
    {
      "constant": true,
      "inputs": [
        {
          "name": "_DIN",
          "type": "uint256"
        }
      ],
      "name": "resolver",
      "outputs": [
        {
          "name": "",
          "type": "address"
        }
      ],
      "payable": false,
      "stateMutability": "view",
      "type": "function"
    },
    {
      "constant": true,
      "inputs": [],
      "name": "index",
      "outputs": [
        {
          "name": "",
          "type": "uint256"
        }
      ],
      "payable": false,
      "stateMutability": "view",
      "type": "function"
    },
    {
      "constant": false,
      "inputs": [
        {
          "name": "_owner",
          "type": "address"
        },
        {
          "name": "_resolver",
          "type": "address"
        }
      ],
      "name": "registerDINWithResolver",
      "outputs": [
        {
          "name": "_DIN",
          "type": "uint256"
        }
      ],
      "payable": false,
      "stateMutability": "nonpayable",
      "type": "function"
    },
    {
      "constant": false,
      "inputs": [
        {
          "name": "_DIN",
          "type": "uint256"
        },
        {
          "name": "_owner",
          "type": "address"
        }
      ],
      "name": "setOwner",
      "outputs": [],
      "payable": false,
      "stateMutability": "nonpayable",
      "type": "function"
    },
    {
      "constant": false,
      "inputs": [
        {
          "name": "_owner",
          "type": "address"
        }
      ],
      "name": "registerDIN",
      "outputs": [
        {
          "name": "_DIN",
          "type": "uint256"
        }
      ],
      "payable": false,
      "stateMutability": "nonpayable",
      "type": "function"
    },
    {
      "constant": true,
      "inputs": [
        {
          "name": "_DIN",
          "type": "uint256"
        }
      ],
      "name": "owner",
      "outputs": [
        {
          "name": "",
          "type": "address"
        }
      ],
      "payable": false,
      "stateMutability": "view",
      "type": "function"
    },
    {
      "constant": false,
      "inputs": [],
      "name": "selfRegisterDIN",
      "outputs": [
        {
          "name": "_DIN",
          "type": "uint256"
        }
      ],
      "payable": false,
      "stateMutability": "nonpayable",
      "type": "function"
    },
    {
      "constant": true,
      "inputs": [],
      "name": "genesis",
      "outputs": [
        {
          "name": "",
          "type": "uint256"
        }
      ],
      "payable": false,
      "stateMutability": "view",
      "type": "function"
    },
    {
      "constant": true,
      "inputs": [
        {
          "name": "_DIN",
          "type": "uint256"
        }
      ],
      "name": "updated",
      "outputs": [
        {
          "name": "_timestamp",
          "type": "uint256"
        }
      ],
      "payable": false,
      "stateMutability": "view",
      "type": "function"
    },
    {
      "constant": false,
      "inputs": [
        {
          "name": "_DIN",
          "type": "uint256"
        },
        {
          "name": "_resolver",
          "type": "address"
        }
      ],
      "name": "setResolver",
      "outputs": [],
      "payable": false,
      "stateMutability": "nonpayable",
      "type": "function"
    },
    {
      "inputs": [
        {
          "name": "_genesis",
          "type": "uint256"
        }
      ],
      "payable": false,
      "stateMutability": "nonpayable",
      "type": "constructor"
    },
    {
      "anonymous": false,
      "inputs": [
        {
          "indexed": true,
          "name": "DIN",
          "type": "uint256"
        },
        {
          "indexed": true,
          "name": "owner",
          "type": "address"
        }
      ],
      "name": "NewOwner",
      "type": "event"
    },
    {
      "anonymous": false,
      "inputs": [
        {
          "indexed": true,
          "name": "DIN",
          "type": "uint256"
        },
        {
          "indexed": true,
          "name": "resolver",
          "type": "address"
        }
      ],
      "name": "NewResolver",
      "type": "event"
    },
    {
      "anonymous": false,
      "inputs": [
        {
          "indexed": true,
          "name": "DIN",
          "type": "uint256"
        },
        {
          "indexed": true,
          "name": "owner",
          "type": "address"
        }
      ],
      "name": "NewRegistration",
      "type": "event"
    }
  ],
  "bytecode": "0x6060604052341561000f57600080fd5b604051602080610a3f8339810160405280805190602001909190505080600181905550806002819055503360008083815260200190815260200160002060000160006101000a81548173ffffffffffffffffffffffffffffffffffffffff021916908373ffffffffffffffffffffffffffffffffffffffff16021790555042600080838152602001908152602001600020600201819055503373ffffffffffffffffffffffffffffffffffffffff16817fef8ea3d0ef6bf7f673a09aa675838d76573d86e5a9fc235846ac3f54195d721760405160405180910390a350610944806100fb6000396000f3006060604052600436106100ae576000357c0100000000000000000000000000000000000000000000000000000000900463ffffffff168062e29488146100b3578063108eaa4e146101005780632986c0e5146101635780635849cf771461018c5780637fd39247146101f8578063873f9a6a1461023a578063a123c33e14610287578063a14ea9c0146102ea578063a7f0b3de14610313578063bbfad2561461033c578063bc7b6d6214610373575b600080fd5b34156100be57600080fd5b6100ea600480803573ffffffffffffffffffffffffffffffffffffffff169060200190919050506103b5565b6040518082815260200191505060405180910390f35b341561010b57600080fd5b61012160048080359060200190919050506103c8565b604051808273ffffffffffffffffffffffffffffffffffffffff1673ffffffffffffffffffffffffffffffffffffffff16815260200191505060405180910390f35b341561016e57600080fd5b610176610407565b6040518082815260200191505060405180910390f35b341561019757600080fd5b6101e2600480803573ffffffffffffffffffffffffffffffffffffffff1690602001909190803573ffffffffffffffffffffffffffffffffffffffff1690602001909190505061040d565b6040518082815260200191505060405180910390f35b341561020357600080fd5b610238600480803590602001909190803573ffffffffffffffffffffffffffffffffffffffff16906020019091905050610580565b005b341561024557600080fd5b610271600480803573ffffffffffffffffffffffffffffffffffffffff169060200190919050506106a7565b6040518082815260200191505060405180910390f35b341561029257600080fd5b6102a8600480803590602001909190505061077d565b604051808273ffffffffffffffffffffffffffffffffffffffff1673ffffffffffffffffffffffffffffffffffffffff16815260200191505060405180910390f35b34156102f557600080fd5b6102fd6107bc565b6040518082815260200191505060405180910390f35b341561031e57600080fd5b6103266107cc565b6040518082815260200191505060405180910390f35b341561034757600080fd5b61035d60048080359060200190919050506107d2565b6040518082815260200191505060405180910390f35b341561037e57600080fd5b6103b3600480803590602001909190803573ffffffffffffffffffffffffffffffffffffffff169060200190919050506107f1565b005b60006103c1338361040d565b9050919050565b600080600083815260200190815260200160002060010160009054906101000a900473ffffffffffffffffffffffffffffffffffffffff169050919050565b60025481565b600060026000815480929190600101919050555082600080600254815260200190815260200160002060000160006101000a81548173ffffffffffffffffffffffffffffffffffffffff021916908373ffffffffffffffffffffffffffffffffffffffff16021790555081600080600254815260200190815260200160002060010160006101000a81548173ffffffffffffffffffffffffffffffffffffffff021916908373ffffffffffffffffffffffffffffffffffffffff160217905550426000806002548152602001908152602001600020600201819055508273ffffffffffffffffffffffffffffffffffffffff166002547fef8ea3d0ef6bf7f673a09aa675838d76573d86e5a9fc235846ac3f54195d721760405160405180910390a38173ffffffffffffffffffffffffffffffffffffffff166002547fcbae0978f0621ebb4707a96540f8d3a937104526ceef2cdf1cf07b25c5e48cd460405160405180910390a3600254905092915050565b813373ffffffffffffffffffffffffffffffffffffffff1660008083815260200190815260200160002060000160009054906101000a900473ffffffffffffffffffffffffffffffffffffffff1673ffffffffffffffffffffffffffffffffffffffff161415156105f057600080fd5b8160008085815260200190815260200160002060000160006101000a81548173ffffffffffffffffffffffffffffffffffffffff021916908373ffffffffffffffffffffffffffffffffffffffff16021790555042600080858152602001908152602001600020600201819055508173ffffffffffffffffffffffffffffffffffffffff16837f4c5d8ccfd4f32dad0c449108334c94e0bada87b1453ad71e79e233545f4c48a660405160405180910390a3505050565b600060026000815480929190600101919050555081600080600254815260200190815260200160002060000160006101000a81548173ffffffffffffffffffffffffffffffffffffffff021916908373ffffffffffffffffffffffffffffffffffffffff160217905550426000806002548152602001908152602001600020600201819055508173ffffffffffffffffffffffffffffffffffffffff166002547fef8ea3d0ef6bf7f673a09aa675838d76573d86e5a9fc235846ac3f54195d721760405160405180910390a36002549050919050565b600080600083815260200190815260200160002060000160009054906101000a900473ffffffffffffffffffffffffffffffffffffffff169050919050565b60006107c7336106a7565b905090565b60015481565b6000806000838152602001908152602001600020600201549050919050565b813373ffffffffffffffffffffffffffffffffffffffff1660008083815260200190815260200160002060000160009054906101000a900473ffffffffffffffffffffffffffffffffffffffff1673ffffffffffffffffffffffffffffffffffffffff1614151561086157600080fd5b8160008085815260200190815260200160002060010160006101000a81548173ffffffffffffffffffffffffffffffffffffffff021916908373ffffffffffffffffffffffffffffffffffffffff16021790555042600080858152602001908152602001600020600201819055508173ffffffffffffffffffffffffffffffffffffffff16837fcbae0978f0621ebb4707a96540f8d3a937104526ceef2cdf1cf07b25c5e48cd460405160405180910390a35050505600a165627a7a72305820a5def991782d433d79bdf66bdecd38b2c80cbcf1e7141c7b777e162f620a1a9d0029",
  "source": "pragma solidity ^0.4.17;\n\n/** @title Decentralized Identification Number (DIN) registry. */\ncontract DINRegistry {\n\n    struct Record {\n        address owner;\n        address resolver;  // Address of the resolver contract, which can be used to find product information. \n        uint256 updated;   // Last updated time (Unix timestamp).\n    }\n\n    // DIN => Record\n    mapping (uint256 => Record) records;\n\n    // The first DIN registered.\n    uint256 public genesis;\n\n    // The current DIN.\n    uint256 public index;\n\n    modifier only_owner(uint256 DIN) {\n        require(records[DIN].owner == msg.sender);\n        _;\n    }\n\n    // Log transfers of ownership.\n    event NewOwner(uint256 indexed DIN, address indexed owner);\n\n    // Log when new resolvers are set.\n    event NewResolver(uint256 indexed DIN, address indexed resolver);\n\n    // Log new registrations.\n    event NewRegistration(uint256 indexed DIN, address indexed owner);\n\n    /** @dev Constructor.\n      * @param _genesis The first DIN registered.\n      */\n    function DINRegistry(uint256 _genesis) public {\n        genesis = _genesis;\n        index = _genesis;\n\n        // Register the genesis DIN to the account that deploys this contract.\n        records[_genesis].owner = msg.sender;\n        records[_genesis].updated = block.timestamp;\n        NewRegistration(_genesis, msg.sender);\n    }\n\n    /**\n     * @dev Get the owner of a specific DIN.\n     */\n    function owner(uint256 _DIN) public view returns (address) {\n        return records[_DIN].owner;\n    }\n\n    /**\n     * @dev Transfer ownership of a DIN.\n     * @param _DIN The DIN to transfer.\n     * @param _owner Address of the new owner.\n     */\n    function setOwner(uint256 _DIN, address _owner) public only_owner(_DIN) {\n        records[_DIN].owner = _owner;\n        records[_DIN].updated = block.timestamp;\n        NewOwner(_DIN, _owner);\n    }\n\n    /**\n     * @dev Get the address of the resolver contract for a specific DIN.\n     */\n    function resolver(uint256 _DIN) public view returns (address) {\n        return records[_DIN].resolver;\n    }\n\n    /**\n     * @dev Set the resolver of a DIN.\n     * @param _DIN The DIN to update.\n     * @param _resolver Address of the resolver.\n     */\n    function setResolver(uint256 _DIN, address _resolver) public only_owner(_DIN) {\n        records[_DIN].resolver = _resolver;\n        records[_DIN].updated = block.timestamp;\n        NewResolver(_DIN, _resolver);\n    }\n\n    /**\n     * @dev Get the last time a DIN was updated with a new owner or resolver.\n     * @param _DIN The DIN to query.\n     * @return _timestamp Last updated time (Unix timestamp).\n     */\n    function updated(uint256 _DIN) public view returns (uint256 _timestamp) {\n        return records[_DIN].updated;\n    }\n\n    /**\n     * @dev Self-register a new DIN.\n     * @return _DIN The DIN that is registered.\n     */\n    function selfRegisterDIN() public returns (uint256 _DIN) {\n        return registerDIN(msg.sender);\n    }\n\n    /**\n     * @dev Self-register a new DIN and set the resolver.\n     * @param _resolver Address of the resolver.\n     * @return _DIN The DIN that is registered.\n     */\n    function selfRegisterDINWithResolver(address _resolver) public returns (uint256 _DIN) {\n        return registerDINWithResolver(msg.sender, _resolver);\n    }\n\n    /**\n     * @dev Register a new DIN for a specific address.\n     * @param _owner Account that will own the DIN.\n     * @return _DIN The DIN that is registered.\n     */\n    function registerDIN(address _owner) public returns (uint256 _DIN) {\n        index++;\n        records[index].owner = _owner;\n        records[index].updated = block.timestamp;\n        NewRegistration(index, _owner);\n        return index;\n    }\n\n    /**\n     * @dev Register a new DIN and set the resolver.\n     * @param _owner Account that will own the DIN.\n     * @param _resolver Address of the resolver.\n     * @return _DIN The DIN that is registered.\n     */\n    function registerDINWithResolver(address _owner, address _resolver) public returns (uint256 _DIN) {\n        index++;\n        records[index].owner = _owner;\n        records[index].resolver = _resolver;\n        records[index].updated = block.timestamp;\n        NewRegistration(index, _owner);\n        NewResolver(index, _resolver);\n        return index;\n    }\n\n}",
  "sourcePath": "/Users/richardmcateer/Developer/Ethereum/kiosk/contracts/contracts/core/DINRegistry.sol",
  "compiler": {
    "name": "solc",
    "version": "0.4.18+commit.9cf6e910.Emscripten.clang"
  },
  "schemaVersion": "1.0.1",
  "updatedAt": "2018-01-23T17:06:03.912Z"
}