{
  "contractName": "DINRegistrar",
  "abi": [
    {
      "constant": false,
      "inputs": [],
      "name": "registerDIN",
      "outputs": [
        {
          "name": "DIN",
          "type": "uint256"
        }
      ],
      "payable": false,
      "stateMutability": "nonpayable",
      "type": "function"
    },
    {
      "constant": true,
      "inputs": [],
      "name": "index",
      "outputs": [
        {
          "name": "",
          "type": "uint256"
        }
      ],
      "payable": false,
      "stateMutability": "view",
      "type": "function"
    },
    {
      "constant": false,
      "inputs": [
        {
          "name": "quantity",
          "type": "uint256"
        }
      ],
      "name": "registerDINs",
      "outputs": [],
      "payable": false,
      "stateMutability": "nonpayable",
      "type": "function"
    },
    {
      "constant": true,
      "inputs": [],
      "name": "MAX_QUANTITY",
      "outputs": [
        {
          "name": "",
          "type": "uint256"
        }
      ],
      "payable": false,
      "stateMutability": "view",
      "type": "function"
    },
    {
      "inputs": [
        {
          "name": "_registry",
          "type": "address"
        },
        {
          "name": "_genesis",
          "type": "uint256"
        }
      ],
      "payable": false,
      "stateMutability": "nonpayable",
      "type": "constructor"
    }
  ],
  "bytecode": "0x6060604052600a600255341561001457600080fd5b6040516040806102fd83398101604052808051906020019091908051906020019091905050816000806101000a81548173ffffffffffffffffffffffffffffffffffffffff021916908373ffffffffffffffffffffffffffffffffffffffff16021790555080600181905550505061026c806100916000396000f300606060405260043610610062576000357c0100000000000000000000000000000000000000000000000000000000900463ffffffff1680631196245b146100675780632986c0e514610090578063516ed622146100b9578063e41ee46a146100dc575b600080fd5b341561007257600080fd5b61007a610105565b6040518082815260200191505060405180910390f35b341561009b57600080fd5b6100a36101fa565b6040518082815260200191505060405180910390f35b34156100c457600080fd5b6100da6004808035906020019091905050610200565b005b34156100e757600080fd5b6100ef61023a565b6040518082815260200191505060405180910390f35b60006001600081548092919060010191905055506000809054906101000a900473ffffffffffffffffffffffffffffffffffffffff1673ffffffffffffffffffffffffffffffffffffffff1663dbbdf083600154336040518363ffffffff167c0100000000000000000000000000000000000000000000000000000000028152600401808381526020018273ffffffffffffffffffffffffffffffffffffffff1673ffffffffffffffffffffffffffffffffffffffff16815260200192505050600060405180830381600087803b15156101de57600080fd5b6102c65a03f115156101ef57600080fd5b505050600154905090565b60015481565b6000600254821115151561021357600080fd5b600090505b8181101561023657610228610105565b508080600101915050610218565b5050565b600254815600a165627a7a7230582001f1988589bf821381c10750759eb968f66d0ccf2061b3c95e750ee247daa2d40029",
  "source": "pragma solidity ^0.4.11;\n\nimport \"./DINRegistry.sol\";\n\n/** @title Decentralized Identification Number (DIN) registrar. Registers new DINs */\ncontract DINRegistrar {\n\n    // The DINRegistry contract\n    DINRegistry registry;\n\n    // The current DIN index. DINs are registered sequentially.\n    uint256 public index;\n\n    // The maximum amount of DINs that can be registered in a single transaction.\n    uint256 public MAX_QUANTITY = 10;\n\n    /** @dev Constructor.\n      * @param _registry The DINRegistry contract.\n      */\n    function DINRegistrar(DINRegistry _registry, uint256 _genesis) {\n        registry = _registry;\n\n        // Set the current index to the genesis DIN.\n        index = _genesis;\n    }\n\n    /**\n     * @dev Register a new DIN.\n     * @return DIN The newly registered DIN.\n     */\n    function registerDIN() returns (uint256 DIN) {\n        index++;\n        registry.register(index, msg.sender);\n        return index;\n    }\n\n    /**\n     * @dev Register multiple new DINs.\n     * @param quantity The amount of DINs to register.\n     */\n    function registerDINs(uint256 quantity) {\n        require(quantity <= MAX_QUANTITY);\n\n        for (uint i = 0; i < quantity; i++) {\n            registerDIN();\n        }\n    }\n\n}",
  "sourcePath": "/Users/richardmcateer/Developer/Ethereum/kiosk/contracts/contracts/DINRegistrar.sol",
  "compiler": {
    "name": "solc",
    "version": "0.4.18+commit.9cf6e910.Emscripten.clang"
  },
  "schemaVersion": "1.0.1",
  "updatedAt": "2017-11-19T23:01:33.554Z"
}