{
  "contractName": "DINRegistry",
  "abi": [
    {
      "constant": true,
      "inputs": [
        {
          "name": "_DIN",
          "type": "uint256"
        }
      ],
      "name": "resolver",
      "outputs": [
        {
          "name": "",
          "type": "address"
        }
      ],
      "payable": false,
      "stateMutability": "view",
      "type": "function"
    },
    {
      "constant": true,
      "inputs": [],
      "name": "registrar",
      "outputs": [
        {
          "name": "",
          "type": "address"
        }
      ],
      "payable": false,
      "stateMutability": "view",
      "type": "function"
    },
    {
      "constant": false,
      "inputs": [
        {
          "name": "_DIN",
          "type": "uint256"
        },
        {
          "name": "_owner",
          "type": "address"
        },
        {
          "name": "_resolver",
          "type": "address"
        }
      ],
      "name": "registerWithResolver",
      "outputs": [],
      "payable": false,
      "stateMutability": "nonpayable",
      "type": "function"
    },
    {
      "constant": false,
      "inputs": [
        {
          "name": "_DIN",
          "type": "uint256"
        },
        {
          "name": "_owner",
          "type": "address"
        }
      ],
      "name": "setOwner",
      "outputs": [],
      "payable": false,
      "stateMutability": "nonpayable",
      "type": "function"
    },
    {
      "constant": true,
      "inputs": [
        {
          "name": "_DIN",
          "type": "uint256"
        }
      ],
      "name": "owner",
      "outputs": [
        {
          "name": "",
          "type": "address"
        }
      ],
      "payable": false,
      "stateMutability": "view",
      "type": "function"
    },
    {
      "constant": true,
      "inputs": [],
      "name": "genesis",
      "outputs": [
        {
          "name": "",
          "type": "uint256"
        }
      ],
      "payable": false,
      "stateMutability": "view",
      "type": "function"
    },
    {
      "constant": true,
      "inputs": [
        {
          "name": "_DIN",
          "type": "uint256"
        }
      ],
      "name": "updated",
      "outputs": [
        {
          "name": "",
          "type": "uint256"
        }
      ],
      "payable": false,
      "stateMutability": "view",
      "type": "function"
    },
    {
      "constant": false,
      "inputs": [
        {
          "name": "_DIN",
          "type": "uint256"
        },
        {
          "name": "_resolver",
          "type": "address"
        }
      ],
      "name": "setResolver",
      "outputs": [],
      "payable": false,
      "stateMutability": "nonpayable",
      "type": "function"
    },
    {
      "constant": false,
      "inputs": [
        {
          "name": "_DIN",
          "type": "uint256"
        },
        {
          "name": "_owner",
          "type": "address"
        }
      ],
      "name": "register",
      "outputs": [],
      "payable": false,
      "stateMutability": "nonpayable",
      "type": "function"
    },
    {
      "constant": false,
      "inputs": [
        {
          "name": "_registrar",
          "type": "address"
        }
      ],
      "name": "setRegistrar",
      "outputs": [],
      "payable": false,
      "stateMutability": "nonpayable",
      "type": "function"
    },
    {
      "inputs": [
        {
          "name": "_genesis",
          "type": "uint256"
        }
      ],
      "payable": false,
      "stateMutability": "nonpayable",
      "type": "constructor"
    },
    {
      "anonymous": false,
      "inputs": [
        {
          "indexed": true,
          "name": "DIN",
          "type": "uint256"
        },
        {
          "indexed": true,
          "name": "owner",
          "type": "address"
        }
      ],
      "name": "NewOwner",
      "type": "event"
    },
    {
      "anonymous": false,
      "inputs": [
        {
          "indexed": true,
          "name": "DIN",
          "type": "uint256"
        },
        {
          "indexed": true,
          "name": "resolver",
          "type": "address"
        }
      ],
      "name": "NewResolver",
      "type": "event"
    },
    {
      "anonymous": false,
      "inputs": [
        {
          "indexed": true,
          "name": "DIN",
          "type": "uint256"
        },
        {
          "indexed": true,
          "name": "owner",
          "type": "address"
        }
      ],
      "name": "NewRegistration",
      "type": "event"
    },
    {
      "anonymous": false,
      "inputs": [
        {
          "indexed": true,
          "name": "registrar",
          "type": "address"
        }
      ],
      "name": "NewRegistrar",
      "type": "event"
    }
  ],
  "bytecode": "0x6060604052341561000f57600080fd5b604051602080610b34833981016040528080519060200190919050508060028190555033600080600254815260200190815260200160002060000160006101000a81548173ffffffffffffffffffffffffffffffffffffffff021916908373ffffffffffffffffffffffffffffffffffffffff160217905550426000806002548152602001908152602001600020600201819055503373ffffffffffffffffffffffffffffffffffffffff166002547fef8ea3d0ef6bf7f673a09aa675838d76573d86e5a9fc235846ac3f54195d721760405160405180910390a350610a3a806100fa6000396000f3006060604052600436106100a4576000357c0100000000000000000000000000000000000000000000000000000000900463ffffffff168063108eaa4e146100a95780632b20e3971461010c5780636d01ff71146101615780637fd39247146101c2578063a123c33e14610204578063a7f0b3de14610267578063bbfad25614610290578063bc7b6d62146102c7578063dbbdf08314610309578063faab9d391461034b575b600080fd5b34156100b457600080fd5b6100ca6004808035906020019091905050610384565b604051808273ffffffffffffffffffffffffffffffffffffffff1673ffffffffffffffffffffffffffffffffffffffff16815260200191505060405180910390f35b341561011757600080fd5b61011f6103c3565b604051808273ffffffffffffffffffffffffffffffffffffffff1673ffffffffffffffffffffffffffffffffffffffff16815260200191505060405180910390f35b341561016c57600080fd5b6101c0600480803590602001909190803573ffffffffffffffffffffffffffffffffffffffff1690602001909190803573ffffffffffffffffffffffffffffffffffffffff169060200190919050506103e9565b005b34156101cd57600080fd5b610202600480803590602001909190803573ffffffffffffffffffffffffffffffffffffffff16906020019091905050610550565b005b341561020f57600080fd5b6102256004808035906020019091905050610677565b604051808273ffffffffffffffffffffffffffffffffffffffff1673ffffffffffffffffffffffffffffffffffffffff16815260200191505060405180910390f35b341561027257600080fd5b61027a6106b6565b6040518082815260200191505060405180910390f35b341561029b57600080fd5b6102b160048080359060200190919050506106bc565b6040518082815260200191505060405180910390f35b34156102d257600080fd5b610307600480803590602001909190803573ffffffffffffffffffffffffffffffffffffffff169060200190919050506106db565b005b341561031457600080fd5b610349600480803590602001909190803573ffffffffffffffffffffffffffffffffffffffff16906020019091905050610802565b005b341561035657600080fd5b610382600480803573ffffffffffffffffffffffffffffffffffffffff16906020019091905050610914565b005b600080600083815260200190815260200160002060010160009054906101000a900473ffffffffffffffffffffffffffffffffffffffff169050919050565b600160009054906101000a900473ffffffffffffffffffffffffffffffffffffffff1681565b3373ffffffffffffffffffffffffffffffffffffffff16600160009054906101000a900473ffffffffffffffffffffffffffffffffffffffff1673ffffffffffffffffffffffffffffffffffffffff1614151561044557600080fd5b8160008085815260200190815260200160002060000160006101000a81548173ffffffffffffffffffffffffffffffffffffffff021916908373ffffffffffffffffffffffffffffffffffffffff1602179055508060008085815260200190815260200160002060010160006101000a81548173ffffffffffffffffffffffffffffffffffffffff021916908373ffffffffffffffffffffffffffffffffffffffff16021790555042600080858152602001908152602001600020600201819055508173ffffffffffffffffffffffffffffffffffffffff16837fef8ea3d0ef6bf7f673a09aa675838d76573d86e5a9fc235846ac3f54195d721760405160405180910390a3505050565b813373ffffffffffffffffffffffffffffffffffffffff1660008083815260200190815260200160002060000160009054906101000a900473ffffffffffffffffffffffffffffffffffffffff1673ffffffffffffffffffffffffffffffffffffffff161415156105c057600080fd5b8160008085815260200190815260200160002060000160006101000a81548173ffffffffffffffffffffffffffffffffffffffff021916908373ffffffffffffffffffffffffffffffffffffffff16021790555042600080858152602001908152602001600020600201819055508173ffffffffffffffffffffffffffffffffffffffff16837f4c5d8ccfd4f32dad0c449108334c94e0bada87b1453ad71e79e233545f4c48a660405160405180910390a3505050565b600080600083815260200190815260200160002060000160009054906101000a900473ffffffffffffffffffffffffffffffffffffffff169050919050565b60025481565b6000806000838152602001908152602001600020600201549050919050565b813373ffffffffffffffffffffffffffffffffffffffff1660008083815260200190815260200160002060000160009054906101000a900473ffffffffffffffffffffffffffffffffffffffff1673ffffffffffffffffffffffffffffffffffffffff1614151561074b57600080fd5b8160008085815260200190815260200160002060010160006101000a81548173ffffffffffffffffffffffffffffffffffffffff021916908373ffffffffffffffffffffffffffffffffffffffff16021790555042600080858152602001908152602001600020600201819055508173ffffffffffffffffffffffffffffffffffffffff16837fcbae0978f0621ebb4707a96540f8d3a937104526ceef2cdf1cf07b25c5e48cd460405160405180910390a3505050565b3373ffffffffffffffffffffffffffffffffffffffff16600160009054906101000a900473ffffffffffffffffffffffffffffffffffffffff1673ffffffffffffffffffffffffffffffffffffffff1614151561085e57600080fd5b8060008084815260200190815260200160002060000160006101000a81548173ffffffffffffffffffffffffffffffffffffffff021916908373ffffffffffffffffffffffffffffffffffffffff16021790555042600080848152602001908152602001600020600201819055508073ffffffffffffffffffffffffffffffffffffffff16827fef8ea3d0ef6bf7f673a09aa675838d76573d86e5a9fc235846ac3f54195d721760405160405180910390a35050565b6002543373ffffffffffffffffffffffffffffffffffffffff1660008083815260200190815260200160002060000160009054906101000a900473ffffffffffffffffffffffffffffffffffffffff1673ffffffffffffffffffffffffffffffffffffffff1614151561098657600080fd5b81600160006101000a81548173ffffffffffffffffffffffffffffffffffffffff021916908373ffffffffffffffffffffffffffffffffffffffff1602179055508173ffffffffffffffffffffffffffffffffffffffff167f442a494f290ba8ec799a59dc05bf4eab5b97fd9d86156de0f0919a42b12ed0cd60405160405180910390a250505600a165627a7a723058203db7438c6c2762f40a91840dcbc62cdf226220ea40c0008a8ab6d5fad940166e0029",
  "source": "pragma solidity ^0.4.11;\n\n/** @title Decentralized Identification Number (DIN) registry. */\ncontract DINRegistry {\n\n    struct Record {\n        address owner;\n        address resolver;  // Address where product information is stored. \n        uint256 updated;   // Unix timestamp.\n    }\n\n    // DIN => Record\n    mapping (uint256 => Record) records;\n\n    // The address of DINRegistrar.\n    address public registrar;\n\n    // The first DIN registered.\n    uint256 public genesis;\n\n    modifier only_registrar {\n        require(registrar == msg.sender);\n        _;\n    }\n\n    modifier only_owner(uint256 DIN) {\n        require(records[DIN].owner == msg.sender);\n        _;\n    }\n\n    // Logged when the owner of a DIN transfers ownership to a new account.\n    event NewOwner(uint256 indexed DIN, address indexed owner);\n\n    // Logged when the resolver associated with a DIN changes.\n    event NewResolver(uint256 indexed DIN, address indexed resolver);\n\n    // Logged when a new DIN is registered.\n    event NewRegistration(uint256 indexed DIN, address indexed owner);\n\n    // Logged when the DINRegistrar contract changes.\n    event NewRegistrar(address indexed registrar);\n\n    /** @dev Constructor.\n      * @param _genesis The first DIN registered.\n      */\n    function DINRegistry(uint256 _genesis) public {\n        genesis = _genesis;\n\n        // Register the genesis DIN to the account that deploys this contract.\n        records[genesis].owner = msg.sender;\n        records[genesis].updated = block.timestamp;\n        NewRegistration(genesis, msg.sender);\n    }\n\n    // Get the owner of a specified DIN.\n    function owner(uint256 _DIN) public constant returns (address) {\n        return records[_DIN].owner;\n    }\n\n    /**\n     * @dev Transfer ownership of a DIN.\n     * @param _DIN The DIN to transfer.\n     * @param _owner The address of the new owner.\n     */\n    function setOwner(uint256 _DIN, address _owner) public only_owner(_DIN) {\n        records[_DIN].owner = _owner;\n        records[_DIN].updated = block.timestamp;\n        NewOwner(_DIN, _owner);\n    }\n\n    // Get the resolver of a specified DIN.\n    function resolver(uint256 _DIN) public constant returns (address) {\n        return records[_DIN].resolver;\n    }\n\n    /**\n     * @dev Set the resolver of a DIN.\n     * @param _DIN The DIN to update.\n     * @param _resolver The address of the resolver.\n     */\n    function setResolver(uint256 _DIN, address _resolver) public only_owner(_DIN) {\n        records[_DIN].resolver = _resolver;\n        records[_DIN].updated = block.timestamp;\n        NewResolver(_DIN, _resolver);\n    }\n\n    // Get the time a specified DIN record was last updated.\n    function updated(uint256 _DIN) public constant returns (uint256) {\n        return records[_DIN].updated;\n    } \n\n    /**\n     * @dev Register a new DIN.\n     * @param _owner The account that will own the DIN.\n     */\n    function register(uint256 _DIN, address _owner) public only_registrar {\n        records[_DIN].owner = _owner;\n        records[_DIN].updated = block.timestamp;\n        NewRegistration(_DIN, _owner);\n    }\n\n    /**\n     * @dev Register a new DIN and set the resolver.\n     * @param _owner The account that will own the DIN.\n     * @param _resolver The address of the resolver.\n     */\n    function registerWithResolver(uint256 _DIN, address _owner, address _resolver) public only_registrar {\n        records[_DIN].owner = _owner;\n        records[_DIN].resolver = _resolver;\n        records[_DIN].updated = block.timestamp;\n        NewRegistration(_DIN, _owner);\n    }\n\n    /**\n     * @dev Change the DINRegistrar contract.\n     * @param _registrar The address of the new registrar.\n     */\n    function setRegistrar(address _registrar) public only_owner(genesis) {\n        registrar = _registrar;\n        NewRegistrar(_registrar);\n    }\n\n}",
  "sourcePath": "/Users/richardmcateer/Developer/Ethereum/kiosk/single-product-page/src/kiosk.js/contracts/contracts/DINRegistry.sol",
  "compiler": {
    "name": "solc",
    "version": "0.4.18+commit.9cf6e910.Emscripten.clang"
  },
  "schemaVersion": "1.0.1",
  "updatedAt": "2017-11-29T18:09:33.493Z"
}