{
  "contractName": "EtherMarket",
  "abi": [
    {
      "constant": false,
      "inputs": [
        {
          "name": "orderValues",
          "type": "uint256[4]"
        },
        {
          "name": "orderAddresses",
          "type": "address[1]"
        },
        {
          "name": "nonceHash",
          "type": "bytes32"
        },
        {
          "name": "v",
          "type": "uint8"
        },
        {
          "name": "r",
          "type": "bytes32"
        },
        {
          "name": "s",
          "type": "bytes32"
        }
      ],
      "name": "buyProduct",
      "outputs": [
        {
          "name": "orderID",
          "type": "uint256"
        }
      ],
      "payable": true,
      "stateMutability": "payable",
      "type": "function"
    },
    {
      "constant": true,
      "inputs": [],
      "name": "orders",
      "outputs": [
        {
          "name": "",
          "type": "address"
        }
      ],
      "payable": false,
      "stateMutability": "view",
      "type": "function"
    },
    {
      "constant": false,
      "inputs": [
        {
          "name": "orderValues",
          "type": "uint256[4][]"
        },
        {
          "name": "orderAddresses",
          "type": "address[1][]"
        },
        {
          "name": "nonceHash",
          "type": "bytes32"
        },
        {
          "name": "v",
          "type": "uint8[]"
        },
        {
          "name": "r",
          "type": "bytes32[]"
        },
        {
          "name": "s",
          "type": "bytes32[]"
        }
      ],
      "name": "buyProducts",
      "outputs": [
        {
          "name": "orderID",
          "type": "uint256"
        }
      ],
      "payable": true,
      "stateMutability": "payable",
      "type": "function"
    },
    {
      "constant": true,
      "inputs": [],
      "name": "registry",
      "outputs": [
        {
          "name": "",
          "type": "address"
        }
      ],
      "payable": false,
      "stateMutability": "view",
      "type": "function"
    },
    {
      "constant": true,
      "inputs": [
        {
          "name": "signer",
          "type": "address"
        },
        {
          "name": "hash",
          "type": "bytes32"
        },
        {
          "name": "v",
          "type": "uint8"
        },
        {
          "name": "r",
          "type": "bytes32"
        },
        {
          "name": "s",
          "type": "bytes32"
        }
      ],
      "name": "isValidSignature",
      "outputs": [
        {
          "name": "valid",
          "type": "bool"
        }
      ],
      "payable": false,
      "stateMutability": "pure",
      "type": "function"
    },
    {
      "inputs": [
        {
          "name": "_registry",
          "type": "address"
        },
        {
          "name": "_orders",
          "type": "address"
        }
      ],
      "payable": false,
      "stateMutability": "nonpayable",
      "type": "constructor"
    },
    {
      "anonymous": false,
      "inputs": [
        {
          "indexed": false,
          "name": "error",
          "type": "string"
        }
      ],
      "name": "LogError",
      "type": "event"
    }
  ],
  "bytecode": "0x6060604052341561000f57600080fd5b60405160408061117483398101604052808051906020019091908051906020019091905050816000806101000a81548173ffffffffffffffffffffffffffffffffffffffff021916908373ffffffffffffffffffffffffffffffffffffffff16021790555080600160006101000a81548173ffffffffffffffffffffffffffffffffffffffff021916908373ffffffffffffffffffffffffffffffffffffffff16021790555050506110ae806100c66000396000f30060606040526004361061006d576000357c0100000000000000000000000000000000000000000000000000000000900463ffffffff1680634849d89b146100725780634fb764c914610120578063726008bd146101755780637b1039991461035d5780638163681e146103b2575b600080fd5b61010a6004808060800190600480602002604051908101604052809291908260046020028082843782019150505050509190806020019060018060200260405190810160405280929190826001602002808284378201915050505050919080356000191690602001909190803560ff169060200190919080356000191690602001909190803560001916906020019091905050610436565b6040518082815260200191505060405180910390f35b341561012b57600080fd5b6101336106ab565b604051808273ffffffffffffffffffffffffffffffffffffffff1673ffffffffffffffffffffffffffffffffffffffff16815260200191505060405180910390f35b61034760048080359060200190820180359060200190808060200260200160405190810160405280939291908181526020016000905b828210156101f05784848390506080020160048060200260405190810160405280929190826004602002808284378201915050505050815260200190600101906101ab565b5050505050919080359060200190820180359060200190808060200260200160405190810160405280939291908181526020016000905b8282101561026c578484839050602002016001806020026040519081016040528092919082600160200280828437820191505050505081526020019060010190610227565b505050505091908035600019169060200190919080359060200190820180359060200190808060200260200160405190810160405280939291908181526020018383602002808284378201915050505050509190803590602001908201803590602001908080602002602001604051908101604052809392919081815260200183836020028082843782019150505050505091908035906020019082018035906020019080806020026020016040519081016040528093929190818152602001838360200280828437820191505050505050919050506106d1565b6040518082815260200191505060405180910390f35b341561036857600080fd5b6103706109b7565b604051808273ffffffffffffffffffffffffffffffffffffffff1673ffffffffffffffffffffffffffffffffffffffff16815260200191505060405180910390f35b34156103bd57600080fd5b61041c600480803573ffffffffffffffffffffffffffffffffffffffff169060200190919080356000191690602001909190803560ff1690602001909190803560001916906020019091908035600019169060200190919050506109dc565b604051808215151515815260200191505060405180910390f35b60008061044161100b565b61044961100b565b6104568a8a898989610ae3565b9250821561065957600160405180591061046d5750595b90808252806020026020018201604052509150600160405180591061048f5750595b908082528060200260200182016040525090508960006004811015156104b157fe5b60200201518260008151811015156104c557fe5b90602001906020020181815250508960016004811015156104e257fe5b60200201518160008151811015156104f657fe5b9060200190602002018181525050600160009054906101000a900473ffffffffffffffffffffffffffffffffffffffff1673ffffffffffffffffffffffffffffffffffffffff1663dece22aa8984846000604051602001526040518463ffffffff167c01000000000000000000000000000000000000000000000000000000000281526004018084600019166000191681526020018060200180602001838103835285818151815260200191508051906020019060200280838360005b838110156105ce5780820151818401526020810190506105b3565b50505050905001838103825284818151815260200191508051906020019060200280838360005b838110156106105780820151818401526020810190506105f5565b5050505090500195505050505050602060405180830381600087803b151561063757600080fd5b6102c65a03f1151561064857600080fd5b50505060405180519050935061069e565b3373ffffffffffffffffffffffffffffffffffffffff166108fc349081150290604051600060405180830381858888f19350505050151561069957600080fd5b600093505b5050509695505050505050565b600160009054906101000a900473ffffffffffffffffffffffffffffffffffffffff1681565b60006106db61100b565b6106e361100b565b600089516040518059106106f45750595b9080825280602002602001820160405250925089516040518059106107165750595b90808252806020026020018201604052509150600090505b895181101561085a576107b78a8281518110151561074857fe5b906020019060200201518a8381518110151561076057fe5b90602001906020020151898481518110151561077857fe5b90602001906020020151898581518110151561079057fe5b9060200190602002015189868151811015156107a857fe5b90602001906020020151610ae3565b15156107bf57fe5b89818151811015156107cd57fe5b9060200190602002015160006004811015156107e557fe5b602002015183828151811015156107f857fe5b9060200190602002018181525050898181518110151561081457fe5b90602001906020020151600160048110151561082c57fe5b6020020151828281518110151561083f57fe5b9060200190602002018181525050808060010191505061072e565b600160009054906101000a900473ffffffffffffffffffffffffffffffffffffffff1673ffffffffffffffffffffffffffffffffffffffff1663dece22aa8985856000604051602001526040518463ffffffff167c01000000000000000000000000000000000000000000000000000000000281526004018084600019166000191681526020018060200180602001838103835285818151815260200191508051906020019060200280838360005b83811015610924578082015181840152602081019050610909565b50505050905001838103825284818151815260200191508051906020019060200280838360005b8381101561096657808201518184015260208101905061094b565b5050505090500195505050505050602060405180830381600087803b151561098d57600080fd5b6102c65a03f1151561099e57600080fd5b5050506040518051905093505050509695505050505050565b6000809054906101000a900473ffffffffffffffffffffffffffffffffffffffff1681565b600060018560405180807f19457468657265756d205369676e6564204d6573736167653a0a333200000000815250601c0182600019166000191681526020019150506040518091039020858585604051600081526020016040526000604051602001526040518085600019166000191681526020018460ff1660ff16815260200183600019166000191681526020018260001916600019168152602001945050505050602060405160208103908084039060008661646e5a03f11515610aa157600080fd5b50506020604051035173ffffffffffffffffffffffffffffffffffffffff168673ffffffffffffffffffffffffffffffffffffffff1614905095945050505050565b600080610aee61101f565b866000600181101515610afd57fe5b6020020151915060c060405190810160405280896000600481101515610b1f57fe5b60200201518152602001896001600481101515610b3857fe5b60200201518152602001896002600481101515610b5157fe5b60200201518152602001896003600481101515610b6a57fe5b602002015181526020018373ffffffffffffffffffffffffffffffffffffffff1681526020016000809054906101000a900473ffffffffffffffffffffffffffffffffffffffff1673ffffffffffffffffffffffffffffffffffffffff1663a123c33e8b6000600481101515610bdc57fe5b60200201516000604051602001526040518263ffffffff167c010000000000000000000000000000000000000000000000000000000002815260040180828152602001915050602060405180830381600087803b1515610c3b57600080fd5b6102c65a03f11515610c4c57600080fd5b5050506040518051905073ffffffffffffffffffffffffffffffffffffffff16815250905060001515610c8182888888610cf5565b15151415610c925760009250610cea565b8173ffffffffffffffffffffffffffffffffffffffff166108fc896002600481101515610cbb57fe5b60200201519081150290604051600060405180830381858888f193505050501515610ce557600080fd5b600192505b505095945050505050565b60008060008660600151421115610d77577fc35a0ec6603ff0b5966d7ca053a5f0984a70aad58a9a0ecb1349308815a4151a60405180806020018281038252600d8152602001807f4f6666657220657870697265640000000000000000000000000000000000000081525060200191505060405180910390a160009250611001565b600073ffffffffffffffffffffffffffffffffffffffff16876080015173ffffffffffffffffffffffffffffffffffffffff161415610e21577fc35a0ec6603ff0b5966d7ca053a5f0984a70aad58a9a0ecb1349308815a4151a6040518080602001828103825260108152602001807f496e76616c6964206d65726368616e740000000000000000000000000000000081525060200191505060405180910390a160009250611001565b3487604001511115610e9e577fc35a0ec6603ff0b5966d7ca053a5f0984a70aad58a9a0ecb1349308815a4151a60405180806020018281038252600d8152602001807f56616c756520746f6f206c6f770000000000000000000000000000000000000081525060200191505060405180910390a160009250611001565b86602001518760400151811515610eb157fe5b0491503087600001518389606001518a60800151604051808673ffffffffffffffffffffffffffffffffffffffff1673ffffffffffffffffffffffffffffffffffffffff166c010000000000000000000000000281526014018581526020018481526020018381526020018273ffffffffffffffffffffffffffffffffffffffff1673ffffffffffffffffffffffffffffffffffffffff166c01000000000000000000000000028152601401955050505050506040518091039020905060001515610f838860a00151838989896109dc565b15151415610ffc577fc35a0ec6603ff0b5966d7ca053a5f0984a70aad58a9a0ecb1349308815a4151a6040518080602001828103825260118152602001807f496e76616c6964207369676e617475726500000000000000000000000000000081525060200191505060405180910390a160009250611001565b600192505b5050949350505050565b602060405190810160405280600081525090565b60c06040519081016040528060008152602001600081526020016000815260200160008152602001600073ffffffffffffffffffffffffffffffffffffffff168152602001600073ffffffffffffffffffffffffffffffffffffffff16815250905600a165627a7a723058206835d58b6e5fc390bcb343e7ca57fe13d6882c4e57de3899edab8869a96bde710029",
  "source": "pragma solidity ^0.4.17;\n\nimport \"../core/DINRegistry.sol\";\nimport \"../core/Orders.sol\";\nimport \"./Market.sol\";\n\n/** @title Buy products with Ether. */\ncontract EtherMarket is Market {\n    struct Order {\n        uint256 DIN;\n        uint256 quantity;\n        uint256 totalPrice;\n        uint256 priceValidUntil;\n        address merchant;\n        address owner;\n    }\n\n    /** @dev Constructor.\n      * @param _registry The DIN Registry contract address.\n      * @param _orders The Orders contract address.\n      */\n    function EtherMarket(DINRegistry _registry, Orders _orders) public {\n        registry = _registry;\n        orders = _orders;\n    }\n\n    /** @dev Buy a product.\n      * param orderValues:\n        [0] DIN The Decentralized Identification Number (DIN) of the product to buy.\n        [1] quantity The quantity to buy.\n        [2] totalPrice Total price of the purchase, in wei.\n        [3] priceValidUntil Expiration time (Unix timestamp).\n      * param orderAddresses:\n        [0] merchant The merchant address.\n      * @param nonceHash The hash of a nonce generated by a client. The nonce can be used as a proof of purchase.\n      * @param v ECDSA signature parameter v.\n      * @param r ECDSA signature parameter r.\n      * @param s ECDSA signature parameter s.\n      * @return orderID A unique ID for the order.\n      */\n    function buyProduct(\n        uint256[4] orderValues,\n        address[1] orderAddresses,\n        bytes32 nonceHash,\n        uint8 v,\n        bytes32 r,\n        bytes32 s\n    )\n        payable\n        public\n        returns (uint256 orderID)\n    {\n        bool success = buy(orderValues, orderAddresses, v, r, s);\n\n        if (success) {\n            // http://solidity.readthedocs.io/en/develop/types.html#array-literals-inline-arrays\n            uint256[] memory DINs = new uint256[](1);\n            uint256[] memory quantities = new uint256[](1);\n            DINs[0] = orderValues[0];\n            quantities[0] = orderValues[1];\n\n            // Create a new order and return the order ID\n            return orders.createOrder(nonceHash, DINs, quantities);\n        } else {\n            // Return Ether to buyer.\n            msg.sender.transfer(msg.value);\n            return 0;\n        }\n    }\n\n    /** @dev Buy multiple products.\n      * @param orderValues Array of individual order values\n      * @param orderAddresses Array of merchant addresses.\n      * @param nonceHash The hash of a nonce generated by a client. The nonce can be used as a proof of purchase.\n      * @param v Array of ECDSA signature parameter v.\n      * @param r Array of ECDSA signature parameter r.\n      * @param s Array of ECDSA signature parameter s.\n      * @return orderID A unique ID for the order.\n      */\n    function buyProducts(\n        uint256[4][] orderValues,\n        address[1][] orderAddresses,\n        bytes32 nonceHash,\n        uint8[] v,\n        bytes32[] r,\n        bytes32[] s\n    )\n        payable\n        public\n        returns (uint256 orderID)\n    {\n        uint256[] memory DINs = new uint256[](orderValues.length);\n        uint256[] memory quantities = new uint256[](orderValues.length);\n\n        for (uint i = 0; i < orderValues.length; i++) {\n            // Throw if any of the buy transactions fail.\n            assert(buy(\n                orderValues[i],\n                orderAddresses[i],\n                v[i],\n                r[i],\n                s[i]\n            ));\n            DINs[i] = orderValues[i][0];\n            quantities[i] = orderValues[i][1];\n        }\n\n        // Create a new order and return the order ID\n        return orders.createOrder(nonceHash, DINs, quantities);\n    }\n\n    // Private helper method to buy a product.\n    function buy(\n        uint256[4] orderValues,\n        address[1] orderAddresses,\n        uint8 v,\n        bytes32 r,\n        bytes32 s\n    )\n        private\n        returns (bool)\n    {\n        address merchant = orderAddresses[0];\n\n        Order memory order = Order({\n            DIN: orderValues[0],\n            quantity: orderValues[1],\n            totalPrice: orderValues[2],\n            priceValidUntil: orderValues[3],\n            merchant: merchant,\n            owner: registry.owner(orderValues[0]) // Get the DIN owner address from the DIN registry.\n        });\n\n        if (isValidOrder(order, v, r, s) == false) {\n            return false;\n        }\n\n        // Transfer Ether to the merchant.\n        merchant.transfer(orderValues[2]);\n        return true;\n    }\n\n    /**\n      * @dev Verify that an order is valid.\n      * @return valid Validity of the order.\n      */\n    function isValidOrder(\n        Order order,\n        uint8 v,\n        bytes32 r,\n        bytes32 s\n    ) \n        internal \n        returns (bool) \n    {\n        if (block.timestamp > order.priceValidUntil) {\n            LogError(\"Offer expired\");\n            return false;\n        }\n\n        if (order.merchant == address(0x0)) {\n            LogError(\"Invalid merchant\");\n            return false;\n        }\n\n        if (order.totalPrice > msg.value) {\n            LogError(\"Value too low\");\n            return false;\n        }\n\n        uint256 unitPrice = order.totalPrice / order.quantity;\n\n        // Calculate the hash of the parameters provided by the buyer.\n        bytes32 hash = keccak256(\n            this,\n            order.DIN,\n            unitPrice,\n            order.priceValidUntil,\n            order.merchant\n        );\n\n        // Verify that the DIN owner has signed the provided inputs.\n        if (isValidSignature(order.owner, hash, v, r, s) == false) {\n            LogError(\"Invalid signature\");\n            return false;\n        }\n\n        return true;\n    }\n\n}",
  "sourcePath": "/Users/richardmcateer/Developer/Ethereum/kiosk/contracts/contracts/market/EtherMarket.sol",
  "compiler": {
    "name": "solc",
    "version": "0.4.18+commit.9cf6e910.Emscripten.clang"
  },
  "schemaVersion": "1.0.1",
  "updatedAt": "2017-12-21T19:50:49.258Z"
}