{
  "contractName": "LoyaltyMarket",
  "abi": [
    {
      "constant": false,
      "inputs": [
        {
          "name": "orderValues",
          "type": "uint256[6][]"
        },
        {
          "name": "orderAddresses",
          "type": "address[2][]"
        },
        {
          "name": "nonceHash",
          "type": "bytes32"
        },
        {
          "name": "v",
          "type": "uint8[]"
        },
        {
          "name": "r",
          "type": "bytes32[]"
        },
        {
          "name": "s",
          "type": "bytes32[]"
        }
      ],
      "name": "buyProducts",
      "outputs": [
        {
          "name": "orderID",
          "type": "uint256"
        }
      ],
      "payable": true,
      "stateMutability": "payable",
      "type": "function"
    },
    {
      "constant": true,
      "inputs": [],
      "name": "orders",
      "outputs": [
        {
          "name": "",
          "type": "address"
        }
      ],
      "payable": false,
      "stateMutability": "view",
      "type": "function"
    },
    {
      "constant": true,
      "inputs": [],
      "name": "registry",
      "outputs": [
        {
          "name": "",
          "type": "address"
        }
      ],
      "payable": false,
      "stateMutability": "view",
      "type": "function"
    },
    {
      "constant": true,
      "inputs": [
        {
          "name": "signer",
          "type": "address"
        },
        {
          "name": "hash",
          "type": "bytes32"
        },
        {
          "name": "v",
          "type": "uint8"
        },
        {
          "name": "r",
          "type": "bytes32"
        },
        {
          "name": "s",
          "type": "bytes32"
        }
      ],
      "name": "isValidSignature",
      "outputs": [
        {
          "name": "valid",
          "type": "bool"
        }
      ],
      "payable": false,
      "stateMutability": "pure",
      "type": "function"
    },
    {
      "constant": false,
      "inputs": [
        {
          "name": "orderValues",
          "type": "uint256[6]"
        },
        {
          "name": "orderAddresses",
          "type": "address[2]"
        },
        {
          "name": "nonceHash",
          "type": "bytes32"
        },
        {
          "name": "v",
          "type": "uint8"
        },
        {
          "name": "r",
          "type": "bytes32"
        },
        {
          "name": "s",
          "type": "bytes32"
        }
      ],
      "name": "buyProduct",
      "outputs": [
        {
          "name": "orderID",
          "type": "uint256"
        }
      ],
      "payable": true,
      "stateMutability": "payable",
      "type": "function"
    },
    {
      "inputs": [
        {
          "name": "_registry",
          "type": "address"
        },
        {
          "name": "_orders",
          "type": "address"
        }
      ],
      "payable": false,
      "stateMutability": "nonpayable",
      "type": "constructor"
    },
    {
      "anonymous": false,
      "inputs": [
        {
          "indexed": false,
          "name": "error",
          "type": "string"
        }
      ],
      "name": "LogError",
      "type": "event"
    }
  ],
  "bytecode": "0x6060604052341561000f57600080fd5b60405160408061135c83398101604052808051906020019091908051906020019091905050816000806101000a81548173ffffffffffffffffffffffffffffffffffffffff021916908373ffffffffffffffffffffffffffffffffffffffff16021790555080600160006101000a81548173ffffffffffffffffffffffffffffffffffffffff021916908373ffffffffffffffffffffffffffffffffffffffff1602179055505050611296806100c66000396000f30060606040526004361061006d576000357c0100000000000000000000000000000000000000000000000000000000900463ffffffff1680634a910419146100725780634fb764c91461025a5780637b103999146102af5780638163681e14610304578063d93be75614610388575b600080fd5b61024460048080359060200190820180359060200190808060200260200160405190810160405280939291908181526020016000905b828210156100ed57848483905060c0020160068060200260405190810160405280929190826006602002808284378201915050505050815260200190600101906100a8565b5050505050919080359060200190820180359060200190808060200260200160405190810160405280939291908181526020016000905b82821015610169578484839050604002016002806020026040519081016040528092919082600260200280828437820191505050505081526020019060010190610124565b50505050509190803560001916906020019091908035906020019082018035906020019080806020026020016040519081016040528093929190818152602001838360200280828437820191505050505050919080359060200190820180359060200190808060200260200160405190810160405280939291908181526020018383602002808284378201915050505050509190803590602001908201803590602001908080602002602001604051908101604052809392919081815260200183836020028082843782019150505050505091905050610436565b6040518082815260200191505060405180910390f35b341561026557600080fd5b61026d61071c565b604051808273ffffffffffffffffffffffffffffffffffffffff1673ffffffffffffffffffffffffffffffffffffffff16815260200191505060405180910390f35b34156102ba57600080fd5b6102c2610742565b604051808273ffffffffffffffffffffffffffffffffffffffff1673ffffffffffffffffffffffffffffffffffffffff16815260200191505060405180910390f35b341561030f57600080fd5b61036e600480803573ffffffffffffffffffffffffffffffffffffffff169060200190919080356000191690602001909190803560ff169060200190919080356000191690602001909190803560001916906020019091905050610767565b604051808215151515815260200191505060405180910390f35b6104206004808060c00190600680602002604051908101604052809291908260066020028082843782019150505050509190806040019060028060200260405190810160405280929190826002602002808284378201915050505050919080356000191690602001909190803560ff16906020019091908035600019169060200190919080356000191690602001909190505061086e565b6040518082815260200191505060405180910390f35b60006104406111c7565b6104486111c7565b600089516040518059106104595750595b90808252806020026020018201604052509250895160405180591061047b5750595b90808252806020026020018201604052509150600090505b89518110156105bf5761051c8a828151811015156104ad57fe5b906020019060200201518a838151811015156104c557fe5b9060200190602002015189848151811015156104dd57fe5b9060200190602002015189858151811015156104f557fe5b90602001906020020151898681518110151561050d57fe5b90602001906020020151610ae5565b151561052457fe5b898181518110151561053257fe5b90602001906020020151600060068110151561054a57fe5b6020020151838281518110151561055d57fe5b9060200190602002018181525050898181518110151561057957fe5b90602001906020020151600160068110151561059157fe5b602002015182828151811015156105a457fe5b90602001906020020181815250508080600101915050610493565b600160009054906101000a900473ffffffffffffffffffffffffffffffffffffffff1673ffffffffffffffffffffffffffffffffffffffff1663dece22aa8985856000604051602001526040518463ffffffff167c01000000000000000000000000000000000000000000000000000000000281526004018084600019166000191681526020018060200180602001838103835285818151815260200191508051906020019060200280838360005b8381101561068957808201518184015260208101905061066e565b50505050905001838103825284818151815260200191508051906020019060200280838360005b838110156106cb5780820151818401526020810190506106b0565b5050505090500195505050505050602060405180830381600087803b15156106f257600080fd5b6102c65a03f1151561070357600080fd5b5050506040518051905093505050509695505050505050565b600160009054906101000a900473ffffffffffffffffffffffffffffffffffffffff1681565b6000809054906101000a900473ffffffffffffffffffffffffffffffffffffffff1681565b600060018560405180807f19457468657265756d205369676e6564204d6573736167653a0a333200000000815250601c0182600019166000191681526020019150506040518091039020858585604051600081526020016040526000604051602001526040518085600019166000191681526020018460ff1660ff16815260200183600019166000191681526020018260001916600019168152602001945050505050602060405160208103908084039060008661646e5a03f1151561082c57600080fd5b50506020604051035173ffffffffffffffffffffffffffffffffffffffff168673ffffffffffffffffffffffffffffffffffffffff1614905095945050505050565b60006108786111c7565b6108806111c7565b600115156108918a8a898989610ae5565b15151415610a945760016040518059106108a85750595b9080825280602002602001820160405250915060016040518059106108ca5750595b908082528060200260200182016040525090508860006006811015156108ec57fe5b602002015182600081518110151561090057fe5b906020019060200201818152505088600160068110151561091d57fe5b602002015181600081518110151561093157fe5b9060200190602002018181525050600160009054906101000a900473ffffffffffffffffffffffffffffffffffffffff1673ffffffffffffffffffffffffffffffffffffffff1663dece22aa8884846000604051602001526040518463ffffffff167c01000000000000000000000000000000000000000000000000000000000281526004018084600019166000191681526020018060200180602001838103835285818151815260200191508051906020019060200280838360005b83811015610a095780820151818401526020810190506109ee565b50505050905001838103825284818151815260200191508051906020019060200280838360005b83811015610a4b578082015181840152602081019050610a30565b5050505090500195505050505050602060405180830381600087803b1515610a7257600080fd5b6102c65a03f11515610a8357600080fd5b505050604051805190509250610ad9565b3373ffffffffffffffffffffffffffffffffffffffff166108fc349081150290604051600060405180830381858888f193505050501515610ad457600080fd5b600092505b50509695505050505050565b600080610af06111db565b866000600281101515610aff57fe5b6020020151915061012060405190810160405280896000600681101515610b2257fe5b60200201518152602001896001600681101515610b3b57fe5b60200201518152602001896002600681101515610b5457fe5b60200201518152602001896003600681101515610b6d57fe5b602002015181526020018373ffffffffffffffffffffffffffffffffffffffff1681526020016000809054906101000a900473ffffffffffffffffffffffffffffffffffffffff1673ffffffffffffffffffffffffffffffffffffffff1663a123c33e8b6000600681101515610bdf57fe5b60200201516000604051602001526040518263ffffffff167c010000000000000000000000000000000000000000000000000000000002815260040180828152602001915050602060405180830381600087803b1515610c3e57600080fd5b6102c65a03f11515610c4f57600080fd5b5050506040518051905073ffffffffffffffffffffffffffffffffffffffff168152602001896004600681101515610c8357fe5b60200201518152602001886001600281101515610c9c57fe5b602002015173ffffffffffffffffffffffffffffffffffffffff168152602001896005600681101515610ccb57fe5b6020020151815250905060001515610ce582888888610e5d565b15151415610cf65760009250610e52565b8173ffffffffffffffffffffffffffffffffffffffff166108fc896002600681101515610d1f57fe5b60200201519081150290604051600060405180830381858888f193505050501515610d4957600080fd5b8060e0015173ffffffffffffffffffffffffffffffffffffffff166323b872dd3360008460c001516000604051602001526040518463ffffffff167c0100000000000000000000000000000000000000000000000000000000028152600401808473ffffffffffffffffffffffffffffffffffffffff1673ffffffffffffffffffffffffffffffffffffffff1681526020018373ffffffffffffffffffffffffffffffffffffffff1673ffffffffffffffffffffffffffffffffffffffff1681526020018281526020019350505050602060405180830381600087803b1515610e3157600080fd5b6102c65a03f11515610e4257600080fd5b5050506040518051905050600192505b505095945050505050565b60008060008660600151421115610edf577fc35a0ec6603ff0b5966d7ca053a5f0984a70aad58a9a0ecb1349308815a4151a60405180806020018281038252600d8152602001807f4f6666657220657870697265640000000000000000000000000000000000000081525060200191505060405180910390a1600092506111bd565b600073ffffffffffffffffffffffffffffffffffffffff16876080015173ffffffffffffffffffffffffffffffffffffffff161415610f89577fc35a0ec6603ff0b5966d7ca053a5f0984a70aad58a9a0ecb1349308815a4151a6040518080602001828103825260108152602001807f496e76616c6964206d65726368616e740000000000000000000000000000000081525060200191505060405180910390a1600092506111bd565b3487604001511115611006577fc35a0ec6603ff0b5966d7ca053a5f0984a70aad58a9a0ecb1349308815a4151a60405180806020018281038252600d8152602001807f56616c756520746f6f206c6f770000000000000000000000000000000000000081525060200191505060405180910390a1600092506111bd565b8660200151876040015181151561101957fe5b0491503087600001518389606001518a608001518b60e001518c6101000151604051808873ffffffffffffffffffffffffffffffffffffffff1673ffffffffffffffffffffffffffffffffffffffff166c010000000000000000000000000281526014018781526020018681526020018581526020018473ffffffffffffffffffffffffffffffffffffffff1673ffffffffffffffffffffffffffffffffffffffff166c010000000000000000000000000281526014018373ffffffffffffffffffffffffffffffffffffffff1673ffffffffffffffffffffffffffffffffffffffff166c01000000000000000000000000028152601401828152602001975050505050505050604051809103902090506000151561113f8860a0015183898989610767565b151514156111b8577fc35a0ec6603ff0b5966d7ca053a5f0984a70aad58a9a0ecb1349308815a4151a6040518080602001828103825260118152602001807f496e76616c6964207369676e617475726500000000000000000000000000000081525060200191505060405180910390a1600092506111bd565b600192505b5050949350505050565b602060405190810160405280600081525090565b6101206040519081016040528060008152602001600081526020016000815260200160008152602001600073ffffffffffffffffffffffffffffffffffffffff168152602001600073ffffffffffffffffffffffffffffffffffffffff16815260200160008152602001600073ffffffffffffffffffffffffffffffffffffffff1681526020016000815250905600a165627a7a72305820a411b1e77946314d9482df26dd9fa2b6bf44fa3339834511699c8efda321339e0029",
  "source": "pragma solidity ^0.4.17;\n\nimport \"../core/DINRegistry.sol\";\nimport \"../core/Orders.sol\";\nimport \"./Market.sol\";\nimport \"zeppelin-solidity/contracts/token/ERC20.sol\";\n\n/** @title Buy products with Ether and loyalty tokens. */\ncontract LoyaltyMarket is Market {\n    struct Order {\n        uint256 DIN;\n        uint256 quantity;\n        uint256 totalPrice;\n        uint256 priceValidUntil;\n        address merchant;\n        address owner;\n        uint256 loyaltyValue;\n        address loyaltyToken;\n        uint256 loyaltyRate;\n    }\n\n    /** @dev Constructor.\n      * @param _registry The DIN Registry contract address.\n      * @param _orders The Orders contract address.\n      */\n    function LoyaltyMarket(DINRegistry _registry, Orders _orders) public {\n        registry = _registry;\n        orders = _orders;\n    }\n\n    /** @dev Buy a product.\n      * param orderValues:\n        [0] DIN The Decentralized Identification Number (DIN) of the product to buy.\n        [1] quantity The quantity to buy.\n        [2] totalPrice Total price of the purchase, in wei.\n        [3] priceValidUntil Expiration time (Unix timestamp).\n        [4] loyaltyValue Amount of loyalty tokens to redeem.\n        [5] loyaltyRate Loyalty token to Ether exchange rate.\n      * param orderAddresses:\n        [0] merchant The merchant address.\n        [1] loyaltyToken Address of the loyalty token.\n      * @param nonceHash The hash of a nonce generated by a client. The nonce can be used as a proof of purchase.\n      * @param v ECDSA signature parameter v.\n      * @param r ECDSA signature parameter r.\n      * @param s ECDSA signature parameter s.\n      * @return orderID A unique ID for the order.\n      */\n    function buyProduct(\n        uint256[6] orderValues,\n        address[2] orderAddresses,\n        bytes32 nonceHash,\n        uint8 v,\n        bytes32 r,\n        bytes32 s\n    )\n        payable\n        public\n        returns (uint256 orderID)\n    {\n        if (buy(orderValues, orderAddresses, v, r, s) == true) {\n            // http://solidity.readthedocs.io/en/develop/types.html#array-literals-inline-arrays\n            uint256[] memory DINs = new uint256[](1);\n            uint256[] memory quantities = new uint256[](1);\n            DINs[0] = orderValues[0];\n            quantities[0] = orderValues[1];\n\n            // Create a new order and return the order ID\n            return orders.createOrder(nonceHash, DINs, quantities);\n        } else {\n            // Return Ether to buyer.\n            msg.sender.transfer(msg.value);\n            return 0;\n        }\n    }\n\n    /** @dev Buy multiple products.\n      * @param orderValues Array of individual order values\n      * @param orderAddresses Array of merchant addresses.\n      * @param nonceHash The hash of a nonce generated by a client. The nonce can be used as a proof of purchase.\n      * @param v Array of ECDSA signature parameter v.\n      * @param r Array of ECDSA signature parameter r.\n      * @param s Array of ECDSA signature parameter s.\n      * @return orderID A unique ID for the order.\n      */\n    function buyProducts(\n        uint256[6][] orderValues,\n        address[2][] orderAddresses,\n        bytes32 nonceHash,\n        uint8[] v,\n        bytes32[] r,\n        bytes32[] s\n    )\n        payable\n        public\n        returns (uint256 orderID)\n    {\n        uint256[] memory DINs = new uint256[](orderValues.length);\n        uint256[] memory quantities = new uint256[](orderValues.length);\n\n        for (uint i = 0; i < orderValues.length; i++) {\n            // Throw if any of the buy transactions fail.\n            assert(buy(\n                orderValues[i],\n                orderAddresses[i],\n                v[i],\n                r[i],\n                s[i]\n            ));\n            DINs[i] = orderValues[i][0];\n            quantities[i] = orderValues[i][1];\n        }\n\n        // Create a new order and return the order ID\n        return orders.createOrder(nonceHash, DINs, quantities);\n    }\n\n    // Private helper method to buy a product.\n    function buy(\n        uint256[6] orderValues,\n        address[2] orderAddresses,\n        uint8 v,\n        bytes32 r,\n        bytes32 s\n    )\n        private\n        returns (bool)\n    {\n        address merchant = orderAddresses[0];\n\n        Order memory order = Order({\n            DIN: orderValues[0],\n            quantity: orderValues[1],\n            totalPrice: orderValues[2],\n            priceValidUntil: orderValues[3],\n            merchant: merchant,\n            owner: registry.owner(orderValues[0]), // Get the DIN owner address from the DIN registry.\n            loyaltyValue: orderValues[4],\n            loyaltyToken: orderAddresses[1],\n            loyaltyRate: orderValues[5]\n        });\n\n        if (isValidOrder(order, v, r, s) == false) {\n            return false;\n        }\n\n        // TODO: Mix\n\n        // Transfer Ether to the merchant.\n        merchant.transfer(orderValues[2]);\n\n        // Burn loyalty tokens.\n        ERC20(order.loyaltyToken).transferFrom(msg.sender, address(0x0), order.loyaltyValue);\n\n        return true;\n    }\n\n    /**\n      * @dev Verify that an order is valid.\n      * @return valid Validity of the order.\n      */\n    function isValidOrder(\n        Order order,\n        uint8 v,\n        bytes32 r,\n        bytes32 s\n    ) \n        internal \n        returns (bool) \n    {\n        if (block.timestamp > order.priceValidUntil) {\n            LogError(\"Offer expired\");\n            return false;\n        }\n\n        if (order.merchant == address(0x0)) {\n            LogError(\"Invalid merchant\");\n            return false;\n        }\n\n        if (order.totalPrice > msg.value) {\n            LogError(\"Value too low\");\n            return false;\n        }\n\n        uint256 unitPrice = order.totalPrice / order.quantity;\n\n        // Calculate the hash of the parameters provided by the buyer.\n        bytes32 hash = keccak256(\n            this,\n            order.DIN,\n            unitPrice,\n            order.priceValidUntil,\n            order.merchant,\n            order.loyaltyToken,\n            order.loyaltyRate\n        );\n\n        // Verify that the DIN owner has signed the provided inputs.\n        if (isValidSignature(order.owner, hash, v, r, s) == false) {\n            LogError(\"Invalid signature\");\n            return false;\n        }\n\n        return true;\n    }\n\n}",
  "sourcePath": "/Users/richardmcateer/Developer/Ethereum/kiosk/contracts/contracts/market/LoyaltyMarket.sol",
  "compiler": {
    "name": "solc",
    "version": "0.4.18+commit.9cf6e910.Emscripten.clang"
  },
  "schemaVersion": "1.0.1",
  "updatedAt": "2017-12-22T05:31:32.119Z"
}