{
  "contractName": "Market",
  "abi": [
    {
      "constant": true,
      "inputs": [],
      "name": "orders",
      "outputs": [
        {
          "name": "",
          "type": "address"
        }
      ],
      "payable": false,
      "stateMutability": "view",
      "type": "function"
    },
    {
      "constant": true,
      "inputs": [],
      "name": "registry",
      "outputs": [
        {
          "name": "",
          "type": "address"
        }
      ],
      "payable": false,
      "stateMutability": "view",
      "type": "function"
    },
    {
      "constant": true,
      "inputs": [
        {
          "name": "signer",
          "type": "address"
        },
        {
          "name": "hash",
          "type": "bytes32"
        },
        {
          "name": "v",
          "type": "uint8"
        },
        {
          "name": "r",
          "type": "bytes32"
        },
        {
          "name": "s",
          "type": "bytes32"
        }
      ],
      "name": "isValidSignature",
      "outputs": [
        {
          "name": "valid",
          "type": "bool"
        }
      ],
      "payable": false,
      "stateMutability": "pure",
      "type": "function"
    },
    {
      "anonymous": false,
      "inputs": [
        {
          "indexed": false,
          "name": "error",
          "type": "string"
        }
      ],
      "name": "LogError",
      "type": "event"
    }
  ],
  "bytecode": "0x6060604052341561000f57600080fd5b6103088061001e6000396000f300606060405260043610610057576000357c0100000000000000000000000000000000000000000000000000000000900463ffffffff1680634fb764c91461005c5780637b103999146100b15780638163681e14610106575b600080fd5b341561006757600080fd5b61006f61018a565b604051808273ffffffffffffffffffffffffffffffffffffffff1673ffffffffffffffffffffffffffffffffffffffff16815260200191505060405180910390f35b34156100bc57600080fd5b6100c46101b0565b604051808273ffffffffffffffffffffffffffffffffffffffff1673ffffffffffffffffffffffffffffffffffffffff16815260200191505060405180910390f35b341561011157600080fd5b610170600480803573ffffffffffffffffffffffffffffffffffffffff169060200190919080356000191690602001909190803560ff1690602001909190803560001916906020019091908035600019169060200190919050506101d5565b604051808215151515815260200191505060405180910390f35b600160009054906101000a900473ffffffffffffffffffffffffffffffffffffffff1681565b6000809054906101000a900473ffffffffffffffffffffffffffffffffffffffff1681565b600060018560405180807f19457468657265756d205369676e6564204d6573736167653a0a333200000000815250601c0182600019166000191681526020019150506040518091039020858585604051600081526020016040526000604051602001526040518085600019166000191681526020018460ff1660ff16815260200183600019166000191681526020018260001916600019168152602001945050505050602060405160208103908084039060008661646e5a03f1151561029a57600080fd5b50506020604051035173ffffffffffffffffffffffffffffffffffffffff168673ffffffffffffffffffffffffffffffffffffffff16149050959450505050505600a165627a7a72305820d3d083297fa1b0d849e41338b628e18ec4203ff16f9ad832b9e72e9c67c4965f0029",
  "source": "pragma solidity ^0.4.17;\n\nimport \"../core/DINRegistry.sol\";\nimport \"../core/Orders.sol\";\n\n/** @title A market generates orders from DINs. */\ncontract Market {\n    DINRegistry public registry;\n    Orders public orders;\n\n    // Log Solidity errors\n    event LogError(string error);\n\n    /**\n      * @dev Verify that an order signature is valid.\n      * @param signer address of signer.\n      * @param hash Signed Keccak-256 hash.\n      * @param v ECDSA signature parameter v.\n      * @param r ECDSA signature parameters r.\n      * @param s ECDSA signature parameters s.\n      * @return valid Validity of the order signature.\n      */\n    // Attribution: 0x - https://github.com/0xProject/contracts/blob/master/contracts/Exchange.sol#L447\n    function isValidSignature(\n        address signer,\n        bytes32 hash,\n        uint8 v,\n        bytes32 r,\n        bytes32 s\n    )\n        public\n        pure\n        returns (bool valid)\n    {\n        return signer == ecrecover(\n            keccak256(\"\\x19Ethereum Signed Message:\\n32\", hash),\n            v,\n            r,\n            s\n        );\n    }\n\n}",
  "sourcePath": "/Users/richardmcateer/Developer/Ethereum/kiosk/contracts/contracts/market/Market.sol",
  "compiler": {
    "name": "solc",
    "version": "0.4.18+commit.9cf6e910.Emscripten.clang"
  },
  "schemaVersion": "1.0.1",
  "updatedAt": "2018-01-23T17:06:03.912Z"
}