{
  "contractName": "Orders",
  "abi": [
    {
      "constant": true,
      "inputs": [],
      "name": "orderIndex",
      "outputs": [
        {
          "name": "",
          "type": "uint256"
        }
      ],
      "payable": false,
      "stateMutability": "view",
      "type": "function"
    },
    {
      "constant": false,
      "inputs": [
        {
          "name": "nonceHash",
          "type": "bytes32"
        },
        {
          "name": "DINs",
          "type": "uint256[]"
        },
        {
          "name": "quantities",
          "type": "uint256[]"
        }
      ],
      "name": "createOrder",
      "outputs": [
        {
          "name": "orderID",
          "type": "uint256"
        }
      ],
      "payable": false,
      "stateMutability": "nonpayable",
      "type": "function"
    },
    {
      "anonymous": false,
      "inputs": [
        {
          "indexed": true,
          "name": "orderID",
          "type": "uint256"
        },
        {
          "indexed": false,
          "name": "market",
          "type": "address"
        },
        {
          "indexed": false,
          "name": "nonceHash",
          "type": "bytes32"
        },
        {
          "indexed": false,
          "name": "DINs",
          "type": "uint256[]"
        },
        {
          "indexed": false,
          "name": "quantities",
          "type": "uint256[]"
        }
      ],
      "name": "NewOrder",
      "type": "event"
    }
  ],
  "bytecode": "0x606060405260008055341561001357600080fd5b61029e806100226000396000f30060606040526004361061004c576000357c0100000000000000000000000000000000000000000000000000000000900463ffffffff16806330471fee14610051578063dece22aa1461007a575b600080fd5b341561005c57600080fd5b610064610135565b6040518082815260200191505060405180910390f35b341561008557600080fd5b61011f600480803560001916906020019091908035906020019082018035906020019080806020026020016040519081016040528093929190818152602001838360200280828437820191505050505050919080359060200190820180359060200190808060200260200160405190810160405280939291908181526020018383602002808284378201915050505050509190505061013b565b6040518082815260200191505060405180910390f35b60005481565b60008151835114151561014d57600080fd5b60008081548092919060010191905055506000547fe1d90f402fb057f56a0f40d995df3398db4f5d9737660bc2fb72ec465a07b1ab33868686604051808573ffffffffffffffffffffffffffffffffffffffff1673ffffffffffffffffffffffffffffffffffffffff16815260200184600019166000191681526020018060200180602001838103835285818151815260200191508051906020019060200280838360005b8381101561020d5780820151818401526020810190506101f2565b50505050905001838103825284818151815260200191508051906020019060200280838360005b8381101561024f578082015181840152602081019050610234565b50505050905001965050505050505060405180910390a2600054905093925050505600a165627a7a723058209fcb02cad84b92274ff06f926b11a88ad87cde54be69c808a32eafa4ef1c4b530029",
  "source": "pragma solidity ^0.4.11;\n\ncontract Orders {\n    // The next order ID.\n    uint256 public orderIndex = 0;\n\n    // Log new orders\n    event NewOrder(\n        uint256 indexed orderID,\n        address market,\n        bytes32 nonceHash,\n        uint256[] DINs,\n        uint256[] quantities\n    );\n\n    function createOrder(\n        bytes32 nonceHash,\n        uint256[] DINs,\n        uint256[] quantities\n    ) \n        public \n        returns (uint256 orderID) \n    {\n        require(DINs.length == quantities.length);\n        \n        // Increment the order index.\n        orderIndex++;\n\n        NewOrder(\n            orderIndex,\n            msg.sender,\n            nonceHash,\n            DINs,\n            quantities\n        );\n        \n        return orderIndex;\n    }\n}",
  "sourcePath": "/Users/richardmcateer/Developer/Ethereum/kiosk/contracts/contracts/core/Orders.sol",
  "compiler": {
    "name": "solc",
    "version": "0.4.18+commit.9cf6e910.Emscripten.clang"
  },
  "schemaVersion": "1.0.1",
  "updatedAt": "2017-12-21T21:19:52.682Z"
}