{
  "contractName": "Orders",
  "abi": [
    {
      "constant": false,
      "inputs": [
        {
          "name": "nonceHash",
          "type": "bytes32"
        },
        {
          "name": "merchant",
          "type": "address"
        },
        {
          "name": "DIN",
          "type": "uint256"
        },
        {
          "name": "quantity",
          "type": "uint256"
        },
        {
          "name": "totalPrice",
          "type": "uint256"
        }
      ],
      "name": "createOrder",
      "outputs": [
        {
          "name": "orderID",
          "type": "uint256"
        }
      ],
      "payable": false,
      "stateMutability": "nonpayable",
      "type": "function"
    },
    {
      "constant": true,
      "inputs": [],
      "name": "orderIndex",
      "outputs": [
        {
          "name": "",
          "type": "uint256"
        }
      ],
      "payable": false,
      "stateMutability": "view",
      "type": "function"
    },
    {
      "anonymous": false,
      "inputs": [
        {
          "indexed": true,
          "name": "orderID",
          "type": "uint256"
        },
        {
          "indexed": false,
          "name": "nonceHash",
          "type": "bytes32"
        },
        {
          "indexed": true,
          "name": "merchant",
          "type": "address"
        },
        {
          "indexed": true,
          "name": "DIN",
          "type": "uint256"
        },
        {
          "indexed": false,
          "name": "quantity",
          "type": "uint256"
        },
        {
          "indexed": false,
          "name": "totalPrice",
          "type": "uint256"
        },
        {
          "indexed": false,
          "name": "timestamp",
          "type": "uint256"
        }
      ],
      "name": "NewOrder",
      "type": "event"
    }
  ],
  "bytecode": "0x606060405260008055341561001357600080fd5b6101b4806100226000396000f30060606040526004361061004c576000357c0100000000000000000000000000000000000000000000000000000000900463ffffffff1680630327a66c1461005157806330471fee146100c6575b600080fd5b341561005c57600080fd5b6100b060048080356000191690602001909190803573ffffffffffffffffffffffffffffffffffffffff169060200190919080359060200190919080359060200190919080359060200190919050506100ef565b6040518082815260200191505060405180910390f35b34156100d157600080fd5b6100d9610182565b6040518082815260200191505060405180910390f35b60008060008154809291906001019190505550838573ffffffffffffffffffffffffffffffffffffffff166000547f84a0b26d06168cef83c7fd694920c35c2bb9485bc101efc3e2574cf26f6523928987874260405180856000191660001916815260200184815260200183815260200182815260200194505050505060405180910390a4600054905095945050505050565b600054815600a165627a7a723058203826924a42f9aef25204b8fdb90f970945446c102bf34285136f7368134ae2bb0029",
  "source": "pragma solidity ^0.4.11;\n\ncontract Orders {\n    // The next order ID.\n    uint256 public orderIndex = 0;\n\n    // Logs new orders\n    event NewOrder(\n        uint256 indexed orderID,\n        bytes32 nonceHash,\n        address indexed merchant,\n        uint256 indexed DIN,\n        uint256 quantity,\n        uint256 totalPrice,\n        uint256 timestamp\n    );\n\n    function createOrder(\n        bytes32 nonceHash,\n        address merchant,\n        uint256 DIN,\n        uint256 quantity,\n        uint256 totalPrice\n    )\n        public\n        // TODO: Only checkout\n        returns (uint256 orderID)\n    {\n        // Increment the order index.\n        orderIndex++;\n\n        NewOrder(\n            orderIndex,\n            nonceHash,\n            merchant,\n            DIN,\n            quantity,\n            totalPrice,\n            block.timestamp\n        );\n\n        return orderIndex;\n    }\n}",
  "sourcePath": "/Users/richardmcateer/Developer/Ethereum/kiosk/single-product-page/src/kiosk.js/contracts/contracts/Orders.sol",
  "compiler": {
    "name": "solc",
    "version": "0.4.18+commit.9cf6e910.Emscripten.clang"
  },
  "schemaVersion": "1.0.1",
  "updatedAt": "2017-11-27T01:29:02.951Z"
}