{
  "contractName": "Orders",
  "abi": [
    {
      "constant": false,
      "inputs": [
        {
          "name": "nonceHash",
          "type": "bytes32"
        },
        {
          "name": "buyer",
          "type": "address"
        },
        {
          "name": "merchant",
          "type": "address"
        },
        {
          "name": "DIN",
          "type": "uint256"
        },
        {
          "name": "quantity",
          "type": "uint256"
        },
        {
          "name": "totalPrice",
          "type": "uint256"
        }
      ],
      "name": "createOrder",
      "outputs": [
        {
          "name": "orderID",
          "type": "uint256"
        }
      ],
      "payable": false,
      "stateMutability": "nonpayable",
      "type": "function"
    },
    {
      "constant": true,
      "inputs": [],
      "name": "orderIndex",
      "outputs": [
        {
          "name": "",
          "type": "uint256"
        }
      ],
      "payable": false,
      "stateMutability": "view",
      "type": "function"
    },
    {
      "anonymous": false,
      "inputs": [
        {
          "indexed": true,
          "name": "orderID",
          "type": "uint256"
        },
        {
          "indexed": false,
          "name": "nonceHash",
          "type": "bytes32"
        },
        {
          "indexed": false,
          "name": "checkout",
          "type": "address"
        },
        {
          "indexed": true,
          "name": "buyer",
          "type": "address"
        },
        {
          "indexed": true,
          "name": "merchant",
          "type": "address"
        },
        {
          "indexed": false,
          "name": "DIN",
          "type": "uint256"
        },
        {
          "indexed": false,
          "name": "quantity",
          "type": "uint256"
        },
        {
          "indexed": false,
          "name": "totalPrice",
          "type": "uint256"
        },
        {
          "indexed": false,
          "name": "timestamp",
          "type": "uint256"
        }
      ],
      "name": "NewOrder",
      "type": "event"
    }
  ],
  "bytecode": "0x606060405260008055341561001357600080fd5b610226806100226000396000f30060606040526004361061004c576000357c0100000000000000000000000000000000000000000000000000000000900463ffffffff168063021649401461005157806330471fee146100e5575b600080fd5b341561005c57600080fd5b6100cf60048080356000191690602001909190803573ffffffffffffffffffffffffffffffffffffffff1690602001909190803573ffffffffffffffffffffffffffffffffffffffff1690602001909190803590602001909190803590602001909190803590602001909190505061010e565b6040518082815260200191505060405180910390f35b34156100f057600080fd5b6100f86101f4565b6040518082815260200191505060405180910390f35b600080600081548092919060010191905055508473ffffffffffffffffffffffffffffffffffffffff168673ffffffffffffffffffffffffffffffffffffffff166000547f0f94766ffb897f34f36325dfedb7d117ceb06e3d7d2fdfa7cb7a5e7746bf90028a33898989426040518087600019166000191681526020018673ffffffffffffffffffffffffffffffffffffffff1673ffffffffffffffffffffffffffffffffffffffff168152602001858152602001848152602001838152602001828152602001965050505050505060405180910390a460005490509695505050505050565b600054815600a165627a7a72305820345b176efd9057f9319370ab843640ec5daf37daef1a333a9bbf54c6ff89dc8e0029",
  "source": "pragma solidity ^0.4.11;\n\ncontract Orders {\n    // The next order ID.\n    uint256 public orderIndex = 0;\n\n    // Logs new orders\n    event NewOrder(\n        uint256 indexed orderID,\n        bytes32 nonceHash,\n        address checkout,\n        address indexed buyer,\n        address indexed merchant,\n        uint256 DIN,\n        uint256 quantity,\n        uint256 totalPrice,\n        uint256 timestamp\n    );\n\n    function createOrder(\n        bytes32 nonceHash,\n        address buyer,\n        address merchant,\n        uint256 DIN,\n        uint256 quantity,\n        uint256 totalPrice\n    )\n        public\n        returns (uint256 orderID)\n    {\n        // Increment the order index.\n        orderIndex++;\n\n        NewOrder(\n            orderIndex,\n            nonceHash,\n            msg.sender,\n            buyer,\n            merchant,\n            DIN,\n            quantity,\n            totalPrice,\n            block.timestamp\n        );\n\n        return orderIndex;\n    }\n}",
  "sourcePath": "/Users/richardmcateer/Developer/Ethereum/kiosk/single-product-page/src/kiosk.js/contracts/contracts/Orders.sol",
  "compiler": {
    "name": "solc",
    "version": "0.4.18+commit.9cf6e910.Emscripten.clang"
  },
  "schemaVersion": "1.0.1",
  "updatedAt": "2017-11-29T04:39:41.276Z"
}