{
  "contractName": "PublicURLResolver",
  "abi": [
    {
      "constant": true,
      "inputs": [
        {
          "name": "interfaceID",
          "type": "bytes4"
        }
      ],
      "name": "supportsInterface",
      "outputs": [
        {
          "name": "",
          "type": "bool"
        }
      ],
      "payable": false,
      "stateMutability": "view",
      "type": "function"
    },
    {
      "constant": true,
      "inputs": [
        {
          "name": "DIN",
          "type": "uint256"
        }
      ],
      "name": "merchant",
      "outputs": [
        {
          "name": "",
          "type": "address"
        }
      ],
      "payable": false,
      "stateMutability": "view",
      "type": "function"
    },
    {
      "constant": false,
      "inputs": [
        {
          "name": "DIN",
          "type": "uint256"
        },
        {
          "name": "merchant",
          "type": "address"
        }
      ],
      "name": "setMerchant",
      "outputs": [],
      "payable": false,
      "stateMutability": "nonpayable",
      "type": "function"
    },
    {
      "constant": true,
      "inputs": [
        {
          "name": "DIN",
          "type": "uint256"
        }
      ],
      "name": "productURL",
      "outputs": [
        {
          "name": "",
          "type": "string"
        }
      ],
      "payable": false,
      "stateMutability": "view",
      "type": "function"
    },
    {
      "constant": false,
      "inputs": [
        {
          "name": "DIN",
          "type": "uint256"
        },
        {
          "name": "URL",
          "type": "string"
        }
      ],
      "name": "setProductURL",
      "outputs": [],
      "payable": false,
      "stateMutability": "nonpayable",
      "type": "function"
    },
    {
      "inputs": [
        {
          "name": "_registry",
          "type": "address"
        }
      ],
      "payable": false,
      "stateMutability": "nonpayable",
      "type": "constructor"
    }
  ],
  "bytecode": "0x6060604052341561000f57600080fd5b60405160208061086d8339810160405280805190602001909190505080600260006101000a81548173ffffffffffffffffffffffffffffffffffffffff021916908373ffffffffffffffffffffffffffffffffffffffff160217905550506107f18061007c6000396000f30060606040526004361061006d576000357c0100000000000000000000000000000000000000000000000000000000900463ffffffff16806301ffc9a714610072578063020cdd36146100cc578063aca9e5e41461012f578063af65571914610171578063db668e141461020d575b600080fd5b341561007d57600080fd5b6100b260048080357bffffffffffffffffffffffffffffffffffffffffffffffffffffffff1916906020019091905050610273565b604051808215151515815260200191505060405180910390f35b34156100d757600080fd5b6100ed60048080359060200190919050506103b6565b604051808273ffffffffffffffffffffffffffffffffffffffff1673ffffffffffffffffffffffffffffffffffffffff16815260200191505060405180910390f35b341561013a57600080fd5b61016f600480803590602001909190803573ffffffffffffffffffffffffffffffffffffffff169060200190919050506103f3565b005b341561017c57600080fd5b6101926004808035906020019091905050610538565b6040518080602001828103825283818151815260200191508051906020019080838360005b838110156101d25780820151818401526020810190506101b7565b50505050905090810190601f1680156101ff5780820380516001836020036101000a031916815260200191505b509250505060405180910390f35b341561021857600080fd5b610271600480803590602001909190803590602001908201803590602001908080601f016020809104026020016040519081016040528093929190818152602001838380828437820191505050505050919050506105f2565b005b60006301ffc9a77c0100000000000000000000000000000000000000000000000000000000027bffffffffffffffffffffffffffffffffffffffffffffffffffffffff1916827bffffffffffffffffffffffffffffffffffffffffffffffffffffffff19161480610344575063af6557197c0100000000000000000000000000000000000000000000000000000000027bffffffffffffffffffffffffffffffffffffffffffffffffffffffff1916827bffffffffffffffffffffffffffffffffffffffffffffffffffffffff1916145b806103af57506390a9f8b87c0100000000000000000000000000000000000000000000000000000000027bffffffffffffffffffffffffffffffffffffffffffffffffffffffff1916827bffffffffffffffffffffffffffffffffffffffffffffffffffffffff1916145b9050919050565b60006001600083815260200190815260200160002060009054906101000a900473ffffffffffffffffffffffffffffffffffffffff169050919050565b813373ffffffffffffffffffffffffffffffffffffffff16600260009054906101000a900473ffffffffffffffffffffffffffffffffffffffff1673ffffffffffffffffffffffffffffffffffffffff1663a123c33e836000604051602001526040518263ffffffff167c010000000000000000000000000000000000000000000000000000000002815260040180828152602001915050602060405180830381600087803b15156104a457600080fd5b6102c65a03f115156104b557600080fd5b5050506040518051905073ffffffffffffffffffffffffffffffffffffffff161415156104e157600080fd5b816001600085815260200190815260200160002060006101000a81548173ffffffffffffffffffffffffffffffffffffffff021916908373ffffffffffffffffffffffffffffffffffffffff160217905550505050565b61054061070c565b6000808381526020019081526020016000208054600181600116156101000203166002900480601f0160208091040260200160405190810160405280929190818152602001828054600181600116156101000203166002900480156105e65780601f106105bb576101008083540402835291602001916105e6565b820191906000526020600020905b8154815290600101906020018083116105c957829003601f168201915b50505050509050919050565b813373ffffffffffffffffffffffffffffffffffffffff16600260009054906101000a900473ffffffffffffffffffffffffffffffffffffffff1673ffffffffffffffffffffffffffffffffffffffff1663a123c33e836000604051602001526040518263ffffffff167c010000000000000000000000000000000000000000000000000000000002815260040180828152602001915050602060405180830381600087803b15156106a357600080fd5b6102c65a03f115156106b457600080fd5b5050506040518051905073ffffffffffffffffffffffffffffffffffffffff161415156106e057600080fd5b816000808581526020019081526020016000209080519060200190610706929190610720565b50505050565b602060405190810160405280600081525090565b828054600181600116156101000203166002900490600052602060002090601f016020900481019282601f1061076157805160ff191683800117855561078f565b8280016001018555821561078f579182015b8281111561078e578251825591602001919060010190610773565b5b50905061079c91906107a0565b5090565b6107c291905b808211156107be5760008160009055506001016107a6565b5090565b905600a165627a7a72305820d4cd54270f764fbc9dc0d18e0a109c17f23c3b5cee803515f2dc4dad98a1f8590029",
  "source": "pragma solidity ^0.4.11;\n\nimport \"./URLResolver.sol\";\nimport \"./DINRegistry.sol\";\n\n/** @title Resolver contract that specifies an API endpoint where product information can be retrieved */\ncontract PublicURLResolver is URLResolver {\n    bytes4 constant INTERFACE_META_ID = 0x01ffc9a7;         // bytes4(keccak256(\"supportsInterface(bytes4)\"))\n    bytes4 constant PRODUCT_URL_INTERFACE_ID = 0xaf655719;  // bytes4(keccak256(\"productURL(uint256)\"))\n    bytes4 constant MERCHANT_INTERFACE_ID = 0x90a9f8b8;     // bytes4(keccak256(\"merchant(uint256)\"))\n\n    // DIN => Product URL\n    mapping (uint256 => string) productURLs;\n    mapping (uint256 => address) merchants;\n\n    DINRegistry registry;\n\n    modifier only_owner(uint256 DIN) {\n        require(registry.owner(DIN) == msg.sender);\n        _;\n    }\n\n    /** @dev Constructor.\n      * @param _registry The DIN registry.\n      */\n    function PublicURLResolver(DINRegistry _registry) public {\n        registry = _registry;\n    }\n\n    function supportsInterface(bytes4 interfaceID) public constant returns (bool) {\n        return interfaceID == INTERFACE_META_ID ||\n               interfaceID == PRODUCT_URL_INTERFACE_ID ||\n               interfaceID == MERCHANT_INTERFACE_ID;\n    }\n\n    function productURL(uint256 DIN) public constant returns (string) {\n        return productURLs[DIN];\n    }\n\n    function setProductURL(uint256 DIN, string URL) public only_owner(DIN) {\n        productURLs[DIN] = URL;\n    }\n\n    function merchant(uint256 DIN) public constant returns (address) {\n        return merchants[DIN];\n    }\n\n    function setMerchant(uint256 DIN, address merchant) public only_owner(DIN) {\n        merchants[DIN] = merchant;\n    }\n\n}",
  "sourcePath": "/Users/richardmcateer/Developer/Ethereum/kiosk/single-product-page/src/kiosk.js/contracts/contracts/PublicURLResolver.sol",
  "compiler": {
    "name": "solc",
    "version": "0.4.18+commit.9cf6e910.Emscripten.clang"
  },
  "schemaVersion": "1.0.1",
  "updatedAt": "2017-11-20T06:41:57.253Z"
}