{
  "contractName": "ResolverFactory",
  "abi": [
    {
      "constant": false,
      "inputs": [
        {
          "name": "productURL",
          "type": "string"
        }
      ],
      "name": "createResolver",
      "outputs": [],
      "payable": false,
      "stateMutability": "nonpayable",
      "type": "function"
    },
    {
      "constant": true,
      "inputs": [],
      "name": "registry",
      "outputs": [
        {
          "name": "",
          "type": "address"
        }
      ],
      "payable": false,
      "stateMutability": "view",
      "type": "function"
    },
    {
      "inputs": [
        {
          "name": "_registry",
          "type": "address"
        }
      ],
      "payable": false,
      "stateMutability": "nonpayable",
      "type": "constructor"
    },
    {
      "anonymous": false,
      "inputs": [
        {
          "indexed": true,
          "name": "resolver",
          "type": "address"
        },
        {
          "indexed": true,
          "name": "owner",
          "type": "address"
        },
        {
          "indexed": false,
          "name": "productURL",
          "type": "string"
        }
      ],
      "name": "NewResolver",
      "type": "event"
    }
  ],
  "bytecode": "0x6060604052341561000f57600080fd5b604051602080610bd483398101604052808051906020019091905050806000806101000a81548173ffffffffffffffffffffffffffffffffffffffff021916908373ffffffffffffffffffffffffffffffffffffffff16021790555050610b598061007b6000396000f30060606040526004361061004c576000357c0100000000000000000000000000000000000000000000000000000000900463ffffffff16806369344757146100515780637b103999146100ae575b600080fd5b341561005c57600080fd5b6100ac600480803590602001908201803590602001908080601f01602080910402602001604051908101604052809392919081815260200183838082843782019150505050505091905050610103565b005b34156100b957600080fd5b6100c16102ec565b604051808273ffffffffffffffffffffffffffffffffffffffff1673ffffffffffffffffffffffffffffffffffffffff16815260200191505060405180910390f35b60008060009054906101000a900473ffffffffffffffffffffffffffffffffffffffff163383610131610311565b808473ffffffffffffffffffffffffffffffffffffffff1673ffffffffffffffffffffffffffffffffffffffff1681526020018373ffffffffffffffffffffffffffffffffffffffff1673ffffffffffffffffffffffffffffffffffffffff16815260200180602001828103825283818151815260200191508051906020019080838360005b838110156101d25780820151818401526020810190506101b7565b50505050905090810190601f1680156101ff5780820380516001836020036101000a031916815260200191505b50945050505050604051809103906000f080151561021c57600080fd5b90503373ffffffffffffffffffffffffffffffffffffffff168173ffffffffffffffffffffffffffffffffffffffff167f4e711d2c743df1ff864b535c850ed1574202eb7da4b4495fd1406c4c92863284846040518080602001828103825283818151815260200191508051906020019080838360005b838110156102ae578082015181840152602081019050610293565b50505050905090810190601f1680156102db5780820380516001836020036101000a031916815260200191505b509250505060405180910390a35050565b6000809054906101000a900473ffffffffffffffffffffffffffffffffffffffff1681565b60405161080c806103228339019056006060604052341561000f57600080fd5b60405161080c38038061080c8339810160405280805190602001909190805190602001909190805182019190505081600260006101000a81548173ffffffffffffffffffffffffffffffffffffffff021916908373ffffffffffffffffffffffffffffffffffffffff160217905550826000806101000a81548173ffffffffffffffffffffffffffffffffffffffff021916908373ffffffffffffffffffffffffffffffffffffffff16021790555080600190805190602001906100d49291906100dd565b50505050610182565b828054600181600116156101000203166002900490600052602060002090601f016020900481019282601f1061011e57805160ff191683800117855561014c565b8280016001018555821561014c579182015b8281111561014b578251825591602001919060010190610130565b5b509050610159919061015d565b5090565b61017f91905b8082111561017b576000816000905550600101610163565b5090565b90565b61067b806101916000396000f300606060405260043610610078576000357c0100000000000000000000000000000000000000000000000000000000900463ffffffff16806301ffc9a71461007d57806313af4035146100d75780631a9ace09146101105780637b1039991461016d5780638da5cb5b146101c2578063af65571914610217575b600080fd5b341561008857600080fd5b6100bd60048080357bffffffffffffffffffffffffffffffffffffffffffffffffffffffff19169060200190919050506102b3565b604051808215151515815260200191505060405180910390f35b34156100e257600080fd5b61010e600480803573ffffffffffffffffffffffffffffffffffffffff1690602001909190505061038b565b005b341561011b57600080fd5b61016b600480803590602001908201803590602001908080601f0160208091040260200160405190810160405280939291908181526020018383808284378201915050505050509190505061042b565b005b341561017857600080fd5b6101806104a1565b604051808273ffffffffffffffffffffffffffffffffffffffff1673ffffffffffffffffffffffffffffffffffffffff16815260200191505060405180910390f35b34156101cd57600080fd5b6101d56104c6565b604051808273ffffffffffffffffffffffffffffffffffffffff1673ffffffffffffffffffffffffffffffffffffffff16815260200191505060405180910390f35b341561022257600080fd5b61023860048080359060200190919050506104ec565b6040518080602001828103825283818151815260200191508051906020019080838360005b8381101561027857808201518184015260208101905061025d565b50505050905090810190601f1680156102a55780820380516001836020036101000a031916815260200191505b509250505060405180910390f35b60006301ffc9a77c0100000000000000000000000000000000000000000000000000000000027bffffffffffffffffffffffffffffffffffffffffffffffffffffffff1916827bffffffffffffffffffffffffffffffffffffffffffffffffffffffff19161480610384575063af6557197c0100000000000000000000000000000000000000000000000000000000027bffffffffffffffffffffffffffffffffffffffffffffffffffffffff1916827bffffffffffffffffffffffffffffffffffffffffffffffffffffffff1916145b9050919050565b3373ffffffffffffffffffffffffffffffffffffffff16600260009054906101000a900473ffffffffffffffffffffffffffffffffffffffff1673ffffffffffffffffffffffffffffffffffffffff161415156103e757600080fd5b80600260006101000a81548173ffffffffffffffffffffffffffffffffffffffff021916908373ffffffffffffffffffffffffffffffffffffffff16021790555050565b3373ffffffffffffffffffffffffffffffffffffffff16600260009054906101000a900473ffffffffffffffffffffffffffffffffffffffff1673ffffffffffffffffffffffffffffffffffffffff1614151561048757600080fd5b806001908051906020019061049d929190610596565b5050565b6000809054906101000a900473ffffffffffffffffffffffffffffffffffffffff1681565b600260009054906101000a900473ffffffffffffffffffffffffffffffffffffffff1681565b6104f4610616565b60018054600181600116156101000203166002900480601f01602080910402602001604051908101604052809291908181526020018280546001816001161561010002031660029004801561058a5780601f1061055f5761010080835404028352916020019161058a565b820191906000526020600020905b81548152906001019060200180831161056d57829003601f168201915b50505050509050919050565b828054600181600116156101000203166002900490600052602060002090601f016020900481019282601f106105d757805160ff1916838001178555610605565b82800160010185558215610605579182015b828111156106045782518255916020019190600101906105e9565b5b509050610612919061062a565b5090565b602060405190810160405280600081525090565b61064c91905b80821115610648576000816000905550600101610630565b5090565b905600a165627a7a72305820eb222d046a781fbf39ed1ae215f6ad799a064f404644322df90d08425238679d0029a165627a7a723058201a67a72c049ee7ae9758b46eef26d0bbaa730ed71418648c4f9405bb7ac9857e0029",
  "source": "pragma solidity ^0.4.11;\n\nimport \"./DINRegistry.sol\";\nimport \"./StandardResolver.sol\";\n\n/** @title Resolver factory. Creates new resolver contracts */\ncontract ResolverFactory {\n\n    DINRegistry public registry;\n\n    // Logged when a new resolver contract is created.\n    event NewResolver(\n        address indexed resolver, \n        address indexed owner,\n        string productURL \n    );\n\n    function ResolverFactory(DINRegistry _registry) public {\n        registry = _registry;\n    }\n\n    function createResolver(string productURL) public {\n        StandardResolver resolver = new StandardResolver(registry, msg.sender, productURL);\n        NewResolver(resolver, msg.sender, productURL);\n    }\n\n}",
  "sourcePath": "/Users/richardmcateer/Developer/Ethereum/kiosk/single-product-page/src/kiosk.js/contracts/contracts/ResolverFactory.sol",
  "compiler": {
    "name": "solc",
    "version": "0.4.18+commit.9cf6e910.Emscripten.clang"
  },
  "schemaVersion": "1.0.1",
  "updatedAt": "2017-12-01T06:27:04.610Z"
}