{
  "contractName": "ResolverFactory",
  "abi": [
    {
      "constant": false,
      "inputs": [
        {
          "name": "productURL",
          "type": "string"
        }
      ],
      "name": "createResolver",
      "outputs": [],
      "payable": false,
      "stateMutability": "nonpayable",
      "type": "function"
    },
    {
      "anonymous": false,
      "inputs": [
        {
          "indexed": true,
          "name": "resolver",
          "type": "address"
        },
        {
          "indexed": true,
          "name": "owner",
          "type": "address"
        },
        {
          "indexed": false,
          "name": "productURL",
          "type": "string"
        }
      ],
      "name": "NewResolver",
      "type": "event"
    }
  ],
  "bytecode": "0x6060604052341561000f57600080fd5b6109bb8061001e6000396000f300606060405260043610610041576000357c0100000000000000000000000000000000000000000000000000000000900463ffffffff1680636934475714610046575b600080fd5b341561005157600080fd5b6100a1600480803590602001908201803590602001908080601f016020809104026020016040519081016040528093929190818152602001838380828437820191505050505050919050506100a3565b005b600033826100af610237565b808373ffffffffffffffffffffffffffffffffffffffff1673ffffffffffffffffffffffffffffffffffffffff16815260200180602001828103825283818151815260200191508051906020019080838360005b8381101561011e578082015181840152602081019050610103565b50505050905090810190601f16801561014b5780820380516001836020036101000a031916815260200191505b509350505050604051809103906000f080151561016757600080fd5b90503373ffffffffffffffffffffffffffffffffffffffff168173ffffffffffffffffffffffffffffffffffffffff167f4e711d2c743df1ff864b535c850ed1574202eb7da4b4495fd1406c4c92863284846040518080602001828103825283818151815260200191508051906020019080838360005b838110156101f95780820151818401526020810190506101de565b50505050905090810190601f1680156102265780820380516001836020036101000a031916815260200191505b509250505060405180910390a35050565b604051610748806102488339019056006060604052341561000f57600080fd5b6040516107483803806107488339810160405280805190602001909190805182019190505081600160006101000a81548173ffffffffffffffffffffffffffffffffffffffff021916908373ffffffffffffffffffffffffffffffffffffffff160217905550806000908051906020019061008b929190610093565b505050610138565b828054600181600116156101000203166002900490600052602060002090601f016020900481019282601f106100d457805160ff1916838001178555610102565b82800160010185558215610102579182015b828111156101015782518255916020019190600101906100e6565b5b50905061010f9190610113565b5090565b61013591905b80821115610131576000816000905550600101610119565b5090565b90565b610601806101476000396000f30060606040526004361061006d576000357c0100000000000000000000000000000000000000000000000000000000900463ffffffff16806301ffc9a71461007257806313af4035146100cc5780631a9ace09146101055780638da5cb5b14610162578063af655719146101b7575b600080fd5b341561007d57600080fd5b6100b260048080357bffffffffffffffffffffffffffffffffffffffffffffffffffffffff191690602001909190505061025a565b604051808215151515815260200191505060405180910390f35b34156100d757600080fd5b610103600480803573ffffffffffffffffffffffffffffffffffffffff16906020019091905050610332565b005b341561011057600080fd5b610160600480803590602001908201803590602001908080601f016020809104026020016040519081016040528093929190818152602001838380828437820191505050505050919050506103d2565b005b341561016d57600080fd5b610175610448565b604051808273ffffffffffffffffffffffffffffffffffffffff1673ffffffffffffffffffffffffffffffffffffffff16815260200191505060405180910390f35b34156101c257600080fd5b6101d8600480803590602001909190505061046e565b6040518080602001838152602001828103825284818151815260200191508051906020019080838360005b8381101561021e578082015181840152602081019050610203565b50505050905090810190601f16801561024b5780820380516001836020036101000a031916815260200191505b50935050505060405180910390f35b60006301ffc9a77c0100000000000000000000000000000000000000000000000000000000027bffffffffffffffffffffffffffffffffffffffffffffffffffffffff1916827bffffffffffffffffffffffffffffffffffffffffffffffffffffffff1916148061032b575063af6557197c0100000000000000000000000000000000000000000000000000000000027bffffffffffffffffffffffffffffffffffffffffffffffffffffffff1916827bffffffffffffffffffffffffffffffffffffffffffffffffffffffff1916145b9050919050565b3373ffffffffffffffffffffffffffffffffffffffff16600160009054906101000a900473ffffffffffffffffffffffffffffffffffffffff1673ffffffffffffffffffffffffffffffffffffffff1614151561038e57600080fd5b80600160006101000a81548173ffffffffffffffffffffffffffffffffffffffff021916908373ffffffffffffffffffffffffffffffffffffffff16021790555050565b3373ffffffffffffffffffffffffffffffffffffffff16600160009054906101000a900473ffffffffffffffffffffffffffffffffffffffff1673ffffffffffffffffffffffffffffffffffffffff1614151561042e57600080fd5b806000908051906020019061044492919061051c565b5050565b600160009054906101000a900473ffffffffffffffffffffffffffffffffffffffff1681565b61047661059c565b6000808054600181600116156101000203166002900480601f01602080910402602001604051908101604052809291908181526020018280546001816001161561010002031660029004801561050d5780601f106104e25761010080835404028352916020019161050d565b820191906000526020600020905b8154815290600101906020018083116104f057829003601f168201915b50505050509150829050915091565b828054600181600116156101000203166002900490600052602060002090601f016020900481019282601f1061055d57805160ff191683800117855561058b565b8280016001018555821561058b579182015b8281111561058a57825182559160200191906001019061056f565b5b50905061059891906105b0565b5090565b602060405190810160405280600081525090565b6105d291905b808211156105ce5760008160009055506001016105b6565b5090565b905600a165627a7a72305820f398353ad11791f31931657c0b8e9c6d9b9ea62cc2d46dcbf6430f0aabcc9e470029a165627a7a723058200f5dc287611b4f3c23b48d3f5ae937f9b731a66db5325a2c381b1f3b1e26bfd00029",
  "source": "pragma solidity ^0.4.11;\n\nimport \"./StandardResolver.sol\";\n\n/** @title Resolver factory. Creates new resolver contracts */\ncontract ResolverFactory {\n    // Logged when a new resolver contract is created.\n    event NewResolver(\n        address indexed resolver, \n        address indexed owner,\n        string productURL \n    );\n\n    function createResolver(string productURL) public {\n        StandardResolver resolver = new StandardResolver(msg.sender, productURL);\n        NewResolver(resolver, msg.sender, productURL);\n    }\n}",
  "sourcePath": "/Users/richardmcateer/Developer/Ethereum/kiosk/kiosk.js/contracts/contracts/resolver/ResolverFactory.sol",
  "compiler": {
    "name": "solc",
    "version": "0.4.18+commit.9cf6e910.Emscripten.clang"
  },
  "schemaVersion": "1.0.1",
  "updatedAt": "2018-02-06T19:11:03.218Z"
}