{
  "contractName": "Rewards",
  "abi": [
    {
      "constant": false,
      "inputs": [
        {
          "name": "checkout",
          "type": "address"
        }
      ],
      "name": "removeCheckout",
      "outputs": [
        {
          "name": "",
          "type": "bool"
        }
      ],
      "payable": false,
      "stateMutability": "nonpayable",
      "type": "function"
    },
    {
      "constant": false,
      "inputs": [
        {
          "name": "_owner",
          "type": "address"
        }
      ],
      "name": "setOwner",
      "outputs": [],
      "payable": false,
      "stateMutability": "nonpayable",
      "type": "function"
    },
    {
      "constant": true,
      "inputs": [
        {
          "name": "token",
          "type": "address"
        },
        {
          "name": "owner",
          "type": "address"
        }
      ],
      "name": "isValidLoyaltyReward",
      "outputs": [
        {
          "name": "",
          "type": "bool"
        }
      ],
      "payable": false,
      "stateMutability": "view",
      "type": "function"
    },
    {
      "constant": true,
      "inputs": [
        {
          "name": "",
          "type": "address"
        }
      ],
      "name": "checkouts",
      "outputs": [
        {
          "name": "",
          "type": "bool"
        }
      ],
      "payable": false,
      "stateMutability": "view",
      "type": "function"
    },
    {
      "constant": true,
      "inputs": [],
      "name": "registry",
      "outputs": [
        {
          "name": "",
          "type": "address"
        }
      ],
      "payable": false,
      "stateMutability": "view",
      "type": "function"
    },
    {
      "constant": true,
      "inputs": [],
      "name": "owner",
      "outputs": [
        {
          "name": "",
          "type": "address"
        }
      ],
      "payable": false,
      "stateMutability": "view",
      "type": "function"
    },
    {
      "constant": true,
      "inputs": [],
      "name": "marketToken",
      "outputs": [
        {
          "name": "",
          "type": "address"
        }
      ],
      "payable": false,
      "stateMutability": "view",
      "type": "function"
    },
    {
      "constant": false,
      "inputs": [
        {
          "name": "token",
          "type": "address"
        },
        {
          "name": "from",
          "type": "address"
        },
        {
          "name": "to",
          "type": "address"
        },
        {
          "name": "amount",
          "type": "uint256"
        }
      ],
      "name": "sendLoyaltyReward",
      "outputs": [
        {
          "name": "",
          "type": "bool"
        }
      ],
      "payable": false,
      "stateMutability": "nonpayable",
      "type": "function"
    },
    {
      "constant": false,
      "inputs": [
        {
          "name": "token",
          "type": "address"
        },
        {
          "name": "buyer",
          "type": "address"
        },
        {
          "name": "amount",
          "type": "uint256"
        }
      ],
      "name": "redeemLoyaltyTokens",
      "outputs": [
        {
          "name": "",
          "type": "bool"
        }
      ],
      "payable": false,
      "stateMutability": "nonpayable",
      "type": "function"
    },
    {
      "constant": false,
      "inputs": [
        {
          "name": "checkout",
          "type": "address"
        }
      ],
      "name": "addCheckout",
      "outputs": [
        {
          "name": "",
          "type": "bool"
        }
      ],
      "payable": false,
      "stateMutability": "nonpayable",
      "type": "function"
    },
    {
      "constant": false,
      "inputs": [
        {
          "name": "from",
          "type": "address"
        },
        {
          "name": "to",
          "type": "address"
        },
        {
          "name": "amount",
          "type": "uint256"
        }
      ],
      "name": "sendAffiliateReward",
      "outputs": [
        {
          "name": "",
          "type": "bool"
        }
      ],
      "payable": false,
      "stateMutability": "nonpayable",
      "type": "function"
    },
    {
      "inputs": [
        {
          "name": "_marketToken",
          "type": "address"
        },
        {
          "name": "_registry",
          "type": "address"
        }
      ],
      "payable": false,
      "stateMutability": "nonpayable",
      "type": "constructor"
    }
  ],
  "bytecode": "0x6060604052341561000f57600080fd5b604051604080610f6a83398101604052808051906020019091908051906020019091905050816000806101000a81548173ffffffffffffffffffffffffffffffffffffffff021916908373ffffffffffffffffffffffffffffffffffffffff16021790555080600160006101000a81548173ffffffffffffffffffffffffffffffffffffffff021916908373ffffffffffffffffffffffffffffffffffffffff16021790555033600260006101000a81548173ffffffffffffffffffffffffffffffffffffffff021916908373ffffffffffffffffffffffffffffffffffffffff1602179055505050610e63806101076000396000f3006060604052600436106100af576000357c0100000000000000000000000000000000000000000000000000000000900463ffffffff168063119b0043146100b457806313af403514610105578063162f2c131461013e5780631f0d4cd1146101ae5780637b103999146101ff5780638da5cb5b14610254578063ad48d611146102a9578063bc06b310146102fe578063c5ff3b6914610396578063ddaf76301461040f578063f97ac79e14610460575b600080fd5b34156100bf57600080fd5b6100eb600480803573ffffffffffffffffffffffffffffffffffffffff169060200190919050506104d9565b604051808215151515815260200191505060405180910390f35b341561011057600080fd5b61013c600480803573ffffffffffffffffffffffffffffffffffffffff16906020019091905050610598565b005b341561014957600080fd5b610194600480803573ffffffffffffffffffffffffffffffffffffffff1690602001909190803573ffffffffffffffffffffffffffffffffffffffff16906020019091905050610638565b604051808215151515815260200191505060405180910390f35b34156101b957600080fd5b6101e5600480803573ffffffffffffffffffffffffffffffffffffffff169060200190919050506107e6565b604051808215151515815260200191505060405180910390f35b341561020a57600080fd5b610212610806565b604051808273ffffffffffffffffffffffffffffffffffffffff1673ffffffffffffffffffffffffffffffffffffffff16815260200191505060405180910390f35b341561025f57600080fd5b61026761082c565b604051808273ffffffffffffffffffffffffffffffffffffffff1673ffffffffffffffffffffffffffffffffffffffff16815260200191505060405180910390f35b34156102b457600080fd5b6102bc610852565b604051808273ffffffffffffffffffffffffffffffffffffffff1673ffffffffffffffffffffffffffffffffffffffff16815260200191505060405180910390f35b341561030957600080fd5b61037c600480803573ffffffffffffffffffffffffffffffffffffffff1690602001909190803573ffffffffffffffffffffffffffffffffffffffff1690602001909190803573ffffffffffffffffffffffffffffffffffffffff16906020019091908035906020019091905050610877565b604051808215151515815260200191505060405180910390f35b34156103a157600080fd5b6103f5600480803573ffffffffffffffffffffffffffffffffffffffff1690602001909190803573ffffffffffffffffffffffffffffffffffffffff169060200190919080359060200190919050506109cb565b604051808215151515815260200191505060405180910390f35b341561041a57600080fd5b610446600480803573ffffffffffffffffffffffffffffffffffffffff16906020019091905050610bf4565b604051808215151515815260200191505060405180910390f35b341561046b57600080fd5b6104bf600480803573ffffffffffffffffffffffffffffffffffffffff1690602001909190803573ffffffffffffffffffffffffffffffffffffffff16906020019091908035906020019091905050610cb3565b604051808215151515815260200191505060405180910390f35b60003373ffffffffffffffffffffffffffffffffffffffff16600260009054906101000a900473ffffffffffffffffffffffffffffffffffffffff1673ffffffffffffffffffffffffffffffffffffffff1614151561053757600080fd5b6000600360008473ffffffffffffffffffffffffffffffffffffffff1673ffffffffffffffffffffffffffffffffffffffff16815260200190815260200160002060006101000a81548160ff02191690831515021790555060019050919050565b3373ffffffffffffffffffffffffffffffffffffffff16600260009054906101000a900473ffffffffffffffffffffffffffffffffffffffff1673ffffffffffffffffffffffffffffffffffffffff161415156105f457600080fd5b80600260006101000a81548173ffffffffffffffffffffffffffffffffffffffff021916908373ffffffffffffffffffffffffffffffffffffffff16021790555050565b600060011515600160009054906101000a900473ffffffffffffffffffffffffffffffffffffffff1673ffffffffffffffffffffffffffffffffffffffff16639b19251a856000604051602001526040518263ffffffff167c0100000000000000000000000000000000000000000000000000000000028152600401808273ffffffffffffffffffffffffffffffffffffffff1673ffffffffffffffffffffffffffffffffffffffff168152602001915050602060405180830381600087803b151561070357600080fd5b6102c65a03f1151561071457600080fd5b5050506040518051905015151480156107de57508173ffffffffffffffffffffffffffffffffffffffff168373ffffffffffffffffffffffffffffffffffffffff16638da5cb5b6000604051602001526040518163ffffffff167c0100000000000000000000000000000000000000000000000000000000028152600401602060405180830381600087803b15156107ab57600080fd5b6102c65a03f115156107bc57600080fd5b5050506040518051905073ffffffffffffffffffffffffffffffffffffffff16145b905092915050565b60036020528060005260406000206000915054906101000a900460ff1681565b600160009054906101000a900473ffffffffffffffffffffffffffffffffffffffff1681565b600260009054906101000a900473ffffffffffffffffffffffffffffffffffffffff1681565b6000809054906101000a900473ffffffffffffffffffffffffffffffffffffffff1681565b600060011515600360003373ffffffffffffffffffffffffffffffffffffffff1673ffffffffffffffffffffffffffffffffffffffff16815260200190815260200160002060009054906101000a900460ff1615151415156108d857600080fd5b600115156108e68686610638565b151514156109be578473ffffffffffffffffffffffffffffffffffffffff166321670f2284846000604051602001526040518363ffffffff167c0100000000000000000000000000000000000000000000000000000000028152600401808373ffffffffffffffffffffffffffffffffffffffff1673ffffffffffffffffffffffffffffffffffffffff16815260200182815260200192505050602060405180830381600087803b151561099957600080fd5b6102c65a03f115156109aa57600080fd5b5050506040518051905050600190506109c3565b600090505b949350505050565b600060011515600360003373ffffffffffffffffffffffffffffffffffffffff1673ffffffffffffffffffffffffffffffffffffffff16815260200190815260200160002060009054906101000a900460ff161515141515610a2c57600080fd5b60011515600160009054906101000a900473ffffffffffffffffffffffffffffffffffffffff1673ffffffffffffffffffffffffffffffffffffffff16639b19251a866000604051602001526040518263ffffffff167c0100000000000000000000000000000000000000000000000000000000028152600401808273ffffffffffffffffffffffffffffffffffffffff1673ffffffffffffffffffffffffffffffffffffffff168152602001915050602060405180830381600087803b1515610af557600080fd5b6102c65a03f11515610b0657600080fd5b5050506040518051905015151415610be8578373ffffffffffffffffffffffffffffffffffffffff16631e9a695084846000604051602001526040518363ffffffff167c0100000000000000000000000000000000000000000000000000000000028152600401808373ffffffffffffffffffffffffffffffffffffffff1673ffffffffffffffffffffffffffffffffffffffff16815260200182815260200192505050602060405180830381600087803b1515610bc357600080fd5b6102c65a03f11515610bd457600080fd5b505050604051805190505060019050610bed565b600090505b9392505050565b60003373ffffffffffffffffffffffffffffffffffffffff16600260009054906101000a900473ffffffffffffffffffffffffffffffffffffffff1673ffffffffffffffffffffffffffffffffffffffff16141515610c5257600080fd5b6001600360008473ffffffffffffffffffffffffffffffffffffffff1673ffffffffffffffffffffffffffffffffffffffff16815260200190815260200160002060006101000a81548160ff02191690831515021790555060019050919050565b600060011515600360003373ffffffffffffffffffffffffffffffffffffffff1673ffffffffffffffffffffffffffffffffffffffff16815260200190815260200160002060009054906101000a900460ff161515141515610d1457600080fd5b6000809054906101000a900473ffffffffffffffffffffffffffffffffffffffff1673ffffffffffffffffffffffffffffffffffffffff1663315e00338585856000604051602001526040518463ffffffff167c0100000000000000000000000000000000000000000000000000000000028152600401808473ffffffffffffffffffffffffffffffffffffffff1673ffffffffffffffffffffffffffffffffffffffff1681526020018373ffffffffffffffffffffffffffffffffffffffff1673ffffffffffffffffffffffffffffffffffffffff1681526020018281526020019350505050602060405180830381600087803b1515610e1457600080fd5b6102c65a03f11515610e2557600080fd5b505050604051805190505093925050505600a165627a7a7230582052cfe2837fbc565ae28e769823687559d45ed6930b8fc779d18c0a6d026220ed0029",
  "source": "pragma solidity ^0.4.11;\n\nimport \"./MarketToken.sol\";\nimport \"./LoyaltyToken.sol\";\nimport \"./LoyaltyTokenRegistry.sol\";\n\ncontract Rewards {\n    MarketToken public marketToken;\n    LoyaltyTokenRegistry public registry;\n    address public owner;\n\n    mapping (address => bool) public checkouts;\n\n    modifier only_owner {\n        require(owner == msg.sender);\n        _;\n    }\n\n    modifier only_checkout {\n        require(checkouts[msg.sender] == true);\n        _;\n    }\n\n    // Constructor\n    function Rewards(MarketToken _marketToken, LoyaltyTokenRegistry _registry) public {\n        marketToken = _marketToken;\n        registry = _registry;\n        owner = msg.sender;\n    }\n\n    function sendAffiliateReward(address from, address to, uint256 amount) \n        public \n        only_checkout\n        returns (bool)\n    {\n        marketToken.transferFromRewards(from, to, amount);\n    }\n\n    function sendLoyaltyReward(address token, address from, address to, uint256 amount) \n        public\n        only_checkout\n        returns (bool) \n    {\n        if (isValidLoyaltyReward(token, from) == true) {\n            LoyaltyToken(token).reward(to, amount);\n            return true;\n        }\n\n        return false;\n    }\n\n    function redeemLoyaltyTokens(address token, address buyer, uint256 amount)\n        public\n        only_checkout\n        returns (bool) \n    {\n        if (registry.whitelist(token) == true) {\n            LoyaltyToken(token).redeem(buyer, amount);\n            return true;\n        }\n\n        return false;\n    }\n\n    function isValidLoyaltyReward(address token, address owner) public constant returns (bool) {\n        return (registry.whitelist(token) == true && LoyaltyToken(token).owner() == owner);\n    }\n\n    function addCheckout(address checkout) public only_owner returns (bool) {\n        checkouts[checkout] = true;\n        return true;\n    }\n\n    function removeCheckout(address checkout) public only_owner returns (bool) {\n        checkouts[checkout] = false;\n        return true;\n    }\n\n    function setOwner(address _owner) public only_owner {\n        owner = _owner;\n    }\n\n}",
  "sourcePath": "/Users/richardmcateer/Developer/Ethereum/kiosk/single-product-page/src/kiosk.js/contracts/contracts/Rewards.sol",
  "compiler": {
    "name": "solc",
    "version": "0.4.18+commit.9cf6e910.Emscripten.clang"
  },
  "schemaVersion": "1.0.1",
  "updatedAt": "2017-11-30T23:27:40.784Z"
}