{
  "contractName": "Rewards",
  "abi": [
    {
      "constant": false,
      "inputs": [
        {
          "name": "_checkout",
          "type": "address"
        }
      ],
      "name": "removeCheckout",
      "outputs": [
        {
          "name": "",
          "type": "bool"
        }
      ],
      "payable": false,
      "stateMutability": "nonpayable",
      "type": "function"
    },
    {
      "constant": false,
      "inputs": [
        {
          "name": "_owner",
          "type": "address"
        }
      ],
      "name": "setOwner",
      "outputs": [],
      "payable": false,
      "stateMutability": "nonpayable",
      "type": "function"
    },
    {
      "constant": true,
      "inputs": [],
      "name": "registry",
      "outputs": [
        {
          "name": "",
          "type": "address"
        }
      ],
      "payable": false,
      "stateMutability": "view",
      "type": "function"
    },
    {
      "constant": true,
      "inputs": [
        {
          "name": "",
          "type": "address"
        }
      ],
      "name": "validCheckouts",
      "outputs": [
        {
          "name": "",
          "type": "bool"
        }
      ],
      "payable": false,
      "stateMutability": "view",
      "type": "function"
    },
    {
      "constant": true,
      "inputs": [],
      "name": "owner",
      "outputs": [
        {
          "name": "",
          "type": "address"
        }
      ],
      "payable": false,
      "stateMutability": "view",
      "type": "function"
    },
    {
      "constant": true,
      "inputs": [],
      "name": "marketToken",
      "outputs": [
        {
          "name": "",
          "type": "address"
        }
      ],
      "payable": false,
      "stateMutability": "view",
      "type": "function"
    },
    {
      "constant": false,
      "inputs": [
        {
          "name": "token",
          "type": "address"
        },
        {
          "name": "from",
          "type": "address"
        },
        {
          "name": "to",
          "type": "address"
        },
        {
          "name": "amount",
          "type": "uint256"
        }
      ],
      "name": "sendLoyaltyReward",
      "outputs": [
        {
          "name": "",
          "type": "bool"
        }
      ],
      "payable": false,
      "stateMutability": "nonpayable",
      "type": "function"
    },
    {
      "constant": false,
      "inputs": [
        {
          "name": "token",
          "type": "address"
        },
        {
          "name": "buyer",
          "type": "address"
        },
        {
          "name": "amount",
          "type": "uint256"
        }
      ],
      "name": "redeemLoyaltyTokens",
      "outputs": [
        {
          "name": "",
          "type": "bool"
        }
      ],
      "payable": false,
      "stateMutability": "nonpayable",
      "type": "function"
    },
    {
      "constant": false,
      "inputs": [
        {
          "name": "_checkout",
          "type": "address"
        }
      ],
      "name": "addCheckout",
      "outputs": [
        {
          "name": "",
          "type": "bool"
        }
      ],
      "payable": false,
      "stateMutability": "nonpayable",
      "type": "function"
    },
    {
      "constant": false,
      "inputs": [
        {
          "name": "from",
          "type": "address"
        },
        {
          "name": "to",
          "type": "address"
        },
        {
          "name": "amount",
          "type": "uint256"
        }
      ],
      "name": "sendAffiliateReward",
      "outputs": [
        {
          "name": "",
          "type": "bool"
        }
      ],
      "payable": false,
      "stateMutability": "nonpayable",
      "type": "function"
    },
    {
      "inputs": [
        {
          "name": "_marketToken",
          "type": "address"
        },
        {
          "name": "_registry",
          "type": "address"
        }
      ],
      "payable": false,
      "stateMutability": "nonpayable",
      "type": "constructor"
    },
    {
      "anonymous": false,
      "inputs": [
        {
          "indexed": false,
          "name": "error",
          "type": "string"
        }
      ],
      "name": "LogError",
      "type": "event"
    }
  ],
  "bytecode": "0x6060604052341561000f57600080fd5b604051604080610f3c83398101604052808051906020019091908051906020019091905050816000806101000a81548173ffffffffffffffffffffffffffffffffffffffff021916908373ffffffffffffffffffffffffffffffffffffffff16021790555080600160006101000a81548173ffffffffffffffffffffffffffffffffffffffff021916908373ffffffffffffffffffffffffffffffffffffffff16021790555033600260006101000a81548173ffffffffffffffffffffffffffffffffffffffff021916908373ffffffffffffffffffffffffffffffffffffffff1602179055505050610e35806101076000396000f3006060604052600436106100a4576000357c0100000000000000000000000000000000000000000000000000000000900463ffffffff168063119b0043146100a957806313af4035146100fa5780637b103999146101335780637f41148a146101885780638da5cb5b146101d9578063ad48d6111461022e578063bc06b31014610283578063c5ff3b691461031b578063ddaf763014610394578063f97ac79e146103e5575b600080fd5b34156100b457600080fd5b6100e0600480803573ffffffffffffffffffffffffffffffffffffffff1690602001909190505061045e565b604051808215151515815260200191505060405180910390f35b341561010557600080fd5b610131600480803573ffffffffffffffffffffffffffffffffffffffff1690602001909190505061051d565b005b341561013e57600080fd5b6101466105bd565b604051808273ffffffffffffffffffffffffffffffffffffffff1673ffffffffffffffffffffffffffffffffffffffff16815260200191505060405180910390f35b341561019357600080fd5b6101bf600480803573ffffffffffffffffffffffffffffffffffffffff169060200190919050506105e3565b604051808215151515815260200191505060405180910390f35b34156101e457600080fd5b6101ec610603565b604051808273ffffffffffffffffffffffffffffffffffffffff1673ffffffffffffffffffffffffffffffffffffffff16815260200191505060405180910390f35b341561023957600080fd5b610241610629565b604051808273ffffffffffffffffffffffffffffffffffffffff1673ffffffffffffffffffffffffffffffffffffffff16815260200191505060405180910390f35b341561028e57600080fd5b610301600480803573ffffffffffffffffffffffffffffffffffffffff1690602001909190803573ffffffffffffffffffffffffffffffffffffffff1690602001909190803573ffffffffffffffffffffffffffffffffffffffff1690602001909190803590602001909190505061064e565b604051808215151515815260200191505060405180910390f35b341561032657600080fd5b61037a600480803573ffffffffffffffffffffffffffffffffffffffff1690602001909190803573ffffffffffffffffffffffffffffffffffffffff16906020019091908035906020019091905050610935565b604051808215151515815260200191505060405180910390f35b341561039f57600080fd5b6103cb600480803573ffffffffffffffffffffffffffffffffffffffff16906020019091905050610bc6565b604051808215151515815260200191505060405180910390f35b34156103f057600080fd5b610444600480803573ffffffffffffffffffffffffffffffffffffffff1690602001909190803573ffffffffffffffffffffffffffffffffffffffff16906020019091908035906020019091905050610c85565b604051808215151515815260200191505060405180910390f35b60003373ffffffffffffffffffffffffffffffffffffffff16600260009054906101000a900473ffffffffffffffffffffffffffffffffffffffff1673ffffffffffffffffffffffffffffffffffffffff161415156104bc57600080fd5b6000600360008473ffffffffffffffffffffffffffffffffffffffff1673ffffffffffffffffffffffffffffffffffffffff16815260200190815260200160002060006101000a81548160ff02191690831515021790555060019050919050565b3373ffffffffffffffffffffffffffffffffffffffff16600260009054906101000a900473ffffffffffffffffffffffffffffffffffffffff1673ffffffffffffffffffffffffffffffffffffffff1614151561057957600080fd5b80600260006101000a81548173ffffffffffffffffffffffffffffffffffffffff021916908373ffffffffffffffffffffffffffffffffffffffff16021790555050565b600160009054906101000a900473ffffffffffffffffffffffffffffffffffffffff1681565b60036020528060005260406000206000915054906101000a900460ff1681565b600260009054906101000a900473ffffffffffffffffffffffffffffffffffffffff1681565b6000809054906101000a900473ffffffffffffffffffffffffffffffffffffffff1681565b600060011515600360003373ffffffffffffffffffffffffffffffffffffffff1673ffffffffffffffffffffffffffffffffffffffff16815260200190815260200160002060009054906101000a900460ff1615151415156106af57600080fd5b60001515600160009054906101000a900473ffffffffffffffffffffffffffffffffffffffff1673ffffffffffffffffffffffffffffffffffffffff16639b19251a876000604051602001526040518263ffffffff167c0100000000000000000000000000000000000000000000000000000000028152600401808273ffffffffffffffffffffffffffffffffffffffff1673ffffffffffffffffffffffffffffffffffffffff168152602001915050602060405180830381600087803b151561077857600080fd5b6102c65a03f1151561078957600080fd5b505050604051805190501515148061085357508373ffffffffffffffffffffffffffffffffffffffff168573ffffffffffffffffffffffffffffffffffffffff16638da5cb5b6000604051602001526040518163ffffffff167c0100000000000000000000000000000000000000000000000000000000028152600401602060405180830381600087803b151561081f57600080fd5b6102c65a03f1151561083057600080fd5b5050506040518051905073ffffffffffffffffffffffffffffffffffffffff1614155b15610861576000905061092d565b8473ffffffffffffffffffffffffffffffffffffffff166321670f2284846000604051602001526040518363ffffffff167c0100000000000000000000000000000000000000000000000000000000028152600401808373ffffffffffffffffffffffffffffffffffffffff1673ffffffffffffffffffffffffffffffffffffffff16815260200182815260200192505050602060405180830381600087803b151561090c57600080fd5b6102c65a03f1151561091d57600080fd5b5050506040518051905050600190505b949350505050565b600060011515600360003373ffffffffffffffffffffffffffffffffffffffff1673ffffffffffffffffffffffffffffffffffffffff16815260200190815260200160002060009054906101000a900460ff16151514151561099657600080fd5b60001515600160009054906101000a900473ffffffffffffffffffffffffffffffffffffffff1673ffffffffffffffffffffffffffffffffffffffff16639b19251a866000604051602001526040518263ffffffff167c0100000000000000000000000000000000000000000000000000000000028152600401808273ffffffffffffffffffffffffffffffffffffffff1673ffffffffffffffffffffffffffffffffffffffff168152602001915050602060405180830381600087803b1515610a5f57600080fd5b6102c65a03f11515610a7057600080fd5b5050506040518051905015151415610af3577fc35a0ec6603ff0b5966d7ca053a5f0984a70aad58a9a0ecb1349308815a4151a6040518080602001828103825260158152602001807f496e76616c6964206c6f79616c747920746f6b656e000000000000000000000081525060200191505060405180910390a160009050610bbf565b8373ffffffffffffffffffffffffffffffffffffffff16631e9a695084846000604051602001526040518363ffffffff167c0100000000000000000000000000000000000000000000000000000000028152600401808373ffffffffffffffffffffffffffffffffffffffff1673ffffffffffffffffffffffffffffffffffffffff16815260200182815260200192505050602060405180830381600087803b1515610b9e57600080fd5b6102c65a03f11515610baf57600080fd5b5050506040518051905050600190505b9392505050565b60003373ffffffffffffffffffffffffffffffffffffffff16600260009054906101000a900473ffffffffffffffffffffffffffffffffffffffff1673ffffffffffffffffffffffffffffffffffffffff16141515610c2457600080fd5b6001600360008473ffffffffffffffffffffffffffffffffffffffff1673ffffffffffffffffffffffffffffffffffffffff16815260200190815260200160002060006101000a81548160ff02191690831515021790555060019050919050565b600060011515600360003373ffffffffffffffffffffffffffffffffffffffff1673ffffffffffffffffffffffffffffffffffffffff16815260200190815260200160002060009054906101000a900460ff161515141515610ce657600080fd5b6000809054906101000a900473ffffffffffffffffffffffffffffffffffffffff1673ffffffffffffffffffffffffffffffffffffffff1663315e00338585856000604051602001526040518463ffffffff167c0100000000000000000000000000000000000000000000000000000000028152600401808473ffffffffffffffffffffffffffffffffffffffff1673ffffffffffffffffffffffffffffffffffffffff1681526020018373ffffffffffffffffffffffffffffffffffffffff1673ffffffffffffffffffffffffffffffffffffffff1681526020018281526020019350505050602060405180830381600087803b1515610de657600080fd5b6102c65a03f11515610df757600080fd5b505050604051805190505093925050505600a165627a7a7230582005ed1036a1b392edf71ba48818846723ba30614c1580f464f49bdedfebfabae60029",
  "source": "pragma solidity ^0.4.11;\n\nimport \"./MarketToken.sol\";\nimport \"./LoyaltyToken.sol\";\nimport \"./LoyaltyTokenRegistry.sol\";\n\ncontract Rewards {\n    MarketToken public marketToken;\n    LoyaltyTokenRegistry public registry;\n    address public owner;\n\n    // Checkout address => Valid\n    mapping (address => bool) public validCheckouts;\n\n    event LogError(string error);\n\n    modifier only_owner {\n        require(owner == msg.sender);\n        _;\n    }\n\n    modifier only_checkout {\n        require(validCheckouts[msg.sender] == true);\n        _;\n    }\n\n    // Constructor\n    function Rewards(MarketToken _marketToken, LoyaltyTokenRegistry _registry) public {\n        marketToken = _marketToken;\n        registry = _registry;\n        owner = msg.sender;\n    }\n\n    function sendAffiliateReward(address from, address to, uint256 amount) \n        public \n        only_checkout\n        returns (bool)\n    {\n        marketToken.transferFromRewards(from, to, amount);\n    }\n\n    function sendLoyaltyReward(address token, address from, address to, uint256 amount) \n        public\n        only_checkout\n        returns (bool)\n    {\n        if (registry.whitelist(token) == false || LoyaltyToken(token).owner() != from) {\n            return false;\n        }\n\n        LoyaltyToken(token).reward(to, amount);\n        return true;\n    }\n\n    function redeemLoyaltyTokens(address token, address buyer, uint256 amount)\n        public\n        only_checkout\n        returns (bool)\n    {\n        if (registry.whitelist(token) == false) {\n            LogError(\"Invalid loyalty token\");\n            return false;\n        }\n\n        LoyaltyToken(token).redeem(buyer, amount);\n        return true;\n    }\n\n    function addCheckout(address _checkout) public only_owner returns (bool) {\n        validCheckouts[_checkout] = true;\n        return true;\n    }\n\n    function removeCheckout(address _checkout) public only_owner returns (bool) {\n        validCheckouts[_checkout] = false;\n        return true;\n    }\n\n    function setOwner(address _owner) public only_owner {\n        owner = _owner;\n    }\n\n}",
  "sourcePath": "/Users/richardmcateer/Developer/Ethereum/kiosk/kiosk.js/contracts/contracts/Rewards.sol",
  "compiler": {
    "name": "solc",
    "version": "0.4.18+commit.9cf6e910.Emscripten.clang"
  },
  "schemaVersion": "1.0.1",
  "updatedAt": "2017-12-09T02:37:13.232Z"
}