{
  "contractName": "StandardResolver",
  "abi": [
    {
      "constant": true,
      "inputs": [
        {
          "name": "interfaceID",
          "type": "bytes4"
        }
      ],
      "name": "supportsInterface",
      "outputs": [
        {
          "name": "",
          "type": "bool"
        }
      ],
      "payable": false,
      "stateMutability": "view",
      "type": "function"
    },
    {
      "constant": true,
      "inputs": [
        {
          "name": "DIN",
          "type": "uint256"
        }
      ],
      "name": "merchant",
      "outputs": [
        {
          "name": "",
          "type": "address"
        }
      ],
      "payable": false,
      "stateMutability": "view",
      "type": "function"
    },
    {
      "constant": false,
      "inputs": [
        {
          "name": "_owner",
          "type": "address"
        }
      ],
      "name": "setOwner",
      "outputs": [],
      "payable": false,
      "stateMutability": "nonpayable",
      "type": "function"
    },
    {
      "constant": false,
      "inputs": [
        {
          "name": "_productURL",
          "type": "string"
        }
      ],
      "name": "setProductURL",
      "outputs": [],
      "payable": false,
      "stateMutability": "nonpayable",
      "type": "function"
    },
    {
      "constant": true,
      "inputs": [],
      "name": "registry",
      "outputs": [
        {
          "name": "",
          "type": "address"
        }
      ],
      "payable": false,
      "stateMutability": "view",
      "type": "function"
    },
    {
      "constant": true,
      "inputs": [],
      "name": "owner",
      "outputs": [
        {
          "name": "",
          "type": "address"
        }
      ],
      "payable": false,
      "stateMutability": "view",
      "type": "function"
    },
    {
      "constant": false,
      "inputs": [
        {
          "name": "_merchant",
          "type": "address"
        }
      ],
      "name": "setMerchant",
      "outputs": [],
      "payable": false,
      "stateMutability": "nonpayable",
      "type": "function"
    },
    {
      "constant": true,
      "inputs": [
        {
          "name": "DIN",
          "type": "uint256"
        }
      ],
      "name": "productURL",
      "outputs": [
        {
          "name": "",
          "type": "string"
        }
      ],
      "payable": false,
      "stateMutability": "view",
      "type": "function"
    },
    {
      "inputs": [
        {
          "name": "_registry",
          "type": "address"
        },
        {
          "name": "_owner",
          "type": "address"
        },
        {
          "name": "_productURL",
          "type": "string"
        },
        {
          "name": "_merchant",
          "type": "address"
        }
      ],
      "payable": false,
      "stateMutability": "nonpayable",
      "type": "constructor"
    }
  ],
  "bytecode": "0x6060604052341561000f57600080fd5b604051610a43380380610a438339810160405280805190602001909190805190602001909190805182019190602001805190602001909190505082600360006101000a81548173ffffffffffffffffffffffffffffffffffffffff021916908373ffffffffffffffffffffffffffffffffffffffff160217905550836000806101000a81548173ffffffffffffffffffffffffffffffffffffffff021916908373ffffffffffffffffffffffffffffffffffffffff16021790555081600190805190602001906100e092919061012b565b5080600260006101000a81548173ffffffffffffffffffffffffffffffffffffffff021916908373ffffffffffffffffffffffffffffffffffffffff160217905550505050506101d0565b828054600181600116156101000203166002900490600052602060002090601f016020900481019282601f1061016c57805160ff191683800117855561019a565b8280016001018555821561019a579182015b8281111561019957825182559160200191906001019061017e565b5b5090506101a791906101ab565b5090565b6101cd91905b808211156101c95760008160009055506001016101b1565b5090565b90565b610864806101df6000396000f30060606040526004361061008e576000357c0100000000000000000000000000000000000000000000000000000000900463ffffffff16806301ffc9a714610093578063020cdd36146100ed57806313af4035146101505780631a9ace09146101895780637b103999146101e65780638da5cb5b1461023b578063a2fba48414610290578063af655719146102c9575b600080fd5b341561009e57600080fd5b6100d360048080357bffffffffffffffffffffffffffffffffffffffffffffffffffffffff1916906020019091905050610365565b604051808215151515815260200191505060405180910390f35b34156100f857600080fd5b61010e60048080359060200190919050506104a8565b604051808273ffffffffffffffffffffffffffffffffffffffff1673ffffffffffffffffffffffffffffffffffffffff16815260200191505060405180910390f35b341561015b57600080fd5b610187600480803573ffffffffffffffffffffffffffffffffffffffff169060200190919050506104d4565b005b341561019457600080fd5b6101e4600480803590602001908201803590602001908080601f01602080910402602001604051908101604052809392919081815260200183838082843782019150505050505091905050610574565b005b34156101f157600080fd5b6101f96105ea565b604051808273ffffffffffffffffffffffffffffffffffffffff1673ffffffffffffffffffffffffffffffffffffffff16815260200191505060405180910390f35b341561024657600080fd5b61024e61060f565b604051808273ffffffffffffffffffffffffffffffffffffffff1673ffffffffffffffffffffffffffffffffffffffff16815260200191505060405180910390f35b341561029b57600080fd5b6102c7600480803573ffffffffffffffffffffffffffffffffffffffff16906020019091905050610635565b005b34156102d457600080fd5b6102ea60048080359060200190919050506106d5565b6040518080602001828103825283818151815260200191508051906020019080838360005b8381101561032a57808201518184015260208101905061030f565b50505050905090810190601f1680156103575780820380516001836020036101000a031916815260200191505b509250505060405180910390f35b60006301ffc9a77c0100000000000000000000000000000000000000000000000000000000027bffffffffffffffffffffffffffffffffffffffffffffffffffffffff1916827bffffffffffffffffffffffffffffffffffffffffffffffffffffffff19161480610436575063af6557197c0100000000000000000000000000000000000000000000000000000000027bffffffffffffffffffffffffffffffffffffffffffffffffffffffff1916827bffffffffffffffffffffffffffffffffffffffffffffffffffffffff1916145b806104a157506390a9f8b87c0100000000000000000000000000000000000000000000000000000000027bffffffffffffffffffffffffffffffffffffffffffffffffffffffff1916827bffffffffffffffffffffffffffffffffffffffffffffffffffffffff1916145b9050919050565b6000600260009054906101000a900473ffffffffffffffffffffffffffffffffffffffff169050919050565b3373ffffffffffffffffffffffffffffffffffffffff16600360009054906101000a900473ffffffffffffffffffffffffffffffffffffffff1673ffffffffffffffffffffffffffffffffffffffff1614151561053057600080fd5b80600360006101000a81548173ffffffffffffffffffffffffffffffffffffffff021916908373ffffffffffffffffffffffffffffffffffffffff16021790555050565b3373ffffffffffffffffffffffffffffffffffffffff16600360009054906101000a900473ffffffffffffffffffffffffffffffffffffffff1673ffffffffffffffffffffffffffffffffffffffff161415156105d057600080fd5b80600190805190602001906105e692919061077f565b5050565b6000809054906101000a900473ffffffffffffffffffffffffffffffffffffffff1681565b600360009054906101000a900473ffffffffffffffffffffffffffffffffffffffff1681565b3373ffffffffffffffffffffffffffffffffffffffff16600360009054906101000a900473ffffffffffffffffffffffffffffffffffffffff1673ffffffffffffffffffffffffffffffffffffffff1614151561069157600080fd5b80600260006101000a81548173ffffffffffffffffffffffffffffffffffffffff021916908373ffffffffffffffffffffffffffffffffffffffff16021790555050565b6106dd6107ff565b60018054600181600116156101000203166002900480601f0160208091040260200160405190810160405280929190818152602001828054600181600116156101000203166002900480156107735780601f1061074857610100808354040283529160200191610773565b820191906000526020600020905b81548152906001019060200180831161075657829003601f168201915b50505050509050919050565b828054600181600116156101000203166002900490600052602060002090601f016020900481019282601f106107c057805160ff19168380011785556107ee565b828001600101855582156107ee579182015b828111156107ed5782518255916020019190600101906107d2565b5b5090506107fb9190610813565b5090565b602060405190810160405280600081525090565b61083591905b80821115610831576000816000905550600101610819565b5090565b905600a165627a7a7230582037243ad45ebba3330cea3d56d2d0b4446377adf74556bd44722caff79c803e920029",
  "source": "pragma solidity ^0.4.11;\n\nimport \"./URLResolver.sol\";\nimport \"./DINRegistry.sol\";\n\n/** @title A resolver contract that can be used for a single merchant with many products */\ncontract StandardResolver is URLResolver {\n    bytes4 constant INTERFACE_META_ID = 0x01ffc9a7;         // bytes4(keccak256(\"supportsInterface(bytes4)\"))\n    bytes4 constant PRODUCT_URL_INTERFACE_ID = 0xaf655719;  // bytes4(keccak256(\"productURL(uint256)\"))\n    bytes4 constant MERCHANT_INTERFACE_ID = 0x90a9f8b8;     // bytes4(keccak256(\"merchant(uint256)\"))\n\n    DINRegistry public registry;\n    string url;\n    address merchantAddr;\n    address public owner;\n\n    modifier only_owner {\n        require(owner == msg.sender);\n        _;\n    }\n\n    function StandardResolver(\n        DINRegistry _registry,\n        address _owner,\n        string _productURL,\n        address _merchant\n    ) \n        public\n    {\n        owner = _owner;\n        registry = _registry;\n        url = _productURL;\n        merchantAddr = _merchant;\n    }\n\n    function supportsInterface(bytes4 interfaceID) public constant returns (bool) {\n        return interfaceID == INTERFACE_META_ID ||\n               interfaceID == PRODUCT_URL_INTERFACE_ID ||\n               interfaceID == MERCHANT_INTERFACE_ID;\n    }\n\n    function productURL(uint256 DIN) public constant returns (string) {\n        return url;\n    }\n\n    function setProductURL(string _productURL) public only_owner {\n        url = _productURL;\n    }\n\n    function merchant(uint256 DIN) public constant returns (address) {\n        return merchantAddr;\n    }\n\n    function setMerchant(address _merchant) public only_owner {\n        merchantAddr = _merchant;\n    }\n\n    function setOwner(address _owner) public only_owner {\n        owner = _owner;\n    }\n\n}",
  "sourcePath": "/Users/richardmcateer/Developer/Ethereum/kiosk/contracts/contracts/StandardResolver.sol",
  "compiler": {
    "name": "solc",
    "version": "0.4.18+commit.9cf6e910.Emscripten.clang"
  },
  "schemaVersion": "1.0.1",
  "updatedAt": "2017-11-26T07:29:02.071Z"
}