{
  "contractName": "StandardResolver",
  "abi": [
    {
      "constant": true,
      "inputs": [
        {
          "name": "interfaceID",
          "type": "bytes4"
        }
      ],
      "name": "supportsInterface",
      "outputs": [
        {
          "name": "",
          "type": "bool"
        }
      ],
      "payable": false,
      "stateMutability": "view",
      "type": "function"
    },
    {
      "constant": false,
      "inputs": [
        {
          "name": "_owner",
          "type": "address"
        }
      ],
      "name": "setOwner",
      "outputs": [],
      "payable": false,
      "stateMutability": "nonpayable",
      "type": "function"
    },
    {
      "constant": false,
      "inputs": [
        {
          "name": "_productURL",
          "type": "string"
        }
      ],
      "name": "setProductURL",
      "outputs": [],
      "payable": false,
      "stateMutability": "nonpayable",
      "type": "function"
    },
    {
      "constant": true,
      "inputs": [],
      "name": "owner",
      "outputs": [
        {
          "name": "",
          "type": "address"
        }
      ],
      "payable": false,
      "stateMutability": "view",
      "type": "function"
    },
    {
      "constant": true,
      "inputs": [
        {
          "name": "DIN",
          "type": "uint256"
        }
      ],
      "name": "productURL",
      "outputs": [
        {
          "name": "baseURL",
          "type": "string"
        },
        {
          "name": "productId",
          "type": "uint256"
        }
      ],
      "payable": false,
      "stateMutability": "view",
      "type": "function"
    },
    {
      "inputs": [
        {
          "name": "_owner",
          "type": "address"
        },
        {
          "name": "_productURL",
          "type": "string"
        }
      ],
      "payable": false,
      "stateMutability": "nonpayable",
      "type": "constructor"
    }
  ],
  "bytecode": "0x6060604052341561000f57600080fd5b6040516107483803806107488339810160405280805190602001909190805182019190505081600160006101000a81548173ffffffffffffffffffffffffffffffffffffffff021916908373ffffffffffffffffffffffffffffffffffffffff160217905550806000908051906020019061008b929190610093565b505050610138565b828054600181600116156101000203166002900490600052602060002090601f016020900481019282601f106100d457805160ff1916838001178555610102565b82800160010185558215610102579182015b828111156101015782518255916020019190600101906100e6565b5b50905061010f9190610113565b5090565b61013591905b80821115610131576000816000905550600101610119565b5090565b90565b610601806101476000396000f30060606040526004361061006d576000357c0100000000000000000000000000000000000000000000000000000000900463ffffffff16806301ffc9a71461007257806313af4035146100cc5780631a9ace09146101055780638da5cb5b14610162578063af655719146101b7575b600080fd5b341561007d57600080fd5b6100b260048080357bffffffffffffffffffffffffffffffffffffffffffffffffffffffff191690602001909190505061025a565b604051808215151515815260200191505060405180910390f35b34156100d757600080fd5b610103600480803573ffffffffffffffffffffffffffffffffffffffff16906020019091905050610332565b005b341561011057600080fd5b610160600480803590602001908201803590602001908080601f016020809104026020016040519081016040528093929190818152602001838380828437820191505050505050919050506103d2565b005b341561016d57600080fd5b610175610448565b604051808273ffffffffffffffffffffffffffffffffffffffff1673ffffffffffffffffffffffffffffffffffffffff16815260200191505060405180910390f35b34156101c257600080fd5b6101d8600480803590602001909190505061046e565b6040518080602001838152602001828103825284818151815260200191508051906020019080838360005b8381101561021e578082015181840152602081019050610203565b50505050905090810190601f16801561024b5780820380516001836020036101000a031916815260200191505b50935050505060405180910390f35b60006301ffc9a77c0100000000000000000000000000000000000000000000000000000000027bffffffffffffffffffffffffffffffffffffffffffffffffffffffff1916827bffffffffffffffffffffffffffffffffffffffffffffffffffffffff1916148061032b575063af6557197c0100000000000000000000000000000000000000000000000000000000027bffffffffffffffffffffffffffffffffffffffffffffffffffffffff1916827bffffffffffffffffffffffffffffffffffffffffffffffffffffffff1916145b9050919050565b3373ffffffffffffffffffffffffffffffffffffffff16600160009054906101000a900473ffffffffffffffffffffffffffffffffffffffff1673ffffffffffffffffffffffffffffffffffffffff1614151561038e57600080fd5b80600160006101000a81548173ffffffffffffffffffffffffffffffffffffffff021916908373ffffffffffffffffffffffffffffffffffffffff16021790555050565b3373ffffffffffffffffffffffffffffffffffffffff16600160009054906101000a900473ffffffffffffffffffffffffffffffffffffffff1673ffffffffffffffffffffffffffffffffffffffff1614151561042e57600080fd5b806000908051906020019061044492919061051c565b5050565b600160009054906101000a900473ffffffffffffffffffffffffffffffffffffffff1681565b61047661059c565b6000808054600181600116156101000203166002900480601f01602080910402602001604051908101604052809291908181526020018280546001816001161561010002031660029004801561050d5780601f106104e25761010080835404028352916020019161050d565b820191906000526020600020905b8154815290600101906020018083116104f057829003601f168201915b50505050509150829050915091565b828054600181600116156101000203166002900490600052602060002090601f016020900481019282601f1061055d57805160ff191683800117855561058b565b8280016001018555821561058b579182015b8281111561058a57825182559160200191906001019061056f565b5b50905061059891906105b0565b5090565b602060405190810160405280600081525090565b6105d291905b808211156105ce5760008160009055506001016105b6565b5090565b905600a165627a7a72305820f398353ad11791f31931657c0b8e9c6d9b9ea62cc2d46dcbf6430f0aabcc9e470029",
  "source": "pragma solidity ^0.4.11;\n\nimport \"./URLResolver.sol\";\n\n/** @title A resolver contract that can be used for a single merchant with many products */\ncontract StandardResolver is URLResolver {\n    bytes4 constant INTERFACE_META_ID = 0x01ffc9a7;         // bytes4(keccak256(\"supportsInterface(bytes4)\"))\n    bytes4 constant PRODUCT_URL_INTERFACE_ID = 0xaf655719;  // bytes4(keccak256(\"productURL(uint256)\"))\n\n    string url;\n    address public owner;\n\n    modifier only_owner {\n        require(owner == msg.sender);\n        _;\n    }\n\n    function StandardResolver(address _owner, string _productURL) public {\n        owner = _owner;\n        url = _productURL;\n    }\n\n    function supportsInterface(bytes4 interfaceID) public constant returns (bool) {\n        return interfaceID == INTERFACE_META_ID ||\n               interfaceID == PRODUCT_URL_INTERFACE_ID;\n    }\n\n    function productURL(uint256 DIN) public constant returns (string baseURL, uint256 productId) {\n        baseURL = url;\n        productId = DIN;\n    }\n\n    function setProductURL(string _productURL) public only_owner {\n        url = _productURL;\n    }\n\n\n    function setOwner(address _owner) public only_owner {\n        owner = _owner;\n    }\n\n}",
  "sourcePath": "/Users/richardmcateer/Developer/Ethereum/kiosk/kiosk.js/contracts/contracts/resolver/StandardResolver.sol",
  "compiler": {
    "name": "solc",
    "version": "0.4.18+commit.9cf6e910.Emscripten.clang"
  },
  "schemaVersion": "1.0.1",
  "updatedAt": "2018-02-06T19:11:03.216Z"
}