{
  "contractName": "StandardResolver",
  "abi": [
    {
      "constant": true,
      "inputs": [
        {
          "name": "interfaceID",
          "type": "bytes4"
        }
      ],
      "name": "supportsInterface",
      "outputs": [
        {
          "name": "",
          "type": "bool"
        }
      ],
      "payable": false,
      "stateMutability": "view",
      "type": "function"
    },
    {
      "constant": false,
      "inputs": [
        {
          "name": "_owner",
          "type": "address"
        }
      ],
      "name": "setOwner",
      "outputs": [],
      "payable": false,
      "stateMutability": "nonpayable",
      "type": "function"
    },
    {
      "constant": false,
      "inputs": [
        {
          "name": "_productURL",
          "type": "string"
        }
      ],
      "name": "setProductURL",
      "outputs": [],
      "payable": false,
      "stateMutability": "nonpayable",
      "type": "function"
    },
    {
      "constant": true,
      "inputs": [],
      "name": "registry",
      "outputs": [
        {
          "name": "",
          "type": "address"
        }
      ],
      "payable": false,
      "stateMutability": "view",
      "type": "function"
    },
    {
      "constant": true,
      "inputs": [],
      "name": "owner",
      "outputs": [
        {
          "name": "",
          "type": "address"
        }
      ],
      "payable": false,
      "stateMutability": "view",
      "type": "function"
    },
    {
      "constant": true,
      "inputs": [
        {
          "name": "DIN",
          "type": "uint256"
        }
      ],
      "name": "productURL",
      "outputs": [
        {
          "name": "",
          "type": "string"
        }
      ],
      "payable": false,
      "stateMutability": "view",
      "type": "function"
    },
    {
      "inputs": [
        {
          "name": "_registry",
          "type": "address"
        },
        {
          "name": "_owner",
          "type": "address"
        },
        {
          "name": "_productURL",
          "type": "string"
        }
      ],
      "payable": false,
      "stateMutability": "nonpayable",
      "type": "constructor"
    }
  ],
  "bytecode": "0x6060604052341561000f57600080fd5b60405161080c38038061080c8339810160405280805190602001909190805190602001909190805182019190505081600260006101000a81548173ffffffffffffffffffffffffffffffffffffffff021916908373ffffffffffffffffffffffffffffffffffffffff160217905550826000806101000a81548173ffffffffffffffffffffffffffffffffffffffff021916908373ffffffffffffffffffffffffffffffffffffffff16021790555080600190805190602001906100d49291906100dd565b50505050610182565b828054600181600116156101000203166002900490600052602060002090601f016020900481019282601f1061011e57805160ff191683800117855561014c565b8280016001018555821561014c579182015b8281111561014b578251825591602001919060010190610130565b5b509050610159919061015d565b5090565b61017f91905b8082111561017b576000816000905550600101610163565b5090565b90565b61067b806101916000396000f300606060405260043610610078576000357c0100000000000000000000000000000000000000000000000000000000900463ffffffff16806301ffc9a71461007d57806313af4035146100d75780631a9ace09146101105780637b1039991461016d5780638da5cb5b146101c2578063af65571914610217575b600080fd5b341561008857600080fd5b6100bd60048080357bffffffffffffffffffffffffffffffffffffffffffffffffffffffff19169060200190919050506102b3565b604051808215151515815260200191505060405180910390f35b34156100e257600080fd5b61010e600480803573ffffffffffffffffffffffffffffffffffffffff1690602001909190505061038b565b005b341561011b57600080fd5b61016b600480803590602001908201803590602001908080601f0160208091040260200160405190810160405280939291908181526020018383808284378201915050505050509190505061042b565b005b341561017857600080fd5b6101806104a1565b604051808273ffffffffffffffffffffffffffffffffffffffff1673ffffffffffffffffffffffffffffffffffffffff16815260200191505060405180910390f35b34156101cd57600080fd5b6101d56104c6565b604051808273ffffffffffffffffffffffffffffffffffffffff1673ffffffffffffffffffffffffffffffffffffffff16815260200191505060405180910390f35b341561022257600080fd5b61023860048080359060200190919050506104ec565b6040518080602001828103825283818151815260200191508051906020019080838360005b8381101561027857808201518184015260208101905061025d565b50505050905090810190601f1680156102a55780820380516001836020036101000a031916815260200191505b509250505060405180910390f35b60006301ffc9a77c0100000000000000000000000000000000000000000000000000000000027bffffffffffffffffffffffffffffffffffffffffffffffffffffffff1916827bffffffffffffffffffffffffffffffffffffffffffffffffffffffff19161480610384575063af6557197c0100000000000000000000000000000000000000000000000000000000027bffffffffffffffffffffffffffffffffffffffffffffffffffffffff1916827bffffffffffffffffffffffffffffffffffffffffffffffffffffffff1916145b9050919050565b3373ffffffffffffffffffffffffffffffffffffffff16600260009054906101000a900473ffffffffffffffffffffffffffffffffffffffff1673ffffffffffffffffffffffffffffffffffffffff161415156103e757600080fd5b80600260006101000a81548173ffffffffffffffffffffffffffffffffffffffff021916908373ffffffffffffffffffffffffffffffffffffffff16021790555050565b3373ffffffffffffffffffffffffffffffffffffffff16600260009054906101000a900473ffffffffffffffffffffffffffffffffffffffff1673ffffffffffffffffffffffffffffffffffffffff1614151561048757600080fd5b806001908051906020019061049d929190610596565b5050565b6000809054906101000a900473ffffffffffffffffffffffffffffffffffffffff1681565b600260009054906101000a900473ffffffffffffffffffffffffffffffffffffffff1681565b6104f4610616565b60018054600181600116156101000203166002900480601f01602080910402602001604051908101604052809291908181526020018280546001816001161561010002031660029004801561058a5780601f1061055f5761010080835404028352916020019161058a565b820191906000526020600020905b81548152906001019060200180831161056d57829003601f168201915b50505050509050919050565b828054600181600116156101000203166002900490600052602060002090601f016020900481019282601f106105d757805160ff1916838001178555610605565b82800160010185558215610605579182015b828111156106045782518255916020019190600101906105e9565b5b509050610612919061062a565b5090565b602060405190810160405280600081525090565b61064c91905b80821115610648576000816000905550600101610630565b5090565b905600a165627a7a72305820eb222d046a781fbf39ed1ae215f6ad799a064f404644322df90d08425238679d0029",
  "source": "pragma solidity ^0.4.11;\n\nimport \"./URLResolver.sol\";\nimport \"./DINRegistry.sol\";\n\n/** @title A resolver contract that can be used for a single merchant with many products */\ncontract StandardResolver is URLResolver {\n    bytes4 constant INTERFACE_META_ID = 0x01ffc9a7;         // bytes4(keccak256(\"supportsInterface(bytes4)\"))\n    bytes4 constant PRODUCT_URL_INTERFACE_ID = 0xaf655719;  // bytes4(keccak256(\"productURL(uint256)\"))\n\n    DINRegistry public registry;\n    string url;\n    address public owner;\n\n    modifier only_owner {\n        require(owner == msg.sender);\n        _;\n    }\n\n    function StandardResolver(\n        DINRegistry _registry,\n        address _owner,\n        string _productURL\n    ) \n        public\n    {\n        owner = _owner;\n        registry = _registry;\n        url = _productURL;\n    }\n\n    function supportsInterface(bytes4 interfaceID) public constant returns (bool) {\n        return interfaceID == INTERFACE_META_ID ||\n               interfaceID == PRODUCT_URL_INTERFACE_ID;\n    }\n\n    function productURL(uint256 DIN) public constant returns (string) {\n        return url;\n    }\n\n    function setProductURL(string _productURL) public only_owner {\n        url = _productURL;\n    }\n\n\n    function setOwner(address _owner) public only_owner {\n        owner = _owner;\n    }\n\n}",
  "sourcePath": "/Users/richardmcateer/Developer/Ethereum/kiosk/single-product-page/src/kiosk.js/contracts/contracts/StandardResolver.sol",
  "compiler": {
    "name": "solc",
    "version": "0.4.18+commit.9cf6e910.Emscripten.clang"
  },
  "schemaVersion": "1.0.1",
  "updatedAt": "2017-11-30T03:03:50.407Z"
}